:400000000080002011000000E10D0100E10D010080B500AF47F2BC63C4F2000344F2FA62C4F2000212681A6010F0DEFE10B5054C237833B9044810B10448AFF300800121E8
:40004000217010BD088AFF1F00000000381C020008B5064B1BB106480649AFF300800648016811B1054A02B1904708BD00000000381C02000C8AFF1F0881FF1F00000000BB
:4000800080B582B000AF48F26853C1F6FF731B689B6818464FF000014FF002024FF0000317F0A0FE4FF00003FB7112F075F909F08FFB4AF22413C1F6FF734FF480525A65AD
:4000C00040F66403C2F200034FF480525A654AF22413C1F6FF734FF00002C4F67802DA6040F66403C2F200034FF00002C4F62C12DA604AF22413C1F6FF73DB6818464FF04A
:400100000001C4F2B43117F09FFA03461A464AF22413C1F6FF735A6040F66403C2F20003DB6818464FF00001C4F2B43117F08CFA03461A4640F66403C2F200035A604AF234
:400140002413C1F6FF73DB68184616F055FD02460B46D3A1D1E9000116F0CCFE02460B461046194617F05EF802464AF22413C1F6FF739A6040F66403C2F20003DB68184610
:4001800016F03AFD02460B46C5A1D1E9000116F0B1FE02460B461046194617F043F8024640F66403C2F200039A6012F0E5FA4FF0FF0012F0E1F812F08BF911F061F911F091
:4001C0003DFD11F059FD13F0A5FC14F035FA13F0D3FA14F0D5FB13F0A9FC14F0ADFC13F0E1FD40F60043C2F200034FF000021A8040F60043C2F200034FF000029A7040F601
:400200000043C2F200034FF00002DA7040F60043C2F200034FF000021A714AF22410C1F6FF700AF063FF40F66400C2F200000AF05DFF0AF07DFB15F06BFB40F60840C2F298
:40024000000010F0F9F848F65440C1F6FF7010F0F3F840F66030C2F200000FF0A5FD40F69820C2F200000FF09FFD09F05DFF0CF0D7FB0CF017FD0CF027FC40F6F800C2F21E
:4002800000000CF021F840F6A810C2F200000CF01BF80BF0B5FE0CF099FD0EF02FFE11F0AFFF4FF4FA7013F00FF814F0FFFF16F059F94FF0FF0015F03DFA4FF0FF0015F090
:4002C00049FA44F26030C0F2020017F083FD44F26430C0F2020017F07DFD44F29030C0F2020017F077FD44F2B830C0F2020017F071FD44F2E430C0F2020017F06BFD44F2AC
:400300001C40C0F2020017F065FD44F26040C0F2020017F05FFD44F26030C0F2020017F059FD12F0E1F814F027FA14F065FF62B644F2B440C0F2020017F04CFD15F0ECFEE3
:4003400015F0FCFB4FF0640012F0BEFF4FF001004FF000014FF0010215F070FC44F2C840C0F2020017F036FD44F26030C0F2020017F030FD4FF0C80012F0A6FF44F2E0400E
:40038000C0F2020017F0D2FC4FF00103FB710BE04FF47A7012F098FF4FF02E0017F0DCFCFB7903F1FF33FB71FB79002BF0D144F26030C0F2020017F00DFD40F6AC33C2F24E
:4003C00000031B78002B07D148F62423C1F6FF734FF006021A7014E048F62423C1F6FF734FF005021A704AF22410C1F6FF700AF0A7FE40F66400C2F200000AF0A1FE0BF05C
:4004000013FE00F0F5FD0346BB7144F26030C0F2020017F0DFFC44F20850C0F2020017F085FC40F6AC33C2F200031B78012B06D144F21050C0F2020017F078FC05E044F2EC
:400440001C50C0F2020017F071FC40F60043C2F200031B88002B05D044F22050C0F2020017F064FC48F62423C1F6FF731B78052B06D144F22450C0F2020017F057FC05E06F
:4004800044F22C50C0F2020017F050FC4FF03E0017F062FC4FF0C80012F016FFB1E700BF182D4454FB21194080B582B000AF0346FB71FB79042B32D0042B0BDC012B19D03F
:4004C000012B02DC002B0ED04CE0022B19D0032B1ED047E0062B30D0062B27DB072B33D0632B38D03EE044F23450C0F2020017F01DFC3EE044F24450C0F2020017F016FCD4
:4005000037E044F25850C0F2020017F00FFC30E044F26850C0F2020017F008FC29E044F28050C0F2020017F001FC22E044F29850C0F2020017F0FAFB1BE044F2AC50C0F2CD
:40054000020017F0F3FB14E044F2C450C0F2020017F0ECFB0DE044F2D450C0F2020017F0E5FB06E044F2E450C0F2020017F0DEFB00BF07F10807BD4680BD00BF80B582B0B2
:4005800000AF0346FB71FB790C2B63D801A252F823F000BFC9050000D7050000E5050000F3050000010600000F0600001D0600005506000055060000550600002B06000025
:4005C000390600004706000044F2EC50C0F2020017F0ACFB45E044F2F850C0F2020017F0A5FB3EE044F20860C0F2020017F09EFB37E044F22060C0F2020017F097FB30E063
:4006000044F23860C0F2020017F090FB29E044F25060C0F2020017F089FB22E044F26860C0F2020017F082FB1BE044F28060C0F2020017F07BFB14E044F29860C0F2020028
:4006400017F074FB0DE044F2A860C0F2020017F06DFB06E044F2E450C0F2020017F066FB00BF07F10807BD4680BD00BF80B500AF40F6AC33C2F200035B78122B00F2A880AB
:4006800001A252F823F000BFD5060000E3060000F1060000FF0600000D0700001B07000029070000370700004507000053070000610700006F0700007D0700008B0700007D
:4006C000D107000099070000A7070000B5070000C307000044F2B460C0F2020017F026FB7DE044F2C460C0F2020017F01FFB76E044F2D860C0F2020017F018FB6FE044F285
:40070000E860C0F2020017F011FB68E044F2F860C0F2020017F00AFB61E044F20470C0F2020017F003FB5AE044F21C70C0F2020017F0FCFA53E044F22C70C0F2020017F003
:40074000F5FA4CE044F24070C0F2020017F0EEFA45E044F25070C0F2020017F0E7FA3EE044F26070C0F2020017F0E0FA37E044F27470C0F2020017F0D9FA30E044F2807070
:40078000C0F2020017F0D2FA29E044F28C70C0F2020017F0CBFA22E044F2A070C0F2020017F0C4FA1BE044F2B470C0F2020017F0BDFA14E044F2C870C0F2020017F0B6FAA2
:4007C0000DE044F2D870C0F2020017F0AFFA06E044F2E470C0F2020017F0A8FA00BF80BD80B500AF40F6AC33C2F200031B78002B02D0012B07D00DE044F2E870C0F20200EF
:4008000017F094FA0DE044F2F870C0F2020017F08DFA06E044F60400C0F2020017F086FA00BF44F61000C0F2020017F0D3FA80BD80B582B000AF78607B685B78002B06D183
:4008400044F61400C0F2020017F070FA26E07B685B78012B06D144F62000C0F2020017F065FA1BE07B685B78022B06D144F62C00C0F2020017F05AFA10E07B685B78032BD4
:4008800006D144F63C00C0F2020017F04FFA05E044F64800C0F2020017F048FA44F61000C0F2020017F096FA07F10807BD4680BD80B582B000AF78607B689B6A184616F06D
:4008C0009BF902460B4644F65C00C0F2020017F02DFA7B689B6A4FF00000C4F27F20194616F0B2FE0346184616F086F902460B4644F66400C0F2020017F018FA7B685B6AEA
:40090000184616F079F902460B460DA1D1E9000116F0F0FA02460B461046194616F082FC0346184616F068F902460B4644F67800C0F2020017F0FAF907F10807BD4680BDCF
:40094000597B0FFFFFEBB33F80B582B000AF78607A684AF22413C1F6FF739A4206D144F69400C0F2020017F0E1F913E07A6840F66403C2F200039A4206D144F6A400C0F2CB
:40098000020017F0D3F905E044F6C000C0F2020017F0CCF907F10807BD4680BDB0B582B002AF4AF22413C1F6FF73DB69184616F023F904460D464AF22413C1F6FF73596919
:4009C0004AF22413C1F6FF73DA6948F20C13C1F6FF731B68084611461A460AF00FFF0346184616F009F902460B46CDE9002344F6DC00C0F2020022462B4617F097F9BD46A8
:400A0000B0BD00BFB0B582B002AF40F66403C2F20003DB69184616F0EFF804460D4640F66403C2F20003596940F66403C2F20003DA6948F20C13C1F6FF731B68084611466B
:400A40001A460AF0DBFE0346184616F0D5F802460B46CDE9002344F6DC00C0F2020022462B4617F063F9BD46B0BD00BF80B582B000AF78607B6893F82C3044F6F800C0F286
:400A80000200194617F052F97B6893F82C30002B06D144F60010C0F2020017F047F971E07B6893F82C30012B06D144F60C10C0F2020017F03BF965E07B6893F82C30022BD3
:400AC00006D144F62410C0F2020017F02FF959E07B6893F82C30032B06D144F63C10C0F2020017F023F94DE07B6893F82C30042B06D144F64810C0F2020017F017F941E0EE
:400B00007B6893F82C30052B06D144F65410C0F2020017F00BF935E07B6893F82C30062B06D144F66410C0F2020017F0FFF829E07B6893F82C30072B06D144F66410C0F204
:400B4000020017F0F3F81DE07B6893F82C30072B06D144F67C10C0F2020017F0E7F811E07B6893F82C30082B06D144F6B010C0F2020017F0DBF805E044F6D810C0F2020049
:400B800017F0D4F807F10807BD4680BD80B582B000AF78607B6893F88430002B06D144F6F010C0F2020017F0C1F81DE07B6893F88430022B06D144F6FC10C0F2020017F037
:400BC000B5F811E07B6893F88430012B06D144F60820C0F2020017F0A9F805E044F61420C0F2020017F0A2F807F10807BD4680BD80B586B000AF02460B46FA71BB714FF0FC
:400C00000003FB754FF00003BB8248F63420C1F6FF7007F073FD37E0FB7C002B2DD0FB7C0A2B2AD0FA7DFB7CFB6048F23C13C1F6FF731968FB6803F10103CB181B7803F007
:400C40000303012B03D1FB6803F1200300E0FB68D9B248F63423C1F6FF739954FB7D03F10103FB75FB79012B03D1FB7C184617F073F84FF00003BB8206E0BB79012B03D147
:400C8000BB8A03F10103BB82FB7D262B10D811F031FB0346FB74FB7C0D2B09D0BA8A4CF24F339A4204D807F047FD0346012BB3D0FA7D48F63423C1F6FF734FF0000199544B
:400CC000FB7D262B02D94FF0020309E0BA8A4CF24F339A4202D94FF0010301E04FF00003184607F11807BD4680BD00BF80B590B000AF0346FB714FF0000387F837304FF04E
:400D0000000387F83F304FF0000387F83E3041F29010C2F2000007F0F1FCB24807F0EEFCB14807F0EBFCB14807F0E8FC4FF001004FF00001FFF75CFF034687F8373097F813
:400D40003730002B40F0BB8007F10C03184607F0D5FC4FF0000387F83F304FF0000387F83E3036E097F83F3003F1010387F83F3097F83E30002B05D097F83E3003F1FF33D0
:400D800087F83E3097F83F30272B08D897F83F2048F63423C1F6FF739B5C082BE2D097F83E1097F83F2048F63423C1F6FF739A5C07F14000431803F8342C97F83F3003F12F
:400DC000010387F83F3097F83E3003F1010387F83E3097F83F30272B08D897F83F2048F63423C1F6FF739B5C002BCBD197F83E3007F14002D3184FF0000203F8342C07F1CF
:400E00000C03184644F62021C0F2020118F078F9B863BB6B002B10D041F29010C2F20000B96B17F07BF94FF0000044F62021C0F2020118F065F9B86305E041F29010C2F2CE
:400E4000000007F05BFCBB6B002B0DD06548B96B17F064F94FF0000044F62021C0F2020118F04EF9B86302E05E4807F047FCBB6B002B0DD05C48B96B17F050F94FF00000A1
:400E800044F62021C0F2020118F03AF9B86302E0554807F033FCBB6B002B0DD05348B96B17F03CF94FF0000044F62021C0F2020118F026F9B86302E04C4807F01FFCFB7931
:400EC000012B7BD144F61000C0F2020016F082FF44F62420C0F2020016F028FF4FF0000387F83F302FE097F83F2048F63423C1F6FF739B5C082B06D144F62C20C0F2020070
:400F000016F014FF19E097F83F2048F63423C1F6FF739B5C7F2B06D144F63020C0F2020016F004FF09E097F83F2048F63423C1F6FF739B5C184616F00FFF97F83F3003F144
:400F4000010387F83F3097F83F30272B08D897F83F2048F63423C1F6FF739B5C002BC2D144F63420C0F2020016F0E0FE41F29010C2F2000016F0DAFE44F63C20C0F2020019
:400F800016F0D4FE174816F0D1FE44F64420C0F2020016F0CBFE144816F0C8FE44F64C20C0F2020016F0C2FE104816F0BFFE44F61000C0F2020016F00DFF0BE044F610005C
:400FC000C0F2020016F006FF44F61000C0F2020016F000FF4FF00003184607F14007BD4680BD00BF9F110020AE110020B81100202DE9F04FD3B00CAF4FF00003C7F8F830FD
:401000004FF00003C7F8F4304FF0000387F8F3304FF0000387F8F2304FF0000387F8F1304FF00003A7F8EE304FF0000387F8ED304FF0000387F8EC304FF0000387F8EB304C
:401040004FF0000387F8EA304FF0000387F8E9304FF00003A7F8E6304FF0000387F8E5304FF00003C7F814314FF00003C7F8E0304FF00003C7F8DC304FF0000387F8133185
:401080004FF0000387F812314FF00000FFF72EFE034687F8DB3041F29010C2F2000044F65421C0F2020116F04BFF0346002B2CD1DC4B1B78002B20D144F65C20C0F202000C
:4010C00016F034FE4FF0000007F0E4FA0346012B0BD144F68420C0F2020016F07BFE4FF0640012F0F1F807F0B9BA44F6C820C0F2020016F01BFE07F0B1BA44F6E020C0F207
:40110000020016F013FE07F0A9BA41F29010C2F2000044F60031C0F2020116F011FF0346002B23D1BF4B1B78002B17D144F60430C0F2020016F04EFE48F62C23C1F6FF733D
:401140001B6803F1140248F62C23C1F6FF731A604FF0640012F0B8F807F080BA44F61830C0F2020016F036FE07F078BA41F29010C2F2000044F62031C0F2020116F0E0FEE8
:401180000346002B23D1A74B1B78002B17D144F62430C0F2020016F01DFE48F62C23C1F6FF731B6803F1640248F62C23C1F6FF731A604FF0640012F087F807F04FBA44F6AB
:4011C0001830C0F2020016F005FE07F047BA41F29010C2F2000044F63831C0F2020116F0AFFE0346002B23D18E4B1B78002B17D144F63C30C0F2020016F0ECFD48F62C23A3
:40120000C1F6FF731B68A3F1140248F62C23C1F6FF731A604FF0640012F056F807F01EBA44F61830C0F2020016F0D4FD07F016BA41F29010C2F2000044F65031C0F202019B
:4012400016F07EFE0346002B23D1764B1B78002B17D144F65430C0F2020016F0BBFD48F62C23C1F6FF731B68A3F1640248F62C23C1F6FF731A604FF0640012F025F807F0D1
:40128000EDB944F61830C0F2020016F0A3FD07F0E5B941F29010C2F2000044F66831C0F2020116F04DFE0346002B26D144F67030C0F2020016F08EFD4FF0000387F8133128
:4012C00015E04FF0010012F0F5F94FF0FA0011F0FBFF4FF0000012F0EDF94FF07D0011F0F3FF97F8133103F1010387F8133197F81331022BE5D907F0B1B941F29010C2F28B
:40130000000044F68431C0F2020116F019FE0346002B1BD144F68C30C0F2020016F05AFD4AF64810C0F202000FF0EEFC4FF4FA7011F0CAFF4AF65010C0F202000FF0E4FCA6
:401340004FF4FA7011F0C0FF07F088B941F29010C2F2000044F6A031C0F2020116F0F0FD0346002B2DD144F6A830C0F2020016F031FD1FE04FF0010010F0FEFF4FF00B009C
:401380004CF6CD41C3F64C610BF00AFA4FF00B004CF6CD41C3F64C610BF0A2FA0BF070F90BF076F94FF0000010F0E6FF4FF4FA7011F0AEFF07F060F90346002BDAD007F02F
:4013C0004DB941F29010C2F2000044F6B431C0F2020116F0B5FD0346002B0CD041F29010C2F2000044F6C031C0F2020116F0A8FD0346002B18D10B4B1B78002B09D144F6ED
:40140000C830C0F2020016F0E5FC0AF0F9FD07F025B944F61830C0F2020016F0DBFC07F01DB900BF9F11002041F29010C2F2000044F6E831C0F2020116F082FD0346002B5D
:401440000CD041F29010C2F2000044F6F431C0F2020116F075FD0346002B4BD1CE4B1B78002B3FD144F6FC30C0F2020016F0B2FC48F62423C1F6FF734FF006021A700AF0BF
:40148000BFFD4AF21813C1F6FF734FF00C021A7040F6F803C2F200034FF002021A7040F6F803C2F200034FF000021A6240F6A813C2F200034FF002021A7040F6A813C2F295
:4014C00000034FF000021A624AF22410C1F6FF7009F050FE40F66400C2F2000009F04AFE07F0BCB844F61830C0F2020016F072FC07F0B4B841F29010C2F2000044F6244122
:40150000C0F2020116F01CFD0346002B0CD041F29010C2F2000044F63041C0F2020116F00FFD0346002B3AD19B4B1B78002B2ED144F63440C0F2020016F04CFC4AF224104C
:40154000C1F6FF7009F0D2FD40F66400C2F2000009F0CCFD12F010F913F012FA4FF0640011F0B2FE48F62423C1F6FF734FF005021A704AF22410C1F6FF7009F0E1FD40F6DE
:401580006400C2F2000009F0DBFD07F067B844F61830C0F2020016F01DFC07F05FB841F29010C2F2000044F64841C0F2020116F0C7FC0346002B0DD041F29010C2F2000029
:4015C00044F65041C0F2020116F0BAFC0346002B40F0BD804FF00003C7F80C314FF0000387F81231A5E04AF22413C1F6FF735B6C44F65440C0F20200194616F097FB40F6F5
:401600004813C2F200035B68184616F02FF9034644F66C40C0F20200194616F087FB4AF22410C1F6FF70FFF7B1FAD7F80C014FF40041C4F2BB4115F053FF0346184615F033
:40164000DBFA02460B4644F68840C0F2020016F06DFBD7F80C014FF40041C4F2BB4115F03FFF03461A464AF22413C1F6FF73DB681046194615F0E8FF0346184615F0BCFAF8
:4016800002460B4644F6A440C0F2020016F04EFB44F61000C0F2020016F09CFB10F02AFE034687F8123197F81231612B03D097F81231412B0DD1D7F80C014FF07E5115F066
:4016C00007FE0346C7F80C314FF0000387F8123125E097F81231642B03D097F81231442B0DD1D7F80C014FF07E5115F0EFFD0346C7F80C314FF0000387F812310FE097F8A2
:401700001231732B03D097F81231532B07D14FF00003C7F80C314FF0000387F81231D7F80C0116F0A3F802464AF22413C1F6FF731A6497F81231002B3FF455AF4AF2241305
:40174000C1F6FF734FF000021A6406F087BF41F29010C2F2000044F6B841C0F2020116F0EFFB0346002B0DD041F29010C2F2000044F6C041C0F2020116F0E2FB0346002BC7
:4017800040F0C8804FF00003C7F808314FF0000387F81231B0E000BF9F11002040F66403C2F200035B6C44F6C440C0F20200194616F0BCFA40F6C433C2F200035B68184627
:4017C00016F054F8034644F66C40C0F20200194616F0ACFA40F66400C2F20000FFF7D6F9D7F808014FF40041C4F2BB4115F078FE0346184615F000FA02460B4644F68840CC
:40180000C0F2020016F092FAD7F808014FF40041C4F2BB4115F064FE034618464FF00001C4F2B43115F05CFE03461A4640F66403C2F20003DB681046194615F005FF0346C5
:40184000184615F0D9F902460B4644F6A440C0F2020016F06BFA44F61000C0F2020016F0B9FA10F047FD034687F8123197F81231772B03D097F81231572B0DD1D7F8080106
:401880004FF07E5115F024FD0346C7F808314FF0000387F8123125E097F812317A2B03D097F812315A2B0DD1D7F808014FF07E5115F00CFD0346C7F808314FF0000387F835
:4018C00012310FE097F81231732B03D097F81231532B07D14FF00003C7F808314FF0000387F81231D7F8080115F0C0FF024640F66403C2F200031A6497F81231002B3FF427
:401900004DAF40F66403C2F200034FF000021A6406F0A4BE41F29010C2F2000044F6E041C0F2020116F00CFB0346002B0DD041F29010C2F2000044F6E841C0F2020116F0A6
:40194000FFFA0346002B40F039814FF00003C7F804314FF00003C7F800314FF0000387F8123116E144F6EC40C0F2020016F0DEF94AF22410C1F6FF70FFF708F9D7F8040155
:401980004FF40041C4F2BB4115F0AAFD0346184615F032F902460B4644F6F440C0F2020016F0C4F94AF22413C1F6FF739B6F184615F022F902460B4644F61050C0F20200E5
:4019C00016F0B4F944F62050C0F2020016F0AEF940F66400C2F20000FFF7D8F8D7F800014FF40041C4F2BB4115F07AFD0346184615F002F902460B4644F6F440C0F2020031
:401A000016F094F940F66403C2F200039B6F184615F0F2F802460B4644F61050C0F2020016F084F944F61000C0F2020016F0D2F910F060FC034687F8123197F81231612B6A
:401A400003D097F81231412B18D1D7F804014FF00001C4F2C82115F0E1FE0346002B08D0D7F804014FF07E5115F032FC0346C7F804314FF0000387F8123176E097F812310B
:401A8000642B03D097F81231442B18D1D7F804014FF00001CCF2C82115F0DEFE0346002B08D0D7F804014FF07E5115F00FFC0346C7F804314FF0000387F8123155E097F8BB
:401AC0001231772B03D097F81231572B18D1D7F800014FF00001C4F2C82115F09FFE0346002B08D0D7F800014FF07E5115F0F0FB0346C7F800314FF0000387F8123134E035
:401B000097F812317A2B03D097F812315A2B18D1D7F800014FF00001CCF2C82115F09CFE0346002B08D0D7F800014FF07E5115F0CDFB0346C7F800314FF0000387F8123191
:401B400013E097F81231732B03D097F81231532B0BD14FF00003C7F804314FF00003C7F800314FF0000387F81231D7F8040115F07DFE02464AF22413C1F6FF731A64D7F812
:401B8000000115F073FE024640F66403C2F200031A6497F81231002B3FF4E4AE4AF22413C1F6FF734FF000021A6440F66403C2F200034FF000021A6406F050BD41F290138B
:401BC000C2F200031B78002B06F03B8541F29010C2F2000044F62C51C0F2020116F0B0F90346002B0CD041F29010C2F2000044F63051C0F2020116F0A3F90346002B31D1B9
:401C0000B84B1B78002B25D144F63850C0F2020016F0E0F844F66450C0F2020016F0DAF844F68C50C0F2020016F0D4F844F6B850C0F2020016F0CEF844F6F050C0F2020093
:401C400016F0C8F844F63460C0F2020016F0C2F806F004BD44F6E020C0F2020016F066F806F0FCBC41F29010C2F2000044F68861C0F2020116F064F90346002B2BD1994B8F
:401C80001B78002B1FD144F69060C0F2020016F0A1F844F6A060C0F2020016F09BF844F6C860C0F2020016F095F844F61870C0F2020016F08FF844F66470C0F2020016F0FE
:401CC00089F806F0CBBC44F6E020C0F2020016F02DF806F0C3BC41F29010C2F2000044F69871C0F2020116F02BF90346002B1AD041F29010C2F2000044F69C71C0F20201CE
:401D000016F01EF90346002B0DD041F29010C2F2000044F6A071C0F2020116F011F90346002B40F091846F4B1B78002B40F0DC8044F6A870C0F2020016F04CF844F6CC701B
:401D4000C0F2020016F046F845F20000C0F2020016F040F845F23000C0F2020016F03AF845F24C00C0F2020016F034F845F26800C0F2020016F02EF845F28800C0F2020094
:401D800016F028F845F2B000C0F2020016F022F845F2D000C0F2020016F01CF845F2E800C0F2020016F016F844F61000C0F2020016F010F845F21C10C0F2020016F00AF85B
:401DC00045F24410C0F2020016F004F845F26C10C0F2020015F0FEFF45F29810C0F2020015F0F8FF44F61000C0F2020015F0F2FF45F2C810C0F2020015F0ECFF45F2441078
:401E0000C0F2020015F0E6FF45F2F010C0F2020015F0E0FF45F22820C0F2020015F0DAFF45F26020C0F2020015F0D4FF44F61000C0F2020015F0CEFF45F2B020C0F2020056
:401E400015F0C8FF45F24410C0F2020015F0C2FF45F2D820C0F2020015F0BCFF45F20430C0F2020015F0B6FF45F23030C0F2020015F0B0FF45F28430C0F2020015F0AAFFC9
:401E800045F2C830C0F2020015F0A4FF45F20C40C0F2020015F09EFF44F61000C0F2020015F098FF45F24440C0F2020015F092FF45F24410C0F2020015F08CFF45F26C406D
:401EC000C0F2020015F086FF45F2A840C0F2020015F080FF44F61000C0F2020015F07AFF06F0BCBB9F110020DB4845F2EC41C0F2020116F025F80346002B40F0AF8145F22A
:401F00003000C0F2020015F065FF45F2F040C0F2020015F05FFF45F2FC40C0F2020015F059FF45F23850C0F2020015F053FF45F27450C0F2020015F04DFF45F2B050C0F29F
:401F4000020015F047FF45F2EC50C0F2020015F041FF45F22860C0F2020015F03BFF45F26460C0F2020015F035FF45F2A060C0F2020015F02FFF45F2DC60C0F2020015F0C4
:401F800029FF45F21870C0F2020015F023FF45F25470C0F2020015F01DFF45F29470C0F2020015F017FF45F2D470C0F2020015F011FF45F61800C0F2020015F00BFF45F6F0
:401FC0006400C0F2020015F005FF45F6B000C0F2020015F0FFFE45F60010C0F2020015F0F9FE45F65010C0F2020015F0F3FE45F69810C0F2020015F0EDFE45F6DC10C0F27F
:40200000020015F0E7FE45F62820C0F2020015F0E1FE45F67420C0F2020015F0DBFE45F6C420C0F2020015F0D5FE45F61430C0F2020015F0CFFE45F65C30C0F2020015F008
:40204000C9FE45F6B430C0F2020015F0C3FE45F6F030C0F2020015F0BDFE45F63840C0F2020015F0B7FE45F68840C0F2020015F0B1FE45F6D040C0F2020015F0ABFE45F6BD
:402080001050C0F2020015F0A5FE45F65050C0F2020015F09FFE45F6A050C0F2020015F099FE45F6E850C0F2020015F093FE45F62860C0F2020015F08DFE45F66860C0F23F
:4020C000020015F087FE45F6AC60C0F2020015F081FE45F6F060C0F2020015F07BFE45F63470C0F2020015F075FE45F67870C0F2020015F06FFE45F6C070C0F2020015F0A0
:4021000069FE46F20800C0F2020015F063FE46F25400C0F2020015F05DFE46F2A000C0F2020015F057FE46F2EC00C0F2020015F051FE46F23010C0F2020015F04BFE46F27A
:402140007C10C0F2020015F045FE46F2B010C0F2020015F03FFE44F61000C0F2020015F039FE46F2E010C0F2020015F033FE46F20820C0F2020015F02DFE46F23420C0F21B
:40218000020015F027FE46F26020C0F2020015F021FE46F28C20C0F2020015F01BFE46F2B820C0F2020015F015FE46F2E420C0F2020015F00FFE46F21030C0F2020015F09E
:4021C00009FE46F23C30C0F2020015F003FE46F27C30C0F2020015F0FDFD46F2D830C0F2020015F0F7FD46F21040C0F2020015F0F1FD46F23040C0F2020015F0EBFD46F246
:402200005840C0F2020015F0E5FD46F27C40C0F2020015F0DFFD46F2B040C0F2020015F0D9FD46F2C840C0F2020015F0D3FD46F20450C0F2020015F0CDFD46F26050C0F2B9
:40224000020015F0C7FD46F2BC50C0F2020015F0C1FD06F003BA00BF9F110020DE4846F22061C0F2020115F06BFE0346002B40F0EC8045F20000C0F2020015F0ABFD45F2B5
:40228000F040C0F2020015F0A5FD46F22860C0F2020015F09FFD46F25C60C0F2020015F099FD46F29460C0F2020015F093FD46F2C860C0F2020015F08DFD46F20470C0F2C5
:4022C000020015F087FD46F24870C0F2020015F081FD46F28C70C0F2020015F07BFD46F2C070C0F2020015F075FD46F2F070C0F2020015F06FFD46F62400C0F2020015F05E
:4023000069FD46F66800C0F2020015F063FD46F6B400C0F2020015F05DFD46F6EC00C0F2020015F057FD46F62C10C0F2020015F051FD46F66C10C0F2020015F04BFD46F6CE
:40234000C410C0F2020015F045FD46F61C20C0F2020015F03FFD46F66020C0F2020015F039FD46F6A420C0F2020015F033FD46F6E420C0F2020015F02DFD46F61430C0F238
:40238000020015F027FD46F65830C0F2020015F021FD46F69C30C0F2020015F01BFD46F6E830C0F2020015F015FD46F62C40C0F2020015F00FFD46F67040C0F2020015F04D
:4023C00009FD46F6BC40C0F2020015F003FD46F6EC40C0F2020015F0FDFC46F62850C0F2020015F0F7FC46F66450C0F2020015F0F1FC46F6A050C0F2020015F0EBFC46F6CE
:40240000E450C0F2020015F0E5FC46F62860C0F2020015F0DFFC46F66860C0F2020015F0D9FC46F6B060C0F2020015F0D3FC46F6E860C0F2020015F0CDFC46F63070C0F27C
:40244000020015F0C7FC06F009B9634846F65471C0F2020115F074FD0346002B7FD146F65870C0F2020015F0B5FC46F66870C0F2020015F0AFFC46F67870C0F2020015F07C
:40248000A9FC46F68870C0F2020015F0A3FC46F69470C0F2020015F09DFC46F6A070C0F2020015F097FC46F6B070C0F2020015F091FC46F6C070C0F2020015F08BFC46F637
:4024C000D070C0F2020015F085FC46F6E070C0F2020015F07FFC46F6EC70C0F2020015F079FC46F6F870C0F2020015F073FC47F20C00C0F2020015F06DFC47F22000C0F29E
:40250000020015F067FC47F23800C0F2020015F061FC47F24C00C0F2020015F05BFC47F26000C0F2020015F055FC47F27800C0F2020015F04FFC47F29000C0F2020015F03B
:4025400049FC47F29C00C0F2020015F043FC47F2AC00C0F2020015F03DFC06F07FB81E4847F2BC01C0F2020115F0EAFC0346002B13D147F2C400C0F2020015F02BFC45F2DD
:40258000F040C0F2020015F025FC47F2E800C0F2020015F01FFC06F061B80F4844F68861C0F2020115F0CCFC0346002B16D145F24C00C0F2020015F00DFC45F2F040C0F258
:4025C000020015F007FC47F2F400C0F2020015F001FC06F043B800BF9F110020384844F63051C0F2020115F0ABFC0346002B09D0334844F62C51C0F2020115F0A1FC0346B3
:40260000002B19D145F28800C0F2020015F0E2FB45F2F040C0F2020015F0DCFB47F20010C0F2020015F0D6FB47F20C10C0F2020015F0D0FB06F012B847F21410C0F20200BC
:4026400015F074FB06F00AB841F29010C2F2000046F22061C0F2020115F072FC0346002B0DD041F29010C2F2000047F23011C0F2020115F065FC0346002B43F06683104871
:4026800047F23411C0F2020115F05AFC0346002B0ED00B4847F23C11C0F2020115F050FC0346002B04D0064B1B78002B40F0D38247F24410C0F2020015F038FBBDE200BFA8
:4026C0009F11002047F24C10C0F2020015F02EFB47F25010C0F2020015F07CFB47F27410C0F2020015F076FB47F25010C0F2020015F070FB44F61000C0F2020015F06AFBBE
:402700004AF22413C1F6FF73DB68184614F074FA02460B4647F29810C0F2020015F006FB4FF0010007F0BEFE40F66403C2F20003DB68184614F060FA02460B4647F2B810D6
:40274000C0F2020015F0F2FA44F61000C0F2020015F040FB4AF22413C1F6FF735B6C184614F06AFE034618464FF00001C4F2B43114F0B6FE03461A464AF22413C1F6FF73CA
:40278000DB681046194614F05FFF0346184614F033FA02460B4647F2D810C0F2020015F0C5FA4FF00D0007F07DFE40F66403C2F200035B6C184614F03FFE034618464FF057
:4027C0000001C4F2B43114F08BFE03461A4640F66403C2F20003DB681046194614F034FF0346184614F008FA02460B4647F2F010C0F2020015F09AFA44F61000C0F20200BA
:4028000015F0E8FA44F61000C0F2020015F0E2FA4AF22413C1F6FF735B6C184614F00CFE0346184614F0E8F902460B4647F20820C0F2020015F07AFA4FF00E0007F032FEDC
:4028400040F66403C2F200035B6C184614F0F4FD0346184614F0D0F902460B4647F22020C0F2020015F062FA44F61000C0F2020015F0B0FA4AF22413C1F6FF735B6B1846E2
:4028800014F0DAFD0346184614F0B6F902460B4647F23820C0F2020015F048FA4FF0090007F000FE40F66403C2F200035B6B184614F0C2FD0346184614F09EF902460B466B
:4028C00047F25420C0F2020015F030FA44F61000C0F2020015F07EFA4AF22413C1F6FF73DB6B184614F0A8FD0346184614F084F902460B4647F27020C0F2020015F016FA91
:402900004FF0090007F0CEFD40F66403C2F20003DB6B184614F090FD0346184614F06CF902460B4647F28C20C0F2020015F0FEF944F61000C0F2020015F04CFA44F6100033
:40294000C0F2020015F046FA4AF22413C1F6FF739B6D184614F050F902460B4647F2A820C0F2020015F0E2F94FF0150007F09AFD40F66403C2F200039B6D184614F03CF90C
:4029800002460B4647F2B820C0F2020015F0CEF944F61000C0F2020015F01CFA4AF22413C1F6FF735B6E184614F026F902460B4647F2C820C0F2020015F0B8F94FF0140077
:4029C00007F070FD40F66403C2F200035B6E184614F012F902460B4647F2D820C0F2020015F0A4F944F61000C0F2020015F0F2F94AF22413C1F6FF731B6E184614F0FCF860
:402A000002460B4647F2E820C0F2020015F08EF94FF0140007F046FD40F66403C2F200031B6E184614F0E8F802460B4647F2F820C0F2020015F07AF944F61000C0F20200BC
:402A400015F0C8F94AF22413C1F6FF731B6F184614F0D2F802460B4647F20830C0F2020015F064F94FF0160007F01CFD40F66403C2F200031B6F184614F0BEF802460B462A
:402A800047F21830C0F2020015F050F944F61000C0F2020015F09EF94AF22413C1F6FF73B3F874309BB247F22830C0F20200194615F03CF94FF0130007F0F4FC40F664030D
:402AC000C2F20003B3F874309BB247F23830C0F20200194615F02AF944F61000C0F2020015F078F948F65C22C1F6FF7247F24833C0F2020314460FCB07C423704FF03200E1
:402B000048F65C21C1F6FF7107F032FD4AF22413C1F6FF731B6F184614F0A8FE03469BB21BB218464FF400714FF0320248F65C23C1F6FF7307F0CEFC48F65C22C1F6FF72EC
:402B400047F25833C0F2020314460FCB07C4237040F66403C2F200031B6F184614F086FE03469BB21BB218464FF400714FF0320248F65C23C1F6FF7307F0ACFC4FF03200A6
:402B800048F65C21C1F6FF7107F0F2FC44F61000C0F2020015F01EF947F26830C0F2020015F018F947F27430C0F2020015F012F947F28030C0F2020015F0B8F848F6242321
:402BC000C1F6FF731B78062B06D147F29030C0F2020015F0FFF813E048F62423C1F6FF731B78052B06D147F2A830C0F2020015F0F1F805E047F2BC30C0F2020015F0EAF8D5
:402C000048F63023C1F6FF731B881A4648F63223C1F6FF731B8847F2E030C0F2020011461A4615F083F844F61000C0F2020015F0D1F84FF0320010F047FB05F01DFD03466D
:402C4000002B3FF43FAD44F61000C0F2020015F0C1F805F003BDC64847F20C41C0F2020115F06EF90346002B00F08C80C04847F21441C0F2020115F063F90346002B40F024
:402C80008A807FE041F27C13C2F200031B881BB247F21840C0F20200194615F047F841F27C13C2F200035B881BB247F22040C0F20200194615F03AF841F27C13C2F2000355
:402CC0009B881BB247F22C40C0F20200194615F02DF841F27C13C2F20003DB881BB247F23840C0F20200194615F020F841F27C13C2F200031B891BB247F24040C0F2020021
:402D0000194615F013F841F27C13C2F200035B891BB247F24840C0F20200194615F006F841F27C13C2F200039B891BB247F25040C0F20200194614F0F9FF41F27C13C2F26B
:402D40000003DB891BB247F25C40C0F20200194614F0ECFF41F27C13C2F200031B8A1BB247F26840C0F20200194614F0DFFF44F61000C0F2020015F02DF84FF0320010F0EE
:402D8000A3FA00E000BF05F077FC0346002B3FF479AF05F063BC764847F27441C0F2020115F0CEF80346002B35D12DE041F27C13C2F200039B881BB2184614F03DFB03468D
:402DC000184613F019FF02460B46104619464FF000024FF00003C4F2140313F061FF02460B461046194660A3D3E9002314F082F802460B4647F27840C0F2020014F096FFD4
:402E00004FF0640010F060FA05F036FC0346002BCCD005F023BC564847F28C41C0F2020115F08EF80346002B65D0514847F29441C0F2020115F084F80346002B63D15AE03E
:402E40004AF22413C1F6FF739B6F184613F0D4FE04460D4640F66403C2F200039B6F184613F0CAFE02460B46CDE9002347F29840C0F2020022462B4614F058FF12F0B0F93F
:402E8000034647F2C440C0F20200194614F04EFF12F0A6F9034603F00103002B06D147F2DC40C0F2020014F041FF05E047F2F040C0F2020014F03AFF12F092F9034603F0F0
:402EC0000203002B06D147F20450C0F2020014F02DFF05E047F21850C0F2020014F026FF4FF0640010F0F0F944F61000C0F2020014F070FF00E000BF05F0BEFB0346002B39
:402F00009ED005F0ABBB1A4847F22851C0F2020115F016F80346002B0AD0154847F23451C0F2020115F00CF80346002B40F0CD8012F020FC40F66030C2F200000CF040FF01
:402F40004AF2B810C1F6FF700DF014FA47F23850C0F2020014F03EFF4FF4FA7010F0B4F976E000BFAFF300800000000000FEAF409F1100204AF2B810C1F6FF700DF02AF9CE
:402F80000346184613F038FE04460D460CF0DAFF0346184613F030FEC7E904014AF2B810C1F6FF700DF054F90346184613F024FEC7E9020140F66030C2F200000CF0CCFFFE
:402FC0000346184613F018FEC7E9000140F66030C2F200000CF0CCFF0346184613F00CFE82468B4640F66030C2F200000DF052F80346184613F000FE8046894640F660300E
:40300000C2F200000DF054F80346184613F0F4FD02460B46D7E90401CDE90001D7E90201CDE90201D7E90001CDE90401CDE906ABCDE90889CDE90A2347F24850C0F20200D5
:4030400022462B4614F072FE4FF01E0010F03CF905F012FB0346002B8CD040F66030C2F200000CF0B9FE12F097FB4AF2B810C1F6FF7040F66031C2F200010DF08BF903466E
:40308000184613F0B9FD04460D464AF2B810C1F6FF7040F66031C2F200014FF00002C4F27A420DF0ABF90346184613F0A5FD02460B46CDE9002347F2C450C0F2020022463B
:4030C0002B4614F033FE05F0C9BA834847F20C61C0F2020114F034FF0346002B0AD07E4847F21861C0F2020114F02AFF0346002B40F0C48012F03EFB40F69820C2F20000E8
:403100000CF05EFE40F68810C2F200000DF032F947F21C60C0F2020014F05CFE4FF4FA7010F0D2F86DE040F68810C2F200000DF051F80346184613F05FFD04460D460CF09B
:4031400001FF0346184613F057FDC7E90A0140F68810C2F200000DF07BF80346184613F04BFDC7E9080140F69820C2F200000CF0F3FE0346184613F03FFDC7E9060140F697
:403180009820C2F200000CF0F3FE0346184613F033FD82468B4640F69820C2F200000CF079FF0346184613F027FD8046894640F69820C2F200000CF07BFF0346184613F008
:4031C0001BFD02460B46D7E90A01CDE90001D7E90801CDE90201D7E90601CDE90401CDE906ABCDE90889CDE90A2347F24850C0F2020022462B4614F099FD4FF01E0010F0B2
:4032000063F805F039FA0346002B8CD040F69820C2F200000CF0E0FD12F0BEFA40F68810C2F2000040F69821C2F200010DF0B2F80346184613F0E0FC04460D4640F6881048
:40324000C2F2000040F69821C2F200014FF00002C4F27A420DF0D2F80346184613F0CCFC02460B46CDE9002347F2C450C0F2020022462B4614F05AFD05F0F0B9164847F22E
:403280002C61C0F2020114F05BFE0346002B0AD0114847F23861C0F2020114F051FE0346002B40F0D28012F065FA40F66030C2F200000CF085FD4AF2B810C1F6FF700DF078
:4032C00059F847F23850C0F2020014F083FD4FF4FA700FF0F9FF7BE09F1100204AF2B810C1F6FF700CF076FF0346184613F084FC04460D460CF026FE0346184613F07CFC11
:40330000C7E910014AF2B810C1F6FF704FF00001C4F278210DF014F80346184613F06CFCC7E90E0140F66030C2F200000CF014FE0346184613F060FCC7E90C0140F6603028
:40334000C2F200004FF00001C4F278210CF088FE0346184613F050FC82468B4640F66030C2F200000CF096FE0346184613F044FC8046894640F66030C2F200004FF00001B6
:40338000C4F278210CF00CFF0346184613F034FC02460B46D7E91001CDE90001D7E90E01CDE90201D7E90C01CDE90401CDE906ABCDE90889CDE90A2347F23C60C0F2020092
:4033C00022462B4614F0B2FC4FF01E000FF07CFF05F052F90346002B80D040F66030C2F200000CF0F9FC12F0D7F94AF2B810C1F6FF7040F66031C2F200010CF0CBFF034675
:40340000184613F0F9FB04460D464AF2B810C1F6FF7040F66031C2F200014FF00002C4F27A420CF0EBFF0346184613F0E5FB02460B46CDE9002347F2C450C0F202002246F6
:403440002B4614F073FC05F009B9C84847F2B861C0F2020114F074FD0346002B0AD0C34847F2C461C0F2020114F06AFD0346002B40F0D08012F07EF940F69820C2F200003F
:403480000CF09EFC40F68810C2F200000CF072FF47F21C60C0F2020014F09CFC4FF4FA700FF012FF79E040F68810C2F200000CF091FE0346184613F09FFB04460D460CF082
:4034C00041FD0346184613F097FBC7E9160140F68810C2F200004FF00001C4F22C310CF02FFF0346184613F087FBC7E9140140F69820C2F200000CF02FFD0346184613F027
:403500007BFBC7E9120140F69820C2F200004FF00001C4F22C310CF0A3FD0346184613F06BFB82468B4640F69820C2F200000CF0B1FD0346184613F05FFB8046894640F6FD
:403540009820C2F200004FF00001C4F22C310CF027FE0346184613F04FFB02460B46D7E91601CDE90001D7E91401CDE90201D7E91201CDE90401CDE906ABCDE90889CDE9D0
:403580000A2347F23C60C0F2020022462B4614F0CDFB4FF01E000FF097FE05F06DF80346002B80D040F69820C2F200000CF014FC12F0F2F840F68810C2F2000040F6982196
:4035C000C2F200010CF0E6FE0346184613F014FB04460D4640F68810C2F2000040F69821C2F200014FF00002C4F27A420CF006FF0346184613F000FB02460B46CDE90023EF
:4036000047F2C450C0F2020022462B4614F08EFB05F024B8554847F2C861C0F2020114F08FFC0346002B0AD0504847F2D061C0F2020114F085FC0346002B40F0998012F0C6
:4036400099F84AF2B810C1F6FF700CF06DFC40F63030C2F200000CF0EBFB47F23850C0F2020014F0B7FB4FF4FA700FF02DFE6DE04AF2B810C1F6FF700CF0EAFDC7F894004F
:403680004AF2B810C1F6FF700CF0B0FDC7F890004AF2B810C1F6FF700CF0B6FDC7F88C004AF2B810C1F6FF700CF01AFEC7F8880040F63030C2F200000CF0A2FCC7F8840018
:4036C00040F63030C2F200000CF03AFDC7F88000D7F8940013F090FA04460D46D7F8900013F08AFAC7E91A01D7F88C0013F084FAC7E91801D7F8880013F07EFA82468B46C0
:40370000D7F8840013F078FA80468946D7F8800013F072FA02460B46D7E91A01CDE90001D7E91801CDE90201CDE904ABCDE90689CDE9082347F2D460C0F2020022462B462C
:4037400014F0F4FA4FF01E000FF0BEFD04F094FF0346002B8CD040F63030C2F200000CF073FB12F019F804F079BF00BF9F110020BC4847F23871C0F2020114F0E1FB0346A3
:40378000002B0AD0B74847F24071C0F2020114F0D7FB0346002B40F0968011F0EBFF40F68810C2F200000CF0BFFB40F66820C2F200000CF03DFB47F21C60C0F2020014F0A0
:4037C00009FB4FF4FA700FF07FFD6DE040F68810C2F200000CF03CFDC7F8AC0040F68810C2F200000CF002FDC7F8A80040F68810C2F200000CF008FDC7F8A40040F6881096
:40380000C2F200000CF06CFDC7F8A00040F66820C2F200000CF0F4FBC7F89C0040F66820C2F200000CF08CFCC7F89800D7F8AC0013F0E2F904460D46D7F8A80013F0DCF9C6
:40384000C7E91E01D7F8A40013F0D6F9C7E91C01D7F8A00013F0D0F982468B46D7F89C0013F0CAF980468946D7F8980013F0C4F902460B46D7E91E01CDE90001D7E91C019A
:40388000CDE90201CDE904ABCDE90689CDE9082347F2D460C0F2020022462B4614F046FA4FF01E000FF010FD04F0E6FE0346002B8CD040F66820C2F200000CF0C5FA11F047
:4038C0006BFF04F0CBBE674847F24471C0F2020114F036FB0346002B09D0624847F25071C0F2020114F02CFB0346002B4DD147F25870C0F2020014F019FA40F60843C2F2F6
:4039000000035B68184613F077F902460B4647F27070C0F2020014F009FA40F60843C2F200031B69184613F067F902460B4647F28470C0F2020014F0F9F940F60843C2F261
:403940000003DB68184613F057F902460B4647F29870C0F2020014F0E9F940F60843C2F200035B69184613F047F902460B4647F2AC70C0F2020014F0D9F944F61000C0F2CB
:40398000020014F027FA04F069BE364847F2C071C0F2020114F0D4FA0346002B09D0314847F2CC71C0F2020114F0CAFA0346002B4DD147F2D470C0F2020014F0B7F948F6E8
:4039C0005443C1F6FF735B68184613F015F902460B4647F27070C0F2020014F0A7F948F65443C1F6FF731B69184613F005F902460B4647F28470C0F2020014F097F948F69E
:403A00005443C1F6FF73DB68184613F0F5F802460B4647F29870C0F2020014F087F948F65443C1F6FF735B69184613F0E5F802460B4647F2AC70C0F2020014F077F944F6D3
:403A40001000C0F2020014F0C5F904F007BE054847F2EC71C0F2020114F072FA0346002B3AD132E09F11002041F27C13C2F200031B8A1BB247F2F470C0F20200194614F0FF
:403A800055F94AF22413C1F6FF73DB6F184613F0B3F802460B4647F61400C0F2020014F045F940F66403C2F20003DB6F184613F0A3F802460B4647F63000C0F2020014F08E
:403AC00035F94FF00A000FF0FFFB04F0D5FD0346002BC9D004F0C2BDC94847F64C01C0F2020114F02DFA0346002B27D0C44847F65401C0F2020114F023FA0346002B25D14C
:403B00001CE040F63C10C2F200000CF051FD48F60833C1F6FF731B8847F65800C0F20200194614F003F944F61000C0F2020014F051F94FF032000FF0C7FB00E000BF04F00B
:403B40009BFD0346002BDCD004F088BDAC4847F66C01C0F2020114F0F3F90346002B09D0A74847F67401C0F2020114F0E9F90346002B2FD112F030F812F0CEFA11F0DEFF42
:403B80004FF00A000FF0A0FB12F0B2F847F68000C0F2020014F0CAF848F60833C1F6FF731B8847F68C00C0F20200194614F0BEF844F61000C0F2020014F00CF94FF03200EC
:403BC0000FF082FB12F008F812F0A6FA11F0B6FF04F044BD8A4847F6A401C0F2020114F0AFF90346002B1BD0854847F6AC01C0F2020114F0A5F90346002B1FD110E048F6E6
:403C00000833C1F6FF731B8847F6B800C0F20200194614F08BF84FF032000FF055FB00E000BF04F029FD0346002BE8D044F61000C0F2020014F0CEF804F010BD704847F6CB
:403C4000D801C0F2020114F07BF90346002B39D06B4847F6E401C0F2020114F071F90346002B37D12EE040F63C23C2F20003DB68184612F0C1FF04460D4640F63C23C2F2AA
:403C800000031B69184612F0B7FF8046894640F63C23C2F200035B69184612F0ADFF02460B46CDE90089CDE9022347F6EC00C0F2020022462B4614F039F84FF032000FF0A8
:403CC00003FB00E000BF04F0D7FC0346002BCAD004F0C4BC4A4847F64011C0F2020114F02FF90346002B00F08280454847F64C11C0F2020114F024F90346002B40F08280D4
:403D000075E041F2DC03C2F20003DB68184612F073FF04460D4641F2DC03C2F200031B881BB2009347F65410C0F2020022462B4613F0FCFF41F2DC03C2F20003DB69184650
:403D400012F05AFF04460D4641F2DC03C2F200031B8A1BB2009347F66810C0F2020022462B4613F0E3FF41F2DC03C2F20003DB6A184612F041FF04460D4641F2DC03C2F245
:403D800000031B8C1BB2009347F67C10C0F2020022462B4613F0CAFF41F2DC03C2F200035B6B184612F028FF02460B4647F69010C0F2020013F0BAFF41F2DC03C2F2000312
:403DC0009B6B184612F018FF02460B4647F6A410C0F2020013F0AAFF44F61000C0F2020013F0F8FF4FF032000FF06EFA00E000BF04F042FC0346002B83D004F02FBC00BF56
:403E00009F110020BB4847F6B811C0F2020114F097F80346002B69D0B64847F6C011C0F2020114F08DF80346002B5FD0B14847F6C811C0F2020114F083F80346002B5DD1E2
:403E400054E047F6D010C0F2020013F06FFF40F69433C2F20003DB6847F6D810C0F20200194613F063FF40F69433C2F200031B7C47F6F010C0F20200194613F057FF40F60E
:403E80009433C2F200031B7D47F60020C0F20200194613F04BFF40F69433C2F200039B7C47F61020C0F20200194613F03FFF40F69433C2F200031B7847F61C20C0F202002F
:403EC000194613F033FF40F69433C2F200031B781846FCF7E9FA44F61000C0F2020013F079FF4FF032000FF0EFF900E000BF04F0C3FB0346002BA4D004F0B0BB7D4847F648
:403F00002821C0F2020114F01BF80346002B4FD147E047F63020C0F2020013F007FF4AF21813C1F6FF735B7847F63C20C0F20200194613F0FBFE4AF21813C1F6FF739B78B9
:403F400047F64820C0F20200194613F0EFFE4AF21813C1F6FF739B8847F65420C0F20200194613F0E3FE4AF21813C1F6FF731B7847F66420C0F20200194613F0D7FE4AF233
:403F80001813C1F6FF731B781846FCF7F7FA44F61000C0F2020013F01DFF4FF032000FF093F904F069FB0346002BB2D004F056BB504847F67421C0F2020113F0C1FF034641
:403FC000002B42D04B4847F67C21C0F2020113F0B7FF0346002B40D137E00EF01FFB034647F68020C0F20200194613F09FFE0EF015FB0346012B06D147F69020C0F2020021
:4040000013F094FE16E00EF009FB0346022B06D147F69820C0F2020013F088FE0AE00EF0FDFA0346042B05D147F6A020C0F2020013F07CFE44F61000C0F2020013F0CAFE50
:404040004FF032000FF040F900E000BF04F014FB0346002BC1D004F001BB264847F6A821C0F2020113F06CFF0346002B25D0214847F6B021C0F2020113F062FF0346002B3C
:4040800023D11AE041F2DC03C2F200039B6B184612F0B2FD02460B4647F6B820C0F2020013F044FE44F61000C0F2020013F092FE4FF032000FF008F900E000BF04F0DCFA22
:4040C0000346002BDED004F0C9BA0A4847F6F821C0F2020113F034FF0346002B6FD0054847F60431C0F2020113F02AFF0346002B6DD164E09F1100204AF22413C1F6FF73DF
:404100005B6C44F65440C0F20200194613F00EFE40F64813C2F200035B68184613F0A6FB034647F60830C0F20200194613F0FEFD40F64813C2F200031B69184612F05CFD67
:4041400002460B4647F62030C0F2020013F0EEFD40F66403C2F200035B6C47F63030C0F20200194613F0E2FD40F6C433C2F200035B68184613F07AFB034647F60830C0F2DD
:404180000200194613F0D2FD40F6C433C2F200031B69184612F030FD02460B4647F62030C0F2020013F0C2FD44F61000C0F2020013F010FE4FF032000FF086F800E000BF9F
:4041C00004F05AFA0346002B96D004F047BA8A4847F65031C0F2020113F0B2FE0346002B09D0854847F65831C0F2020113F0A8FE0346002B42D147F66030C0F2020013F067
:40420000E9FD47F6B430C0F2020013F08FFD4FF0010004F03FFA0346012B44F014820EF075F94FF400700FF071FD4FF4007010F073FD18E00FF0C2FA034647F6E430C0F2DA
:404240000200194613F072FD10F0BCFB034647F6F430C0F20200194613F068FD04F00CFA0346012B05D004F007FA0346002BE1D000E000BF0EF038F904F0E5B95E4847F6EE
:404280000841C0F2020113F05BFE0346002B47D0594847F61441C0F2020113F051FE0346002B45D13CE010F09BFF034647F61840C0F20200194613F039FD10F091FF03469C
:4042C00003F00103002B06D147F62C40C0F2020013F02CFD05E047F64040C0F2020013F025FD10F07DFF034603F00203002B06D147F65440C0F2020013F018FD05E047F643
:404300006C40C0F2020013F011FD44F61000C0F2020013F05FFD4FF032000EF0D5FF00E000BF04F0A9F90346002BBCD004F096B9314846F65471C0F2020113F001FE03467A
:40434000002B0AD02C4847F68041C0F2020113F0F7FD0346002B40F04781284847F68841C0F2020113F0ECFD0346002B48D14FF0000387F8FF303AE097F9FF1040F63842B1
:40438000C2F200020B464FEAC3035B184FEA8303D3181B78002B0AD197F9FF309BB247F68C40C0F20200194613F0C0FC19E097F9FF309BB21C4697F9FF1040F63842C2F2F0
:4043C00000020B464FEAC3035B184FEA8303D3181B7847F6AC40C0F2020021461A4613F0A5FC97F8FF3003F1010387F8FF3097F9FF30202BC0DDF5E09F110020AE110020E4
:404400008F4813F0D3FA034687F8E53097F8E530002B00F0DF808A4813F0C8FA034687F8E53097F8E530632B00F2D48097F8E52040F6CC23C2F200039B5CFF2B00F0C0802D
:4044400097F8E56097F8E52040F6CC23C2F200039B5C194640F63842C2F200020B464FEAC3035B184FEA8303D31803F118031B68184613F0FBF9054697F8E52040F6CC23E4
:40448000C2F200039B5C194640F63842C2F200020B464FEAC3035B184FEA8303D31803F104031B68184613F0E1F9044697F8E52040F6CC23C2F200039B5C194640F63842A3
:4044C000C2F200020B464FEAC3035B184FEA8303D31803F108031B891BB2009347F6D040C0F2020031462A46234613F01FFC97F8E56097F8E52040F6CC23C2F200039B5CEC
:40450000194640F63842C2F200020B464FEAC3035B184FEA8303D31803F11C031B68184613F0A4F9054697F8E52040F6CC23C2F200039B5C194640F63842C2F200020B46ED
:404540004FEAC3035B184FEA8303D31803F108031B68184613F08AF9044697F8E52040F6CC23C2F200039B5C194640F63842C2F200020B464FEAC3035B184FEA8303D318D6
:4045800003F10A031B891BB2009347F63050C0F2020031462A46234613F0C8FB97F8E52097F8E51040F6CC23C2F200035B5C47F69050C0F2020011461A4613F0B7FB11E096
:4045C00097F8E53047F6C450C0F20200194613F0ADFB07E047F6E050C0F2020013F0A6FB04F03CB804F03AB8164847F60061C0F2020113F0A5FC0346002B0AD0114847F655
:404600000861C0F2020113F09BFC0346002B40F0B2820B4813F0CAF9034687F8EB30084813F0C4F9034687F8EB3097F8EB30402B00F297824FF0000387F813317FE200BFB6
:40464000AE1100209F11002097F8133147F60C60C0F20200194613F069FB97F8EB2097F8131148F68843C1F6FF734FF0680000FB01F14FF43C7000FB02F28A189B1803F15B
:4046800008031B6818464FF00001C4F2C82112F027FF0346184612F0AFFA02460B4647F62460C0F2020013F041FB97F8EB2097F8131148F68843C1F6FF734FF0680000FB47
:4046C00001F14FF43C7000FB02F28A189B1803F108035B6818464FF00001C4F2C82112F0FFFE0346184612F087FA02460B4647F64460C0F2020013F019FB97F8EB2097F8FF
:40470000131148F68843C1F6FF734FF0680000FB01F14FF43C7000FB02F28A189B1803F110031B68184612F067FA02460B4647F66460C0F2020013F0F9FA97F8EB2097F8A4
:40474000131148F68843C1F6FF734FF0680000FB01F14FF43C7000FB02F28A189B1803F110035B68184612F067FE0346184612F043FA02460B4647F68460C0F2020013F036
:40478000D5FA97F8EB2097F8131148F68843C1F6FF734FF0680000FB01F14FF43C7000FB02F28A189B1803F118031B7847F6A460C0F20200194613F0B9FA47F6C460C0F225
:4047C000020013F007FB97F8EB2097F8131148F68843C1F6FF734FF0680000FB01F14FF43C7000FB02F28A189B1803F140035B6847F6E460C0F20200194613F097FA97F8BB
:40480000EB2097F8131148F68843C1F6FF734FF0680000FB01F14FF43C7000FB02F28A189B1803F138031B6847F60470C0F20200194613F07BFA97F8EB2097F8131148F648
:404840008843C1F6FF734FF0680000FB01F14FF43C7000FB02F28A189B1803F138035B6847F62470C0F20200194613F05FFA97F8EB2097F8131148F68843C1F6FF734FF08D
:40488000680000FB01F14FF43C7000FB02F28A189B1803F140031B6847F64470C0F20200194613F043FA97F8EB2097F8131148F68843C1F6FF734FF0680000FB01F14FF41C
:4048C0003C7000FB02F28A189B1803F148031B6847F66470C0F20200194613F027FA97F8EB2097F8131148F68843C1F6FF734FF0680000FB01F14FF43C7000FB02F28A182B
:404900009B1803F12003D3E900231046194612F089FC0346184612F06FF902460B4647F68470C0F2020013F001FA97F8EB2097F8131148F68843C1F6FF734FF0680000FBE4
:4049400001F14FF43C7000FB02F28A189B1803F13003D3E900231046194612F063FC0346184612F049F902460B4647F6AC70C0F2020013F0DBF997F8EB2097F8131148F603
:404980008843C1F6FF734FF0680000FB01F14FF43C7000FB02F28A189B1803F12803D3E900231046194612F03DFC0346184612F023F902460B4647F6D470C0F2020013F0B8
:4049C000B5F997F8EB2097F8131148F68843C1F6FF734FF0680000FB01F14FF43C7000FB02F28A189B1803F15803D3E900231046194612F017FC0346184612F0FDF80246E5
:404A00000B4647F6FC70C0F2020013F08FF997F8EB2097F8131148F68843C1F6FF7301F101014FF0680000FB01F14FF43C7000FB02F28A189B181B68184612F0DDF8024603
:404A40000B4648F22400C0F2020013F06FF997F8EB2097F8131148F68843C1F6FF734FF0680000FB01F14FF43C7000FB02F28A189B1803F15003D3E900231046194612F045
:404A8000D1FB0346184612F0B7F802460B4648F24C00C0F2020013F049F997F8EB2097F8131148F68843C1F6FF7301F101014FF0680000FB01F14FF43C7000FB02F28A1833
:404AC0009B185B68184612F097F802460B4648F27400C0F2020013F029F997F8EB2097F8131148F68843C1F6FF734FF0680000FB01F14FF43C7000FB02F28A189B1803F1F7
:404B00006003D3E900231046194612F08BFB0346184612F071F802460B4648F29C00C0F2020013F003F944F61000C0F2020013F051F997F8133103F1010387F8133197F85A
:404B4000EB2048F68843C1F6FF734FF43C7101FB02F29B181B7897F813219A42FFF474AD07E047F6E050C0F2020013F0DFF803F075BD03F073BD984848F2C401C0F2020161
:404B800013F0DEF90346002B44D1944B1B78002B36D12FE040F6F803C2F200035B681A4640F6A813C2F200035B6848F2CC00C0F2020011461A4613F0B9F840F6F803C2F25F
:404BC00000031B781A4640F6A813C2F200031B7848F2EC00C0F2020011461A4613F0A6F844F61000C0F2020013F0F4F84FF032000EF06AFB03F040FD0346002BCAD007E06C
:404C000047F6E050C0F2020013F090F803F026BD03F024BD704848F20011C0F2020113F08FF90346002B1ED16C4812F0BFFE034687F8EA30694812F0B9FE034687F8EA30D7
:404C400097F8EA30312B06D897F8EA3018460AF007F803F003BD47F6E050C0F2020013F065F803F0FBBC5C4848F20411C0F2020113F066F90346002B28D0574848F2101103
:404C8000C0F2020113F05CF90346002B26D11DE04AF22413C1F6FF7393F8843048F21810C0F20200194613F041F84AF22410C1F6FF70FBF76BFF44F61000C0F2020013F000
:404CC00089F84FF032000EF0FFFA00E000BF03F0D3FC0346002BDBD003F0C0BC3E4848F22811C0F2020113F02BF90346002B28D0394848F23411C0F2020113F021F9034680
:404D0000002B26D11DE040F66403C2F2000393F8843048F23C10C0F20200194613F006F840F66400C2F20000FBF730FF44F61000C0F2020013F04EF84FF032000EF0C4FA44
:404D400000E000BF03F098FC0346002BDBD003F085BC214848F24C11C0F2020113F0F0F80346002B0AD01C4848F25811C0F2020113F0E6F80346002B40F0038147F660303A
:404D8000C0F2020013F026F848F26010C0F2020012F0CCFF4FF0010003F07CFC0346012B40F0EB800DF0B2FB4AF22410C1F6FF7006F09CF940F66400C2F2000006F096F99A
:404DC00040F64813C2F200034FF000029A624FF0000387F81231CBE09F110020AE11002041F27C13C2F200039B891BB248F29410C0F20200194612F099FF0EF0DFFC0346B9
:404E000048F2B010C0F20200194612F08FFF40F64813C2F200039B6A184611F0EDFE02460B4648F2C010C0F2020012F07FFF44F61000C0F2020012F0CDFF0DF05BFA034600
:404E400087F8123197F81231722B03D097F81231522B1CD10EF0B2FC024640F64813C2F200039A6141F27C13C2F200039B891AB240F64813C2F20003DA6148F2D810C0F2FB
:404E8000020012F0A7FF4FF0000387F8123197F81231732B03D097F81231532B46D10EF08DFC024640F64813C2F200039B69D31A184612F0C1FA024640F64813C2F20003E7
:404EC0001A6241F27C13C2F200039B891AB240F64813C2F20003DB69D31A184612F0ACFA024640F64813C2F200035A6240F64813C2F200031A6A40F64813C2F200035B6A29
:404F00001046194612F0A0FB034623F0004240F64813C2F200039A6248F2F010C0F2020012F058FF4FF0000387F8123197F81231652B03D097F81231452B19D140F6481300
:404F4000C2F200039A6A40F64813C2F200039A6300BF0DF0C9FA03F009FD034687F8D93048F21420C0F2020012F034FF03F076BB97F81231002B3FF433AF0DF0B5FA03F0BC
:404F80006DBBBB4848F24421C0F2020112F0D8FF0346002B0AD0B64848F25021C0F2020112F0CEFF0346002B40F0FF8047F66030C0F2020012F00EFF48F26010C0F202000D
:404FC00012F0B4FE4FF0010003F064FB0346012B40F0E7800DF09AFA4AF22410C1F6FF7006F084F840F66400C2F2000006F07EF840F6C433C2F200034FF000029A624FF0AC
:40500000000387F81231C7E041F27C13C2F20003DB891BB248F25820C0F20200194612F085FE0FF0CFFC034648F2B010C0F20200194612F07BFE40F6C433C2F200039B6A8C
:40504000184611F0D9FD02460B4648F2C010C0F2020012F06BFE44F61000C0F2020012F0B9FE0DF047F9034687F8123197F81231722B03D097F81231522B1CD10FF0A2FC1F
:40508000024640F6C433C2F200039A6141F27C13C2F20003DB891AB240F6C433C2F20003DA6148F2D810C0F2020012F093FE4FF0000387F8123197F81231732B03D097F8C2
:4050C0001231532B46D10FF07DFC024640F6C433C2F200039B69D31A184612F0ADF9024640F6C433C2F200031A6241F27C13C2F20003DB891AB240F6C433C2F20003DB69C4
:40510000D31A184612F098F9024640F6C433C2F200035A6240F6C433C2F200031A6A40F6C433C2F200035B6A1046194612F08CFA034623F0004240F6C433C2F200039A62DD
:4051400048F2F010C0F2020012F044FE4FF0000387F8123197F81231652B03D097F81231452B19D140F6C433C2F200039A6A40F6C433C2F200039A6300BF0DF0B5F903F072
:40518000F5FB034687F8D93048F27420C0F2020012F020FE03F062BA97F81231002B3FF433AF0DF0A1F903F059BA314848F2A421C0F2020112F0C4FE0346002B09D02C481C
:4051C00048F2AC21C0F2020112F0BAFE0346002B50D140F60043C2F200031B88002B07D148F2B420C0F2020012F0F4FD03F02DBA40F60043C2F200031B8803F00803002B43
:4052000014D048F2C420C0F2020012F0E3FD40F60043C2F200031B8803F00203002B05D048F2E820C0F2020012F0D4FD40F60043C2F200031B8803F01003002B03F00582C4
:4052400048F21C30C0F2020012F0C4FD40F60043C2F200031B8803F00203002B03F0F58148F2E820C0F2020012F0B4FD03F0EDB99F1100200A4848F24031C0F2020112F00C
:405280005FFE0346002B0DD0054848F24831C0F2020112F055FE0346002B43F0D88101E09F11002048F24C30C0F2020012F092FD48F25C30C0F2020012F08CFD40F6AC3370
:4052C000C2F200031B7848F26C30C0F20200194612F02CFDFBF784FA40F6AC33C2F200035B7848F29030C0F20200194612F01EFDFBF7BCF944F61000C0F2020012F06AFD09
:4053000044F61000C0F2020012F064FD48F2B430C0F2020012F05EFD48F2CC30C0F2020012F058FD48F2E430C0F2020012F0FEFC4AF22413C1F6FF73DB68184611F05CFC08
:4053400002460B4648F20440C0F2020012F0EEFC44F61000C0F2020012F03CFD48F21840C0F2020012F0E2FC40F66403C2F20003DB68184611F040FC02460B4648F20440CE
:40538000C0F2020012F0D2FC44F61000C0F2020012F020FD44F61000C0F2020012F01AFD48F23840C0F2020012F014FD48F24840C0F2020012F00EFD48F25840C0F20200B3
:4053C00012F0B4FC4AF22413C1F6FF731B7C48F27840C0F20200194612F0A8FC44F61000C0F2020012F0F6FC48F29040C0F2020012F09CFC4AF22413C1F6FF735B69184615
:4054000011F0FAFB02460B4648F2B040C0F2020012F08CFC44F61000C0F2020012F0DAFC48F2B440C0F2020012F080FC4AF22413C1F6FF739B69184611F0DEFB02460B46CE
:4054400048F2B040C0F2020012F070FC44F61000C0F2020012F0BEFC48F2D440C0F2020012F064FCFBF79AFA44F61000C0F2020012F0B0FC48F2F440C0F2020012F056FC1A
:405480004AF22413C1F6FF731B6A184611F0B4FB04460D464AF22413C1F6FF731A6A4AF22413C1F6FF73DB691046194612F018F80346184611F0A0FB02460B46CDE90023A4
:4054C00048F21450C0F2020022462B4612F02EFC44F61000C0F2020012F07CFC48F22850C0F2020012F022FC4AF22413C1F6FF7393F82D3048F24850C0F20200194612F0EC
:4055000015FC44F61000C0F2020012F063FC48F26450C0F2020012F009FC40F66403C2F200031B7C48F27840C0F20200194612F0FDFB44F61000C0F2020012F04BFC48F2E7
:405540008450C0F2020012F0F1FB40F66403C2F200035B69184611F04FFB02460B4648F2B040C0F2020012F0E1FB44F61000C0F2020012F02FFC48F2A450C0F2020012F090
:40558000D5FB40F66403C2F200039B69184611F033FB02460B4648F2B040C0F2020012F0C5FB44F61000C0F2020012F013FC48F2C450C0F2020012F0B9FBFBF723FA44F6ED
:4055C0001000C0F2020012F005FC48F2E450C0F2020012F0ABFB40F66403C2F200031B6A184611F009FB04460D4640F66403C2F200031A6A40F66403C2F20003DB6910467B
:40560000194611F06DFF0346184611F0F5FA02460B46CDE9002348F21450C0F2020022462B4612F083FB44F61000C0F2020012F0D1FB48F20460C0F2020012F077FB40F622
:405640006403C2F2000393F82D3048F24850C0F20200194612F06AFB44F61000C0F2020012F0B8FB44F61000C0F2020012F0B2FB48F22460C0F2020012F0ACFB48F238608B
:40568000C0F2020012F0A6FB48F24C60C0F2020012F04CFB40F64813C2F20003DB8D1AB240F64813C2F2000393F82C3048F26C60C0F2020011461A4612F038FB44F6100015
:4056C000C0F2020012F086FB48F29060C0F2020012F02CFB40F64813C2F200031B8E1BB248F2B060C0F20200194612F01FFB44F61000C0F2020012F06DFB48F2C060C0F2C1
:40570000020012F013FB40F64813C2F200035B8E1BB248F2B060C0F20200194612F006FB44F61000C0F2020012F054FB48F2E060C0F2020012F0FAFA40F64813C2F200033E
:405740009B8E1BB248F2B060C0F20200194612F0EDFA44F61000C0F2020012F03BFB48F20070C0F2020012F0E1FA40F64813C2F200039B6B184611F03FFA02460B4648F2C3
:405780002070C0F2020012F0D1FA44F61000C0F2020012F01FFB48F23470C0F2020012F0C5FA40F6C433C2F20003DB8D1AB240F6C433C2F2000393F82C3048F26C60C0F2D0
:4057C000020011461A4612F0B1FA44F61000C0F2020012F0FFFA48F25470C0F2020012F0A5FA40F6C433C2F200031B8E1BB248F2B060C0F20200194612F098FA44F6100062
:40580000C0F2020012F0E6FA48F27470C0F2020012F08CFA40F6C433C2F200035B8E1BB248F2B060C0F20200194612F07FFA44F61000C0F2020012F0CDFA48F29470C0F24F
:40584000020012F073FA40F6C433C2F200039B8E1BB248F2B060C0F20200194612F066FA44F61000C0F2020012F0B4FA48F2B470C0F2020012F05AFA40F6C433C2F2000324
:405880009B6B184611F0B8F902460B4648F22070C0F2020012F04AFA44F61000C0F2020012F098FA44F61000C0F2020012F092FA48F2D470C0F2020012F08CFA48F2E4700F
:4058C000C0F2020012F086FA48F2F470C0F2020012F02CFA4AF22413C1F6FF735B6A184611F08AF902460B4648F2B040C0F2020012F01CFA4AF22413C1F6FF731B7848F6B9
:405900001400C0F20200194612F010FA4AF22410C1F6FF70FAF78CFF48F62400C0F2020012F004FA4AF22410C1F6FF70FAF7C0FF48F64400C0F2020012F0F8F94AF224102D
:40594000C1F6FF70FBF792F844F61000C0F2020012F040FA48F66400C0F2020012F0E6F940F66403C2F200035B6A184611F044F902460B4648F2B040C0F2020012F0D6F917
:4059800040F66403C2F200031B7848F61400C0F20200194612F0CAF94AF22410C1F6FF70FAF746FF48F68400C0F2020012F0BEF940F66400C2F20000FAF77AFF48F6A40041
:4059C000C0F2020012F0B2F940F66400C2F20000FBF74CF844F61000C0F2020012F0FAF948F6C400C0F2020012F0A0F948F21013C1F6FF731B681846FAF7A6FF44F6100037
:405A0000C0F2020012F0E6F944F61000C0F2020012F0E0F948F6E400C0F2020012F0DAF948F6FC00C0F2020012F0D4F948F61410C0F2020012F07AF940F6AC33C2F2000339
:405A40005B68184611F0D8F804460D4640F6AC33C2F200035B6818464DF20A71C3F6234102F01CFF0346184611F0C6F802460B46CDE9002348F63410C0F2020022462B46DF
:405A800012F054F940F6AC33C2F200035B6818464DF20A71C3F6234102F026FF0346184611F0AAF802460B4648F64C10C0F2020012F03CF948F66010C0F2020012F036F9C1
:405AC00040F6AC33C2F200031B891BB248F68010C0F20200194612F029F944F61000C0F2020012F077F948F68C10C0F2020012F01DF940F6AC33C2F200035B891BB248F693
:405B00008010C0F20200194612F010F944F61000C0F2020012F05EF948F6AC10C0F2020012F004F940F6AC33C2F200039B891BB248F68010C0F20200194612F0F7F844F6EA
:405B40001000C0F2020012F045F944F61000C0F2020012F03FF948F6CC10C0F2020012F039F948F6E810C0F2020012F033F948F60420C0F2020012F0D9F840F63C23C2F29D
:405B800000039B6A184611F037F804460D4640F63C23C2F200039B6A18464CF24431C3F62E2102F07BFE0346184611F025F802460B46CDE9002348F63410C0F20200224608
:405BC0002B4612F0B3F840F63C23C2F200039B6A18464CF24431C3F62E2102F085FE0346184611F009F802460B4648F64C10C0F2020012F09BF848F62420C0F2020012F04B
:405C000095F840F63C23C2F2000393F8243048F27840C0F20200194612F088F844F61000C0F2020012F0D6F848F64420C0F2020012F07CF840F63C23C2F2000393F825305F
:405C400048F27840C0F20200194612F06FF844F61000C0F2020012F0BDF848F66420C0F2020012F063F840F63C23C2F2000393F8263048F27840C0F20200194612F056F8AC
:405C800044F61000C0F2020012F0A4F848F68420C0F2020012F04AF840F63C23C2F2000393F8273048F6A420C0F20200194612F03DF844F61000C0F2020012F08BF844F637
:405CC0001000C0F2020012F085F848F6C020C0F2020012F07FF848F6D420C0F2020012F079F848F6E820C0F2020012F01FF840F6AC33C2F200031B69184610F07DFF024638
:405D00000B4648F60830C0F2020012F00FF848F61430C0F2020012F009F840F6AC33C2F200035B69184610F067FF02460B4648F60830C0F2020011F0F9FF44F61000C0F29A
:405D4000020012F047F802F089BC41F29010C2F2000048F63431C0F2020112F0F1F80346002B5ED1B14811F021FE034687F8EA30AE4811F01BFE034687F8EA3097F8EA30A6
:405D8000322B44D848F62423C1F6FF731B78052B35D197F8EA30184608F0D4FF0346002B26D197F8EA3048F63C30C0F20200194611F0BCFF97F8EA30184609F0ABF811E000
:405DC0004AF21813C1F6FF731B780C2B0AD197F8EA3048F65030C0F20200194611F0A6FF02F03CBC02F048FC0346002BE8D00DE048F66430C0F2020011F0ECFF0FE048F676
:405E00009030C0F2020011F0E5FF08E007E047F6E050C0F2020011F089FF02F01FBC02F01DBC41F29010C2F2000048F6C031C0F2020112F085F80346002B79D17B4811F08C
:405E4000B5FD034687F8E930784811F0AFFD034687F8E93048F62423C1F6FF731B78052B5DD108F025FE4FF0000387F8FE3045E097F8FE2040F6D813C2F200039B5C48F6B9
:405E80003C30C0F20200194611F050FF97F8FE2040F6D813C2F200039B5C184609F03AF80CE002F0E9FB0346012B07D148F6C830C0F2020011F08EFF02F0D0BB4AF21813A3
:405EC000C1F6FF731B780C2BEBD197F8FE2040F6D813C2F200039B5C48F65030C0F20200194611F023FF97F8E93018460DF0ECF997F8FE3003F1010387F8FE3097F8FE208C
:405F000040F6D813C2F200039B5CFF2BB0D148F6D830C0F2020011F05DFF02F09FBB48F6F030C0F2020011F055FF00BF02F096BB41F29010C2F2000048F62041C0F2020100
:405F400011F0FEFF0346002B0CD041F29010C2F2000048F62C41C0F2020111F0F1FF0346002B65D148F62423C1F6FF731B78052B52D148F63440C0F2020011F02BFF06F036
:405F80008FFB06F0CDFB06F06BFB06F071FB40F6F800C2F200004FF0020106F0B1F940F6A810C2F200004FF0030106F0A9F92DE040F6F803C2F200035A6841F6F113C0F2F6
:405FC0007653A3FB02134FEA531340F2DC5101FB03F3D31A002B03D14FF02E0011F0BCFE40F6F803C2F200031B78022B0ED140F6A813C2F200031B78022B07D148F64C4090
:40600000C0F2020011F0E6FE02F028BB02F034FB0346002BCCD007E048F66440C0F2020011F0D8FE02F01ABB02F018BB9F11002041F29010C2F2000048F6A041C0F20201B6
:4060400011F07EFF0346002B0DD041F29010C2F2000048F6A841C0F2020111F071FF0346002B40F0DC80BA4811F0A0FC034687F8E53097F8E530002B00F0C780B44811F0FE
:4060800095FC034687F8E53097F8E530632B00F2BC80B04811F086FC02460B461046194611F0C0F80346C7F81431D7F814014FF0000111F0C7FB0346002B00F0AE80A548DD
:4060C00011F070FC02460B461046194611F0AAF80346C7F81431D7F814014FF00001C4F2F01111F0A5FB0346002B00F08D8048F62423C1F6FF731B78052B7ED197F8E520B4
:4061000040F6CC23C2F200039B5CFF2B6BD0D7F814014FF0000111F077FB0346002B03D04FF08043C7F8143148F6AC40C0F2020011F050FE97F8E5305BB21846D7F8141113
:4061400006F02EFB97F8E5305BB21846D7F8141106F0C6FB06F094FA06F09AFA40F6F800C2F200004FF0040106F0CAF840F6A810C2F200004FF0050106F0C2F82DE040F680
:40618000F803C2F200035A6841F6F113C0F27653A3FB02034FEA531340F2DC5101FB03F3D31A002B03D14FF02E0011F0D5FD40F6F803C2F200031B78022B0ED140F6A8137E
:4061C000C2F200031B78022B07D148F6C440C0F2020011F0FFFD02F041BA02F04DFA0346002BCCD010E097F8E53048F6DC40C0F20200194611F09AFD0FE048F61450C0F24B
:40620000020011F0E7FD08E007E048F64C50C0F2020011F0DFFD02F021BA02F01FBA41F29010C2F2000045F2EC41C0F2020111F087FE0346002B42F0FD81454B1B78002B0D
:4062400007D148F67850C0F2020011F06FFD02F002BA3F4848F69C51C0F2020111F070FE0346002B09D03A4848F6A851C0F2020111F066FE0346002B30D1364811F096FBF6
:40628000034687F8B330334811F090FB034687F8B33097F8B330122B18D840F6AC33C2F2000397F8B3205A7002F060FB034687F8D93097F8B33048F6AC50C0F2020019460D
:4062C00011F034FDFAF7D2F902F0C8B947F6E050C0F2020011F02AFD02F0C0B91C4848F6D451C0F2020111F02BFE0346002B33D1184811F05BFB034687F8DA30154811F084
:4063000055FB034687F8DA3097F8DA30012B16D840F6AC33C2F2000397F8DA201A7002F025FB034687F8D93097F8DA3048F6DC50C0F20200194611F0F9FC02F08FB947F643
:40634000E050C0F2020011F0F1FC02F087B900BF9F110020AE110020BD4848F60061C0F2020111F0EDFD0346002B09D0B84848F60C61C0F2020111F0E3FD0346002B2ED166
:40638000B44811F013FB034687F8F330B14811F00DFB034687F8F33097F8F330012B16D84AF22413C1F6FF7397F8F3201A7402F0DDFA034687F8D93097F8F33048F6146064
:4063C000C0F20200194611F0B1FC02F047B947F6E050C0F2020011F0A9FC02F03FB99C4848F63861C0F2020111F0AAFD0346002B09D0974848F64461C0F2020111F0A0FDBF
:406400000346002B2ED1934811F0D0FA034687F8F330904811F0CAFA034687F8F33097F8F330012B16D840F66403C2F2000397F8F3201A7402F09AFA034687F8D93097F89A
:40644000F33048F64C60C0F20200194611F06EFC02F004B947F6E050C0F2020011F066FC02F0FCB87A4848F67061C0F2020111F067FD0346002B09D0754848F67861C0F2FA
:40648000020111F05DFD0346002B2FD1714811F08DFA034687F8B4306E4811F087FA034687F8B43097F8B430012B17D84AF22413C1F6FF7397F8B42083F82D2002F056FAA2
:4064C000034687F8D93097F8B43048F67C60C0F20200194611F02AFC02F0C0B847F6E050C0F2020011F022FC02F0B8B8584848F6A461C0F2020111F023FD0346002B09D0F2
:40650000534848F6AC61C0F2020111F019FD0346002B2FD14F4811F049FA034687F8B5304C4811F043FA034687F8B53097F8B530012B17D840F64813C2F2000397F8B520F3
:4065400083F82C2002F012FA034687F8D93097F8B53048F6B460C0F20200194611F0E6FB02F07CB847F6E050C0F2020011F0DEFB02F074B8364848F6E461C0F2020111F0D4
:40658000DFFC0346002B09D0314848F6F061C0F2020111F0D5FC0346002B5DD148F6F460C0F2020011F0C2FB4FF0010002F072F80346012B3FD140F64813C2F200034FF0D6
:4065C0000002DA8548F63470C0F2020011F002FC40F60840C2F2000009F03CFF4FF47A700CF072FE48F64C70C0F2020011F0F2FB40F60840C2F2000009F03AFF40F6084325
:40660000C2F200035B68184611F030F903469AB240F64813C2F20003DA8540F64813C2F20003DB8D1BB248F66070C0F20200194611F07CFB05E048F6A870C0F2020011F016
:40664000C9FB02F093F9034687F8D93002F006B89F110020AE110020C14848F6D871C0F2020111F06DFC0346002B09D0BC4848F6E471C0F2020111F063FC0346002B59D162
:4066800048F6EC70C0F2020011F050FB4FF0010002F000F80346012B3FD140F64813C2F200034FF000025A8648F63470C0F2020011F090FB40F60840C2F2000009F0CAFE13
:4066C0004FF47A700CF000FE40F60840C2F2000009F0CEFE48F64C70C0F2020011F07AFB40F60843C2F200035B68184611F0BEF803469AB240F64813C2F200035A8640F655
:406700004813C2F200035B8E1BB249F22800C0F20200194611F00AFB05E048F6A870C0F2020011F057FB02F021F9034687F8D93001F094BF8A4849F26401C0F2020111F08A
:40674000FFFB0346002B09D0854849F27001C0F2020111F0F5FB0346002B59D149F27800C0F2020011F0E2FA4FF0010001F092FF0346012B3FD140F64813C2F200034FF003
:4067800000021A8648F63470C0F2020011F022FB40F60840C2F2000009F05CFE4FF47A700CF092FD40F60840C2F2000009F060FE48F64C70C0F2020011F00CFB40F6084386
:4067C000C2F200035B68184611F050F803469AB240F64813C2F200031A8640F64813C2F200031B8E1BB249F2B400C0F20200194611F09CFA05E048F6A870C0F2020011F0B4
:40680000E9FA02F0B3F8034687F8D93001F026BF534849F2F001C0F2020111F091FB0346002B09D04E4849F2FC01C0F2020111F087FB0346002B2ED14A4811F0B7F80346D7
:40684000A7F8B630474811F0B1F80346A7F8B630B7F8B630642B16D8B7F8B62040F64813C2F200039A8602F081F8034687F8D930B7F8B63049F20410C0F20200194611F059
:4068800055FA01F0EBBE47F6E050C0F2020011F04DFA01F0E3BE324848F24C11C0F2020111F04EFB0346002B09D02D4848F25811C0F2020111F044FB0346002B54D1294880
:4068C00011F070F802460B461046194610F0AAFC0346C7F8B830D7F8B8004FF48041CCF21C6110F0AFFF0346002B30D01D4811F059F802460B461046194610F093FC034686
:40690000C7F8B830D7F8B8004FF48041C4F21C6110F08EFF0346002B19D040F64813C2F20003D7F8B8209A6302F020F8034687F8D930D7F8B80010F05FF902460B4649F28E
:406940004810C0F2020011F0F1F901F087BE47F6E050C0F2020011F0E9F901F07FBE00BF9F110020AE110020B14849F29411C0F2020111F0E5FA0346002B09D0AC4849F260
:406980009C11C0F2020111F0DBFA0346002B2FD1A84811F00BF8034687F8B430A54811F005F8034687F8B43097F8B430012B17D840F66403C2F2000397F8B42083F82D20E7
:4069C00001F0D4FF034687F8D93097F8B43049F2A010C0F20200194611F0A8F901F03EBE47F6E050C0F2020011F0A0F901F036BE8F4849F2CC11C0F2020111F0A1FA0346D9
:406A0000002B09D08A4849F2D411C0F2020111F097FA0346002B2FD1864810F0C7FF034687F8B530834810F0C1FF034687F8B53097F8B530012B17D840F6C433C2F20003B9
:406A400097F8B52083F82C2001F090FF034687F8D93097F8B53049F2DC10C0F20200194611F064F901F0FABD47F6E050C0F2020011F05CF901F0F2BD6D4849F21021C0F2FC
:406A8000020111F05DFA0346002B09D0684849F21C21C0F2020111F053FA0346002B59D149F22020C0F2020011F040F94FF0010001F0F0FD0346012B3FD140F6C433C2F278
:406AC00000034FF00002DA8548F63470C0F2020011F080F948F65440C1F6FF7009F0BAFC4FF47A700CF0F0FB48F65440C1F6FF7009F0BEFC48F64C70C0F2020011F06AF96B
:406B000048F65443C1F6FF735B68184610F0AEFE03469AB240F6C433C2F20003DA8540F6C433C2F20003DB8D1BB249F26020C0F20200194611F0FAF805E049F2A820C0F23E
:406B4000020011F047F901F011FF034687F8D93001F084BD364849F2D821C0F2020111F0EFF90346002B09D0314849F2E421C0F2020111F0E5F90346002B5DD149F2EC20FB
:406B8000C0F2020011F0D2F84FF0010001F082FD0346012B3FD140F6C433C2F200034FF000025A8648F63470C0F2020011F012F948F65440C1F6FF7009F04CFC4FF47A7014
:406BC0000CF082FB48F65440C1F6FF7009F050FC48F64C70C0F2020011F0FCF848F65443C1F6FF735B68184610F040FE03469AB240F6C433C2F200035A8640F6C433C2F2A5
:406C000000035B8E1BB249F22830C0F20200194611F08CF805E049F2A820C0F2020011F0D9F801F0A3FE034687F8D93001F016BD9F110020AE110020D24849F26431C0F290
:406C4000020111F07DF90346002B09D0CD4849F27031C0F2020111F073F90346002B59D149F27830C0F2020011F060F84FF0010001F010FD0346012B3FD140F6C433C2F208
:406C800000034FF000021A8648F63470C0F2020011F0A0F848F65440C1F6FF7009F0DAFB4FF47A700CF010FB48F65440C1F6FF7009F0DEFB48F64C70C0F2020011F08AF8CC
:406CC00048F65443C1F6FF735B68184610F0CEFD03469AB240F6C433C2F200031A8640F6C433C2F200031B8E1BB249F2B430C0F20200194611F01AF805E049F2A820C0F258
:406D0000020011F067F801F031FE034687F8D93001F0A4BC9B4849F2F031C0F2020111F00FF90346002B09D0964849F2FC31C0F2020111F005F90346002B2ED1924810F01E
:406D400035FE0346A7F8B6308F4810F02FFE0346A7F8B630B7F8B630642B16D8B7F8B62040F6C433C2F200039A8601F0FFFD034687F8D930B7F8B63049F20440C0F202001F
:406D8000194610F0D3FF01F069BC47F6E050C0F2020010F0CBFF01F061BC7A4848F24421C0F2020111F0CCF80346002B09D0754848F25021C0F2020111F0C2F80346002B1F
:406DC0004FD1714810F0EEFD02460B461046194610F028FA0346C7F8B830D7F8B8004FF48041CCF21C6110F02DFD0346002B30D0654810F0D7FD02460B461046194610F03C
:406E000011FA0346C7F8B830D7F8B8004FF48041C4F21C6110F00CFD0346002B19D040F6C433C2F20003D7F8B8209A6301F09EFD034687F8D930D7F8B8000FF0DDFE0246A5
:406E40000B4649F24840C0F2020010F06FFF01F005BC47F6E050C0F2020010F067FF01F0FDBB484849F29441C0F2020111F068F80346002B09D0434849F2A041C0F202019B
:406E800011F05EF80346002B33D13F4810F08EFD034687F8F2303C4810F088FD034687F8F23097F8F230012B1BD840F63C23C2F2000397F8F22083F8242001F057FD03460A
:406EC00087F8D93040F63C23C2F2000393F8243049F2A840C0F20200194610F027FF01F0BDBB47F6E050C0F2020010F01FFF01F0B5BB244849F2C841C0F2020111F020F8FC
:406F00000346002B09D01F4849F2D441C0F2020111F016F80346002B38D11B4810F046FD034687F8F230184810F040FD034687F8F23097F8F230012B1BD840F63C23C2F2DC
:406F4000000397F8F22083F8252001F00FFD034687F8D93040F63C23C2F2000393F8253049F2DC40C0F20200194610F0DFFE01F075BB47F6E050C0F2020010F0D7FE01F064
:406F80006DBB00BF9F110020AE110020BB4849F20051C0F2020110F0D3FF0346002B09D0B64849F20C51C0F2020110F0C9FF0346002B33D1B24810F0F9FC034687F8F23074
:406FC000AF4810F0F3FC034687F8F23097F8F230012B1BD840F63C23C2F2000397F8F22083F8262001F0C2FC034687F8D93040F63C23C2F2000393F8263049F21450C0F245
:407000000200194610F092FE01F028BB47F6E050C0F2020010F08AFE01F020BB974849F23851C0F2020110F08BFF0346002B09D0924849F24451C0F2020110F081FF0346BF
:40704000002B33D18E4810F0B1FC034687F8F1308B4810F0ABFC034687F8F13097F8F130012B1BD840F63C23C2F2000397F8F12083F8272001F07AFC034687F8D93040F627
:407080003C23C2F2000393F8273049F24C50C0F20200194610F04AFE01F0E0BA47F6E050C0F2020010F042FE01F0D8BA734846F65471C0F2020110F043FF0346002B0AD036
:4070C0006E4847F68041C0F2020110F039FF0346002B40F0BE816B4849F27451C0F2020110F02EFF0346002B09D0664849F27C51C0F2020110F024FF0346002B7AD1604835
:4071000010F054FC034687F8E53097F8E530002B00F09C815A4810F049FC034687F8E53097F8E530632B00F2918197F8E52040F6CC23C2F200039B5C194640F63842C2F222
:4071400000020B464FEAC3035B184FEA8303D3181B78002B47D097F8E52040F6CC23C2F200039B5C194640F63842C2F200020B464FEAC3035B184FEA8303D3181B7849F264
:407180008050C0F20200194610F0D0FD97F8E52040F6CC23C2F200039B5C194640F63842C2F200020B464FEAC3035B184FEA8303D3184FF000021A7097F8E52040F6CC2302
:4071C000C2F200039B5CDBB25BB2184602F092F90346002B00F03A8149F2A450C0F2020010F0A4FD32E149F2C850C0F2020010F0F1FD2BE1234810F0D9FB0346A7F8E63078
:40720000204810F0D3FB0346A7F8E630B7F8E6301F2B00F213811A4810F0C8FB034687F8E53097F8E530002B00F00081144810F0BDFB034687F8E53097F8E530632B00F22E
