:40000000008000201100000019FC000019FC000080B500AF47F2BC63C4F2000344F2FA62C4F2000212681A600FF0FAFD10B5054C237833B9044810B10448AFF30080012182
:40004000217010BD008AFF1F0000000028F9010008B5064B1BB106480649AFF300800648016811B1054A02B1904708BD0000000028F90100048AFF1F0881FF1F0000000033
:4000800080B582B000AF48F26053C1F6FF731B689B6818464FF000014FF002024FF0000315F016FD4FF00003FB7111F069F808F087FF4AF23403C1F6FF734FF480525A6555
:4000C00040F27473C2F200034FF480525A654AF23403C1F6FF734FF00002C4F67802DA6040F27473C2F200034FF00002C4F62C12DA604AF23403C1F6FF73DB6818464FF052
:400100000001C4F2B43115F015F903461A464AF23403C1F6FF735A6040F27473C2F20003DB6818464FF00001C4F2B43115F002F903461A4640F27473C2F200035A604AF256
:400140003403C1F6FF73DB68184614F0CBFB02460B46BFA1D1E9000114F042FD02460B461046194614F0D4FE02464AF23403C1F6FF739A6040F27473C2F20003DB6818464A
:4001800014F0B0FB02460B46B1A1D1E9000114F027FD02460B461046194614F0B9FE024640F27473C2F200039A6011F0D9F94FF0FF0010F0D5FF11F07FF810F055F810F0FD
:4001C00031FC10F04DFC12F099FB13F029F912F0C7F913F0C9FA12F09DFB13F0A1FB12F0D5FC40F60033C2F200034FF000021A8040F60033C2F200034FF000029A7040F69E
:400200000033C2F200034FF00002DA7040F60033C2F200034FF000021A714AF23400C1F6FF700AF05BFB40F27470C2F200000AF055FB09F075FF13F0FBFF40F60830C2F2D7
:4002400000000FF001FC48F66430C1F6FF700FF0FBFB40F66020C2F200000FF0ADF840F69810C2F200000FF0A7F809F055FB0BF0DFFE0CF01FF80BF02FFF40F60800C2F208
:4002800000000BF029FB40F6A800C2F200000BF023FB0BF0BDF90CF0A1F80EF037F910F0A3FE4FF4FA7011F003FF42F25000C0F2020015F005FC42F25400C0F2020015F030
:4002C000FFFB42F28000C0F2020015F0F9FB42F2A800C0F2020015F0F3FB42F2D400C0F2020015F0EDFB42F20C10C0F2020015F0E7FB42F25010C0F2020015F0E1FB42F22F
:400300005000C0F2020015F0DBFB10F0E1FF13F027F913F065FE62B642F25000C0F2020015F0CEFB4FF0C80011F0C2FE42F2A410C0F2020015F070FB4FF00103FB710BE0E9
:400340004FF47A7011F0B4FE4FF02E0015F07AFBFB7903F1FF33FB71FB79002BF0D142F25000C0F2020015F0ABFB40F6AC23C2F200031B78002B07D148F61C23C1F6FF7375
:400380004FF006021A7014E048F61C23C1F6FF734FF005021A704AF23400C1F6FF700AF0C7FA40F27470C2F200000AF0C1FA0BF043F900F0F5FD0346BB7142F25000C0F26E
:4003C000020015F07DFB42F2CC10C0F2020015F023FB40F6AC23C2F200031B78012B06D142F2D410C0F2020015F016FB05E042F2E010C0F2020015F00FFB40F60033C2F27A
:4004000000031B88002B05D042F2E410C0F2020015F002FB48F61C23C1F6FF731B78052B06D142F2E810C0F2020015F0F5FA05E042F2F010C0F2020015F0EEFA4FF03E00ED
:4004400015F000FB4FF0C80011F032FEB1E700BF182D4454FB21194080B582B000AF0346FB71FB79042B32D0042B0BDC012B19D0012B02DC002B0ED04CE0022B19D0032B7D
:400480001ED047E0062B30D0062B27DB072B33D0632B38D03EE042F2F810C0F2020015F0BBFA3EE042F20820C0F2020015F0B4FA37E042F21C20C0F2020015F0ADFA30E058
:4004C00042F22C20C0F2020015F0A6FA29E042F24420C0F2020015F09FFA22E042F25C20C0F2020015F098FA1BE042F27020C0F2020015F091FA14E042F28820C0F20200AC
:4005000015F08AFA0DE042F29820C0F2020015F083FA06E042F2A820C0F2020015F07CFA00BF07F10807BD4680BD00BF80B582B000AF0346FB71FB790C2B63D801A252F8AF
:4005400023F000BF790500008705000095050000A3050000B1050000BF050000CD050000050600000506000005060000DB050000E9050000F705000042F2B020C0F202006E
:4005800015F04AFA45E042F2BC20C0F2020015F043FA3EE042F2CC20C0F2020015F03CFA37E042F2E420C0F2020015F035FA30E042F2FC20C0F2020015F02EFA29E042F2E5
:4005C0001430C0F2020015F027FA22E042F22C30C0F2020015F020FA1BE042F24430C0F2020015F019FA14E042F25C30C0F2020015F012FA0DE042F26C30C0F2020015F01A
:400600000BFA06E042F2A820C0F2020015F004FA00BF07F10807BD4680BD00BF80B500AF40F6AC23C2F200035B78122B00F2A88001A252F823F000BF8506000093060000AA
:40064000A1060000AF060000BD060000CB060000D9060000E7060000F506000003070000110700001F0700002D0700003B0700008107000049070000570700006507000063
:400680007307000042F27830C0F2020015F0C4F97DE042F28830C0F2020015F0BDF976E042F29C30C0F2020015F0B6F96FE042F2AC30C0F2020015F0AFF968E042F2BC30D0
:4006C000C0F2020015F0A8F961E042F2C830C0F2020015F0A1F95AE042F2E030C0F2020015F09AF953E042F2F030C0F2020015F093F94CE042F20440C0F2020015F08CF968
:4007000045E042F21440C0F2020015F085F93EE042F22440C0F2020015F07EF937E042F23840C0F2020015F077F930E042F24440C0F2020015F070F929E042F25040C0F29A
:40074000020015F069F922E042F26440C0F2020015F062F91BE042F27840C0F2020015F05BF914E042F28C40C0F2020015F054F90DE042F29C40C0F2020015F04DF906E052
:4007800042F2A840C0F2020015F046F900BF80BD80B500AF40F6AC23C2F200031B78002B02D0012B07D00DE042F2AC40C0F2020015F032F90DE042F2BC40C0F2020015F02F
:4007C0002BF906E042F2C840C0F2020015F024F900BF42F2D440C0F2020015F071F980BD80B582B000AF78607B685B78002B06D142F2D840C0F2020015F00EF926E07B68DB
:400800005B78012B06D142F2E440C0F2020015F003F91BE07B685B78022B06D142F2F040C0F2020015F0F8F810E07B685B78032B06D142F20050C0F2020015F0EDF805E061
:4008400042F20C50C0F2020015F0E6F842F2D440C0F2020015F034F907F10807BD4680BD80B582B000AF78607B689B6A184614F039F802460B4642F22050C0F2020015F07D
:40088000CBF87B689B6A4FF00000C4F27F20194614F050FD0346184614F024F802460B4642F22850C0F2020015F0B6F87B685B6A184614F017F802460B460DA1D1E90001BB
:4008C00014F08EF902460B461046194614F020FB0346184614F006F802460B4642F23C50C0F2020015F098F807F10807BD4680BD597B0FFFFFEBB33F80B582B000AF7860C2
:400900007A684AF23403C1F6FF739A4206D142F25850C0F2020015F07FF813E07A6840F27473C2F200039A4206D142F26850C0F2020015F071F805E042F28450C0F2020073
:4009400015F06AF807F10807BD4680BDB0B582B002AF4AF23403C1F6FF73DB69184613F0C1FF04460D464AF23403C1F6FF7359694AF23403C1F6FF73DA6948F20C13C1F696
:40098000FF731B68084611461A460AF03FFA0346184613F0A7FF02460B46CDE9002342F2A050C0F2020022462B4615F035F8BD46B0BD00BFB0B582B002AF40F27473C2F221
:4009C0000003DB69184613F08DFF04460D4640F27473C2F20003596940F27473C2F20003DA6948F20C13C1F6FF731B68084611461A460AF00BFA0346184613F073FF024614
:400A00000B46CDE9002342F2A050C0F2020022462B4615F001F8BD46B0BD00BF80B582B000AF78607B6893F82C3042F2BC50C0F20200194614F0F0FF7B6893F82C30002BBB
:400A400006D142F2C450C0F2020014F0E5FF71E07B6893F82C30012B06D142F2D050C0F2020014F0D9FF65E07B6893F82C30022B06D142F2E850C0F2020014F0CDFF59E07D
:400A80007B6893F82C30032B06D142F20060C0F2020014F0C1FF4DE07B6893F82C30042B06D142F20C60C0F2020014F0B5FF41E07B6893F82C30052B06D142F21860C0F202
:400AC000020014F0A9FF35E07B6893F82C30062B06D142F22860C0F2020014F09DFF29E07B6893F82C30072B06D142F22860C0F2020014F091FF1DE07B6893F82C30072B78
:400B000006D142F24060C0F2020014F085FF11E07B6893F82C30082B06D142F27460C0F2020014F079FF05E042F29C60C0F2020014F072FF07F10807BD4680BD80B582B0E5
:400B400000AF78607B6893F88430002B06D142F2B460C0F2020014F05FFF1DE07B6893F88430022B06D142F2C060C0F2020014F053FF11E07B6893F88430012B06D142F2A1
:400B8000CC60C0F2020014F047FF05E042F2D860C0F2020014F040FF07F10807BD4680BD80B586B000AF02460B46FA71BB714FF00003FB754FF00003BB8248F62C20C1F6C0
:400BC000FF7007F093F937E0FB7C002B2DD0FB7C0A2B2AD0FA7DFB7CFB6048F23413C1F6FF731968FB6803F10103CB181B7803F00303012B03D1FB6803F1200300E0FB68AC
:400C0000D9B248F62C23C1F6FF739954FB7D03F10103FB75FB79012B03D1FB7C184614F011FF4FF00003BB8206E0BB79012B03D1BB8A03F10103BB82FB7D262B10D810F085
:400C40004DFA0346FB74FB7C0D2B09D0BA8A4CF24F339A4204D807F067F90346012BB3D0FA7D48F62C23C1F6FF734FF000019954FB7D262B02D94FF0020309E0BA8A4CF235
:400C80004F339A4202D94FF0010301E04FF00003184607F11807BD4680BD00BF80B590B000AF0346FB714FF0000387F837304FF0000387F83F304FF0000387F83E3041F28E
:400CC0009000C2F2000007F011F9B24807F00EF9B14807F00BF9B14807F008F94FF001004FF00001FFF75CFF034687F8373097F83730002B40F0BB8007F10C03184607F0EA
:400D0000F5F84FF0000387F83F304FF0000387F83E3036E097F83F3003F1010387F83F3097F83E30002B05D097F83E3003F1FF3387F83E3097F83F30272B08D897F83F2042
:400D400048F62C23C1F6FF739B5C082BE2D097F83E1097F83F2048F62C23C1F6FF739A5C07F14000431803F8342C97F83F3003F1010387F83F3097F83E3003F1010387F824
:400D80003E3097F83F30272B08D897F83F2048F62C23C1F6FF739B5C002BCBD197F83E3007F14002D3184FF0000203F8342C07F10C03184642F2E461C0F2020116F018F8CC
:400DC000B863BB6B002B10D041F29000C2F20000B96B15F019F84FF0000042F2E461C0F2020116F005F8B86305E041F29000C2F2000007F07BF8BB6B002B0DD06548B96BA6
:400E000015F002F84FF0000042F2E461C0F2020115F0EEFFB86302E05E4807F067F8BB6B002B0DD05C48B96B14F0EEFF4FF0000042F2E461C0F2020115F0DAFFB86302E02C
:400E4000554807F053F8BB6B002B0DD05348B96B14F0DAFF4FF0000042F2E461C0F2020115F0C6FFB86302E04C4807F03FF8FB79012B7BD142F2D440C0F2020014F020FEC9
:400E800042F2E860C0F2020014F0C6FD4FF0000387F83F302FE097F83F2048F62C23C1F6FF739B5C082B06D142F2F060C0F2020014F0B2FD19E097F83F2048F62C23C1F641
:400EC000FF739B5C7F2B06D142F2F460C0F2020014F0A2FD09E097F83F2048F62C23C1F6FF739B5C184614F0ADFD97F83F3003F1010387F83F3097F83F30272B08D897F8F6
:400F00003F2048F62C23C1F6FF739B5C002BC2D142F2F860C0F2020014F07EFD41F29000C2F2000014F078FD42F20070C0F2020014F072FD174814F06FFD42F20870C0F240
:400F4000020014F069FD144814F066FD42F21070C0F2020014F060FD104814F05DFD42F2D440C0F2020014F0ABFD0BE042F2D440C0F2020014F0A4FD42F2D440C0F2020093
:400F800014F09EFD4FF00003184607F14007BD4680BD00BF9F100020AE100020B81000202DE9F04FD3B00CAF4FF00003C7F8F8304FF00003C7F8F4304FF0000387F8F3305A
:400FC0004FF0000387F8F2304FF0000387F8F1304FF00003A7F8EE304FF0000387F8ED304FF0000387F8EC304FF0000387F8EB304FF0000387F8EA304FF0000387F8E930E1
:401000004FF00003A7F8E6304FF0000387F8E5304FF00003C7F814314FF00003C7F8E0304FF00003C7F8DC304FF0000387F813314FF0000387F812314FF00000FFF72EFE15
:40104000034687F8DB3041F29000C2F2000042F21871C0F2020114F0E9FD0346002B2CD1DC4B1B78002B20D142F22070C0F2020014F0D2FC4FF0000006F004FF0346012B8C
:401080000BD142F24870C0F2020014F019FD4FF0640011F00DF806F0DBBE42F28C70C0F2020014F0B9FC06F0D3BE42F2A470C0F2020014F0B1FC06F0CBBE41F29000C2F29B
:4010C000000042F2C471C0F2020114F0AFFD0346002B23D1BF4B1B78002B17D142F2C870C0F2020014F0ECFC48F62423C1F6FF731B6803F1140248F62423C1F6FF731A609B
:401100004FF0640010F0D4FF06F0A2BE42F2DC70C0F2020014F0D4FC06F09ABE41F29000C2F2000042F2E471C0F2020114F07EFD0346002B23D1A74B1B78002B17D142F225
:40114000E870C0F2020014F0BBFC48F62423C1F6FF731B6803F1640248F62423C1F6FF731A604FF0640010F0A3FF06F071BE42F2DC70C0F2020014F0A3FC06F069BE41F264
:401180009000C2F2000042F2FC71C0F2020114F04DFD0346002B23D18E4B1B78002B17D142F60000C0F2020014F08AFC48F62423C1F6FF731B68A3F1140248F62423C1F6D3
:4011C000FF731A604FF0640010F072FF06F040BE42F2DC70C0F2020014F072FC06F038BE41F29000C2F2000042F61401C0F2020114F01CFD0346002B23D1764B1B78002BEC
:4012000017D142F61800C0F2020014F059FC48F62423C1F6FF731B68A3F1640248F62423C1F6FF731A604FF0640010F041FF06F00FBE42F2DC70C0F2020014F041FC06F005
:4012400007BE41F29000C2F2000042F62C01C0F2020114F0EBFC0346002B26D142F63400C0F2020014F02CFC4FF0000387F8133115E04FF0010011F011F94FF0FA0010F0F8
:4012800017FF4FF0000011F009F94FF07D0010F00FFF97F8133103F1010387F8133197F81331022BE5D906F0D3BD41F29000C2F2000042F64801C0F2020114F0B7FC03468D
:4012C000002B1BD142F65000C0F2020014F0F8FB48F26010C0F202000EF072FC4FF4FA7010F0E6FE48F26810C0F202000EF068FC4FF4FA7010F0DCFE06F0AABD41F29000DA
:40130000C2F2000042F66401C0F2020114F08EFC0346002B2DD142F66C00C0F2020014F0CFFB1FE04FF001000FF01AFF4FF00B004CF6CD41C3F64C610AF03AFD4FF00B00AF
:401340004CF6CD41C3F64C610AF0D2FD0AF0A0FC0AF0A6FC4FF000000FF002FF4FF4FA7010F0CAFE06F080FD0346002BDAD006F06FBD41F29000C2F2000042F67801C0F27B
:40138000020114F053FC0346002B0CD041F29000C2F2000042F68401C0F2020114F046FC0346002B18D10B4B1B78002B09D142F68C00C0F2020014F083FB0AF029F906F001
:4013C00047BD42F2DC70C0F2020014F079FB06F03FBD00BF9F10002041F29000C2F2000042F6AC01C0F2020114F020FC0346002B0CD041F29000C2F2000042F6B801C0F222
:40140000020114F013FC0346002B4BD1CE4B1B78002B3FD142F6C000C0F2020014F050FB48F61C23C1F6FF734FF006021A700AF0EFF84AF22803C1F6FF734FF00C021A7065
:4014400040F60803C2F200034FF002021A7040F60803C2F200034FF000021A6240F6A803C2F200034FF002021A7040F6A803C2F200034FF000021A624AF23400C1F6FF70A2
:4014800009F070FA40F27470C2F2000009F06AFA06F0DEBC42F2DC70C0F2020014F010FB06F0D6BC41F29000C2F2000042F6E801C0F2020114F0BAFB0346002B0CD041F2BE
:4014C0009000C2F2000042F6F401C0F2020114F0ADFB0346002B3AD19B4B1B78002B2ED142F6F800C0F2020014F0EAFA4AF23400C1F6FF7009F0F2F940F27470C2F20000E8
:4015000009F0ECF911F02CF812F02EF94FF0640010F0CEFD48F61C23C1F6FF734FF005021A704AF23400C1F6FF7009F001FA40F27470C2F2000009F0FBF906F089BC42F2EB
:40154000DC70C0F2020014F0BBFA06F081BC41F29000C2F2000042F60C11C0F2020114F065FB0346002B0DD041F29000C2F2000042F61411C0F2020114F058FB0346002BF5
:4015800040F0BD804FF00003C7F80C314FF0000387F81231A5E04AF23403C1F6FF735B6C42F61810C0F20200194614F035FA40F64C03C2F200035B68184613F0CDFF034679
:4015C00042F63010C0F20200194614F025FA4AF23400C1F6FF70FFF7B1FAD7F80C014FF40041C4F2BB4113F0F1FD0346184613F079F902460B4642F64C10C0F2020014F002
:401600000BFAD7F80C014FF40041C4F2BB4113F0DDFD03461A464AF23403C1F6FF73DB681046194613F086FE0346184613F05AF902460B4642F66810C0F2020014F0ECF90F
:4016400042F2D440C0F2020014F03AFA0FF046FD034687F8123197F81231612B03D097F81231412B0DD1D7F80C014FF07E5113F0A5FC0346C7F80C314FF0000387F81231C5
:4016800025E097F81231642B03D097F81231442B0DD1D7F80C014FF07E5113F08DFC0346C7F80C314FF0000387F812310FE097F81231732B03D097F81231532B07D14FF07A
:4016C0000003C7F80C314FF0000387F81231D7F80C0113F041FF02464AF23403C1F6FF731A6497F81231002B3FF455AF4AF23403C1F6FF734FF000021A6406F0A9BB41F24A
:401700009000C2F2000042F67C11C0F2020114F08DFA0346002B0DD041F29000C2F2000042F68411C0F2020114F080FA0346002B40F0C8804FF00003C7F808314FF0000330
:4017400087F81231B0E000BF9F10002040F27473C2F200035B6C42F68810C0F20200194614F05AF940F6C423C2F200035B68184613F0F2FE034642F63010C0F202001946FC
:4017800014F04AF940F27470C2F20000FFF7D6F9D7F808014FF40041C4F2BB4113F016FD0346184613F09EF802460B4642F64C10C0F2020014F030F9D7F808014FF4004185
:4017C000C4F2BB4113F002FD034618464FF00001C4F2B43113F0FAFC03461A4640F27473C2F20003DB681046194613F0A3FD0346184613F077F802460B4642F66810C0F292
:40180000020014F009F942F2D440C0F2020014F057F90FF063FC034687F8123197F81231772B03D097F81231572B0DD1D7F808014FF07E5113F0C2FB0346C7F808314FF048
:40184000000387F8123125E097F812317A2B03D097F812315A2B0DD1D7F808014FF07E5113F0AAFB0346C7F808314FF0000387F812310FE097F81231732B03D097F8123148
:40188000532B07D14FF00003C7F808314FF0000387F81231D7F8080113F05EFE024640F27473C2F200031A6497F81231002B3FF44DAF40F27473C2F200034FF000021A640C
:4018C00006F0C6BA41F29000C2F2000042F6A411C0F2020114F0AAF90346002B0DD041F29000C2F2000042F6AC11C0F2020114F09DF90346002B40F039814FF00003C7F847
:4019000004314FF00003C7F800314FF0000387F8123116E142F6B010C0F2020014F07CF84AF23400C1F6FF70FFF708F9D7F804014FF40041C4F2BB4113F048FC034618469C
:4019400012F0D0FF02460B4642F6B810C0F2020014F062F84AF23403C1F6FF739B6F184612F0C0FF02460B4642F6D410C0F2020014F052F842F6E410C0F2020014F04CF847
:4019800040F27470C2F20000FFF7D8F8D7F800014FF40041C4F2BB4113F018FC0346184612F0A0FF02460B4642F6B810C0F2020014F032F840F27473C2F200039B6F18467F
:4019C00012F090FF02460B4642F6D410C0F2020014F022F842F2D440C0F2020014F070F80FF07CFB034687F8123197F81231612B03D097F81231412B18D1D7F804014FF07B
:401A00000001C4F2C82113F07FFD0346002B08D0D7F804014FF07E5113F0D0FA0346C7F804314FF0000387F8123176E097F81231642B03D097F81231442B18D1D7F80401C3
:401A40004FF00001CCF2C82113F07CFD0346002B08D0D7F804014FF07E5113F0ADFA0346C7F804314FF0000387F8123155E097F81231772B03D097F81231572B18D1D7F862
:401A800000014FF00001C4F2C82113F03DFD0346002B08D0D7F800014FF07E5113F08EFA0346C7F800314FF0000387F8123134E097F812317A2B03D097F812315A2B18D179
:401AC000D7F800014FF00001CCF2C82113F03AFD0346002B08D0D7F800014FF07E5113F06BFA0346C7F800314FF0000387F8123113E097F81231732B03D097F81231532BA0
:401B00000BD14FF00003C7F804314FF00003C7F800314FF0000387F81231D7F8040113F01BFD02464AF23403C1F6FF731A64D7F8000113F011FD024640F27473C2F2000313
:401B40001A6497F81231002B3FF4E4AE4AF23403C1F6FF734FF000021A6440F27473C2F200034FF000021A6406F072B941F29003C2F200031B78002B06F05D8141F2900048
:401B8000C2F2000042F6F011C0F2020114F04EF80346002B0CD041F29000C2F2000042F6F411C0F2020114F041F80346002B31D1B84B1B78002B25D142F6FC10C0F202001E
:401BC00013F07EFF42F62820C0F2020013F078FF42F65020C0F2020013F072FF42F67C20C0F2020013F06CFF42F6B420C0F2020013F066FF42F6F820C0F2020013F060FF63
:401C000006F026B942F2A470C0F2020013F004FF06F01EB941F29000C2F2000042F64C31C0F2020114F002F80346002B2BD1994B1B78002B1FD142F65430C0F2020013F0AC
:401C40003FFF42F66430C0F2020013F039FF42F68C30C0F2020013F033FF42F6DC30C0F2020013F02DFF42F62840C0F2020013F027FF06F0EDB842F2A470C0F2020013F050
:401C8000CBFE06F0E5B841F29000C2F2000042F65C41C0F2020113F0C9FF0346002B1AD041F29000C2F2000042F66041C0F2020113F0BCFF0346002B0DD041F29000C2F213
:401CC000000042F66441C0F2020113F0AFFF0346002B40F07F846F4B1B78002B40F0DC8042F66C40C0F2020013F0EAFE42F69040C0F2020013F0E4FE42F6C440C0F20200E2
:401D000013F0DEFE42F6F440C0F2020013F0D8FE42F61050C0F2020013F0D2FE42F62C50C0F2020013F0CCFE42F64C50C0F2020013F0C6FE42F67450C0F2020013F0C0FEB7
:401D400042F69450C0F2020013F0BAFE42F6AC50C0F2020013F0B4FE42F2D440C0F2020013F0AEFE42F6E050C0F2020013F0A8FE42F60860C0F2020013F0A2FE42F630600C
:401D8000C0F2020013F09CFE42F65C60C0F2020013F096FE42F2D440C0F2020013F090FE42F68C60C0F2020013F08AFE42F60860C0F2020013F084FE42F6B460C0F20200CA
:401DC00013F07EFE42F6EC60C0F2020013F078FE42F62470C0F2020013F072FE42F2D440C0F2020013F06CFE42F67470C0F2020013F066FE42F60860C0F2020013F060FE6B
:401E000042F69C70C0F2020013F05AFE42F6C870C0F2020013F054FE42F6F470C0F2020013F04EFE43F24800C0F2020013F048FE43F28C00C0F2020013F042FE43F2D00000
:401E4000C0F2020013F03CFE42F2D440C0F2020013F036FE43F20810C0F2020013F030FE42F60860C0F2020013F02AFE43F23010C0F2020013F024FE43F26C10C0F20200DA
:401E800013F01EFE42F2D440C0F2020013F018FE05F0DEBF9F100020DB4843F2B011C0F2020113F0C3FE0346002B40F0AF8142F6F440C0F2020013F003FE43F2B410C0F258
:401EC000020013F0FDFD43F2C010C0F2020013F0F7FD43F2FC10C0F2020013F0F1FD43F23820C0F2020013F0EBFD43F27420C0F2020013F0E5FD43F2B020C0F2020013F003
:401F0000DFFD43F2EC20C0F2020013F0D9FD43F22830C0F2020013F0D3FD43F26430C0F2020013F0CDFD43F2A030C0F2020013F0C7FD43F2DC30C0F2020013F0C1FD43F22E
:401F40001840C0F2020013F0BBFD43F25840C0F2020013F0B5FD43F29840C0F2020013F0AFFD43F2DC40C0F2020013F0A9FD43F22850C0F2020013F0A3FD43F27450C0F297
:401F8000020013F09DFD43F2C450C0F2020013F097FD43F21460C0F2020013F091FD43F25C60C0F2020013F08BFD43F2A060C0F2020013F085FD43F2EC60C0F2020013F02A
:401FC0007FFD43F23870C0F2020013F079FD43F28870C0F2020013F073FD43F2D870C0F2020013F06DFD43F62000C0F2020013F067FD43F67800C0F2020013F061FD43F6F6
:40200000B400C0F2020013F05BFD43F6FC00C0F2020013F055FD43F64C10C0F2020013F04FFD43F69410C0F2020013F049FD43F6D410C0F2020013F043FD43F61420C0F2FA
:40204000020013F03DFD43F66420C0F2020013F037FD43F6AC20C0F2020013F031FD43F6EC20C0F2020013F02BFD43F62C30C0F2020013F025FD43F67030C0F2020013F06D
:402080001FFD43F6B430C0F2020013F019FD43F6F830C0F2020013F013FD43F63C40C0F2020013F00DFD43F68440C0F2020013F007FD43F6CC40C0F2020013F001FD43F691
:4020C0001850C0F2020013F0FBFC43F66450C0F2020013F0F5FC43F6B050C0F2020013F0EFFC43F6F450C0F2020013F0E9FC43F64060C0F2020013F0E3FC43F67460C0F213
:40210000020013F0DDFC42F2D440C0F2020013F0D7FC43F6A460C0F2020013F0D1FC43F6CC60C0F2020013F0CBFC43F6F860C0F2020013F0C5FC43F62470C0F2020013F0BE
:40214000BFFC43F65070C0F2020013F0B9FC43F67C70C0F2020013F0B3FC43F6A870C0F2020013F0ADFC43F6D470C0F2020013F0A7FC44F20000C0F2020013F0A1FC44F26C
:402180004000C0F2020013F09BFC44F29C00C0F2020013F095FC44F2D400C0F2020013F08FFC44F2F400C0F2020013F089FC44F21C10C0F2020013F083FC44F24010C0F2F5
:4021C000020013F07DFC44F27410C0F2020013F077FC44F28C10C0F2020013F071FC44F2C810C0F2020013F06BFC44F22420C0F2020013F065FC44F28020C0F2020013F03C
:402200005FFC05F025BE00BF9F100020F04844F2E421C0F2020113F009FD0346002B40F0DA8042F6C440C0F2020013F049FC43F2B410C0F2020013F043FC44F2EC20C0F293
:40224000020013F03DFC44F22030C0F2020013F037FC44F25830C0F2020013F031FC44F28C30C0F2020013F02BFC44F2C830C0F2020013F025FC44F20C40C0F2020013F0FF
:402280001FFC44F24040C0F2020013F019FC44F28440C0F2020013F013FC44F2D040C0F2020013F00DFC44F20850C0F2020013F007FC44F24850C0F2020013F001FC44F2BB
:4022C0008850C0F2020013F0FBFB44F2E050C0F2020013F0F5FB44F23860C0F2020013F0EFFB44F27C60C0F2020013F0E9FB44F2C060C0F2020013F0E3FB44F20070C0F2ED
:40230000020013F0DDFB44F23070C0F2020013F0D7FB44F27470C0F2020013F0D1FB44F2B870C0F2020013F0CBFB44F60400C0F2020013F0C5FB44F64800C0F2020013F0FB
:40234000BFFB44F68C00C0F2020013F0B9FB44F6D800C0F2020013F0B3FB44F60810C0F2020013F0ADFB44F64410C0F2020013F0A7FB44F68010C0F2020013F0A1FB44F60C
:40238000BC10C0F2020013F09BFB44F60020C0F2020013F095FB44F64420C0F2020013F08FFB44F68420C0F2020013F089FB44F6CC20C0F2020013F083FB44F60430C0F2F0
:4023C000020013F07DFB44F64C30C0F2020013F077FB05F03DBD7E4844F67031C0F2020113F024FC0346002B7FD144F67430C0F2020013F065FB44F68430C0F2020013F0BB
:402400005FFB44F69430C0F2020013F059FB44F6A430C0F2020013F053FB44F6B030C0F2020013F04DFB44F6BC30C0F2020013F047FB44F6CC30C0F2020013F041FB44F68B
:40244000DC30C0F2020013F03BFB44F6EC30C0F2020013F035FB44F6FC30C0F2020013F02FFB44F60840C0F2020013F029FB44F61440C0F2020013F023FB44F62840C0F2CB
:40248000020013F01DFB44F63C40C0F2020013F017FB44F65440C0F2020013F011FB44F66840C0F2020013F00BFB44F67C40C0F2020013F005FB44F69440C0F2020013F0DE
:4024C000FFFA44F6AC40C0F2020013F0F9FA44F6B840C0F2020013F0F3FA44F6C840C0F2020013F0EDFA05F0B3BC394844F6D841C0F2020113F09AFB0346002B13D144F646
:40250000E040C0F2020013F0DBFA43F2B410C0F2020013F0D5FA44F60450C0F2020013F0CFFA05F095BC2A4842F64C31C0F2020113F07CFB0346002B13D142F61050C0F224
:40254000020013F0BDFA43F2B410C0F2020013F0B7FA44F61050C0F2020013F0B1FA05F077BC1B4842F6F411C0F2020113F05EFB0346002B09D0164842F6F011C0F20201D0
:4025800013F054FB0346002B19D142F64C50C0F2020013F095FA43F2B410C0F2020013F08FFA44F61C50C0F2020013F089FA44F62850C0F2020013F083FA05F049BC44F61E
:4025C0003050C0F2020013F027FA05F041BC00BF9F10002041F29000C2F2000044F2E421C0F2020113F022FB0346002B0DD041F29000C2F2000044F64C51C0F2020113F025
:4026000015FB0346002B42F09A87104844F65051C0F2020113F00AFB0346002B0ED00B4844F65851C0F2020113F000FB0346002B04D0064B1B78002B40F0D38244F66050D2
:40264000C0F2020013F0E8F9BDE200BF9F10002044F66850C0F2020013F0DEF944F66C50C0F2020013F02CFA44F69050C0F2020013F026FA44F66C50C0F2020013F020FA8A
:4026800042F2D440C0F2020013F01AFA4AF23403C1F6FF73DB68184612F024F902460B4644F6B450C0F2020013F0B6F94FF0010007F0F0FA40F27473C2F20003DB681846DC
:4026C00012F010F902460B4644F6D450C0F2020013F0A2F942F2D440C0F2020013F0F0F94AF23403C1F6FF735B6C184612F01AFD034618464FF00001C4F2B43112F066FDDD
:4027000003461A464AF23403C1F6FF73DB681046194612F00FFE0346184612F0E3F802460B4644F6F450C0F2020013F075F94FF00D0007F0AFFA40F27473C2F200035B6C0A
:40274000184612F0EFFC034618464FF00001C4F2B43112F03BFD03461A4640F27473C2F20003DB681046194612F0E4FD0346184612F0B8F802460B4644F60C60C0F20200B2
:4027800013F04AF942F2D440C0F2020013F098F942F2D440C0F2020013F092F94AF23403C1F6FF735B6C184612F0BCFC0346184612F098F802460B4644F62460C0F20200FA
:4027C00013F02AF94FF00E0007F064FA40F27473C2F200035B6C184612F0A4FC0346184612F080F802460B4644F63C60C0F2020013F012F942F2D440C0F2020013F060F9D0
:402800004AF23403C1F6FF735B6B184612F08AFC0346184612F066F802460B4644F65460C0F2020013F0F8F84FF0090007F032FA40F27473C2F200035B6B184612F072FC4C
:402840000346184612F04EF802460B4644F67060C0F2020013F0E0F842F2D440C0F2020013F02EF94AF23403C1F6FF73DB6B184612F058FC0346184612F034F802460B460D
:4028800044F68C60C0F2020013F0C6F84FF0090007F000FA40F27473C2F20003DB6B184612F040FC0346184612F01CF802460B4644F6A860C0F2020013F0AEF842F2D44055
:4028C000C0F2020013F0FCF842F2D440C0F2020013F0F6F84AF23403C1F6FF739B6D184612F000F802460B4644F6C460C0F2020013F092F84FF0150007F0CCF940F27473E3
:40290000C2F200039B6D184611F0ECFF02460B4644F6D460C0F2020013F07EF842F2D440C0F2020013F0CCF84AF23403C1F6FF735B6E184611F0D6FF02460B4644F6E460E7
:40294000C0F2020013F068F84FF0140007F0A2F940F27473C2F200035B6E184611F0C2FF02460B4644F6F460C0F2020013F054F842F2D440C0F2020013F0A2F84AF234036C
:40298000C1F6FF731B6E184611F0ACFF02460B4644F60470C0F2020013F03EF84FF0140007F078F940F27473C2F200031B6E184611F098FF02460B4644F61470C0F2020012
:4029C00013F02AF842F2D440C0F2020013F078F84AF23403C1F6FF731B6F184611F082FF02460B4644F62470C0F2020013F014F84FF0160007F04EF940F27473C2F20003B0
:402A00001B6F184611F06EFF02460B4644F63470C0F2020013F000F842F2D440C0F2020013F04EF84AF23403C1F6FF73B3F874309BB244F64470C0F20200194612F0ECFFAF
:402A40004FF0130007F026F940F27473C2F20003B3F874309BB244F65470C0F20200194612F0DAFF42F2D440C0F2020013F028F848F65422C1F6FF7244F66473C0F20203D3
:402A800014460FCB07C423704FF0320048F65421C1F6FF7107F064F94AF23403C1F6FF731B6F184612F058FD03469BB21BB218464FF400714FF0320248F65423C1F6FF7344
:402AC00007F000F948F65422C1F6FF7244F67473C0F2020314460FCB07C4237040F27473C2F200031B6F184612F036FD03469BB21BB218464FF400714FF0320248F6542316
:402B0000C1F6FF7307F0DEF84FF0320048F65421C1F6FF7107F024F942F2D440C0F2020012F0CEFF44F68470C0F2020012F0C8FF44F69070C0F2020012F0C2FF44F69C70D3
:402B4000C0F2020012F068FF48F61C23C1F6FF731B78062B06D144F6AC70C0F2020012F0AFFF13E048F61C23C1F6FF731B78052B06D144F6C470C0F2020012F0A1FF05E061
:402B800044F6D870C0F2020012F09AFF48F62823C1F6FF731B881A4648F62A23C1F6FF731B8844F6FC70C0F2020011461A4612F033FF42F2D440C0F2020012F081FF4FF036
:402BC00032000FF075FA05F04FF90346002B3FF43FAD42F2D440C0F2020012F071FF05F037B9C54845F22801C0F2020113F01EF80346002B00F08C80BF4845F23001C0F246
:402C0000020113F013F80346002B40F08A807FE041F27C03C2F200031B881BB245F23400C0F20200194612F0F7FE41F27C03C2F200035B881BB245F23C00C0F20200194689
:402C400012F0EAFE41F27C03C2F200039B881BB245F24800C0F20200194612F0DDFE41F27C03C2F20003DB881BB245F25400C0F20200194612F0D0FE41F27C03C2F2000332
:402C80001B891BB245F25C00C0F20200194612F0C3FE41F27C03C2F200035B891BB245F26400C0F20200194612F0B6FE41F27C03C2F200039B891BB245F26C00C0F202000B
:402CC000194612F0A9FE41F27C03C2F20003DB891BB245F27800C0F20200194612F09CFE41F27C03C2F200031B8A1BB245F28400C0F20200194612F08FFE42F2D440C0F2A2
:402D0000020012F0DDFE4FF032000FF0D1F900E000BF05F0A9F80346002B3FF479AF05F097B8754845F29001C0F2020112F07EFF0346002B35D12DE041F27C03C2F2000389
:402D40009B881BB2184612F0EDF90346184611F0C9FD02460B46104619464FF000024FF00003C4F2140311F011FE02460B46104619465FA3D3E9002311F032FF02460B4607
:402D800045F29400C0F2020012F046FE4FF064000FF08EF905F068F80346002BCCD005F057B8554845F2A801C0F2020112F03EFF0346002B65D0504845F2B001C0F202016D
:402DC00012F034FF0346002B63D15AE04AF23403C1F6FF739B6F184611F084FD04460D4640F27473C2F200039B6F184611F07AFD02460B46CDE9002345F2B400C0F20200D8
:402E000022462B4612F008FE11F0DEF8034645F2E000C0F20200194612F0FEFD11F0D4F8034603F00103002B06D145F2F800C0F2020012F0F1FD05E045F20C10C0F202009C
:402E400012F0EAFD11F0C0F8034603F00203002B06D145F22010C0F2020012F0DDFD05E045F23410C0F2020012F0D6FD4FF064000FF01EF942F2D440C0F2020012F020FEB8
:402E800000E000BF04F0F0FF0346002B9ED004F0DFBF194845F24411C0F2020112F0C6FE0346002B0AD0144845F25011C0F2020112F0BCFE0346002B40F0CB8011F0EAF82F
:402EC00040F66020C2F200000CF082FA4AF2C800C1F6FF700CF056FD45F25410C0F2020012F0EEFD4FF4FA700FF0E2F874E000BF0000000000FEAF409F1000204AF2C800E2
:402F0000C1F6FF700CF06EFC0346184611F0EAFC04460D460CF01EFB0346184611F0E2FCC7E904014AF2C800C1F6FF700CF098FC0346184611F0D6FCC7E9020140F66020ED
:402F4000C2F200000CF010FB0346184611F0CAFCC7E9000140F66020C2F200000CF010FB0346184611F0BEFC82468B4640F66020C2F200000CF096FB0346184611F0B2FCBE
:402F80008046894640F66020C2F200000CF098FB0346184611F0A6FC02460B46D7E90401CDE90001D7E90201CDE90201D7E90001CDE90401CDE906ABCDE90889CDE90A239B
:402FC00045F26410C0F2020022462B4612F024FD4FF01E000FF06CF804F046FF0346002B8CD040F66020C2F200000CF0FDF911F063F84AF2C800C1F6FF7040F66021C2F260
:4030000000010CF0CFFC0346184611F06BFC04460D464AF2C800C1F6FF7040F66021C2F200014FF00002C4F27A420CF0EFFC0346184611F057FC02460B46CDE9002345F248
:40304000E010C0F2020022462B4612F0E5FC04F0FFBE834845F22821C0F2020112F0E6FD0346002B0AD07E4845F23421C0F2020112F0DCFD0346002B40F0C48011F00AF83F
:4030800040F69810C2F200000CF0A2F940F68800C2F200000CF076FC45F23820C0F2020012F00EFD4FF4FA700FF002F86DE040F68800C2F200000CF095FB0346184611F01E
:4030C00011FC04460D460CF045FA0346184611F009FCC7E90A0140F68800C2F200000CF0BFFB0346184611F0FDFBC7E9080140F69810C2F200000CF037FA0346184611F09B
:40310000F1FBC7E9060140F69810C2F200000CF037FA0346184611F0E5FB82468B4640F69810C2F200000CF0BDFA0346184611F0D9FB8046894640F69810C2F200000CF028
:40314000BFFA0346184611F0CDFB02460B46D7E90A01CDE90001D7E90801CDE90201D7E90601CDE90401CDE906ABCDE90889CDE90A2345F26410C0F2020022462B4612F03C
:403180004BFC4FF01E000EF093FF04F06DFE0346002B8CD040F69810C2F200000CF024F910F08AFF40F68800C2F2000040F69811C2F200010CF0F6FB0346184611F092FB50
:4031C00004460D4640F68800C2F2000040F69811C2F200014FF00002C4F27A420CF016FC0346184611F07EFB02460B46CDE9002345F2E010C0F2020022462B4612F00CFC1A
:4032000004F026BE164845F24821C0F2020112F00DFD0346002B0AD0114845F25421C0F2020112F003FD0346002B40F0D28010F031FF40F66020C2F200000CF0C9F84AF264
:40324000C800C1F6FF700CF09DFB45F25410C0F2020012F035FC4FF4FA700EF029FF7BE09F1000204AF2C800C1F6FF700CF0BAFA0346184611F036FB04460D460CF06AF99E
:403280000346184611F02EFBC7E910014AF2C800C1F6FF704FF00001C4F278210CF058FB0346184611F01EFBC7E90E0140F66020C2F200000CF058F90346184611F012FB88
:4032C000C7E90C0140F66020C2F200004FF00001C4F278210CF0CCF90346184611F002FB82468B4640F66020C2F200000CF0DAF90346184611F0F6FA8046894640F66020FD
:40330000C2F200004FF00001C4F278210CF050FA0346184611F0E6FA02460B46D7E91001CDE90001D7E90E01CDE90201D7E90C01CDE90401CDE906ABCDE90889CDE90A23BA
:4033400045F25820C0F2020022462B4612F064FB4FF01E000EF0ACFE04F086FD0346002B80D040F66020C2F200000CF03DF810F0A3FE4AF2C800C1F6FF7040F66021C2F29F
:4033800000010CF00FFB0346184611F0ABFA04460D464AF2C800C1F6FF7040F66021C2F200014FF00002C4F27A420CF02FFB0346184611F097FA02460B46CDE9002345F2CB
:4033C000E010C0F2020022462B4612F025FB04F03FBDC84845F2D421C0F2020112F026FC0346002B0AD0C34845F2E021C0F2020112F01CFC0346002B40F0D08010F04AFE8D
:4034000040F69810C2F200000BF0E2FF40F68800C2F200000CF0B6FA45F23820C0F2020012F04EFB4FF4FA700EF042FE79E040F68800C2F200000CF0D5F90346184611F04A
:4034400051FA04460D460CF085F80346184611F049FAC7E9160140F68800C2F200004FF00001C4F22C310CF073FA0346184611F039FAC7E9140140F69810C2F200000CF0DD
:4034800073F80346184611F02DFAC7E9120140F69810C2F200004FF00001C4F22C310CF0E7F80346184611F01DFA82468B4640F69810C2F200000CF0F5F80346184611F0D4
:4034C00011FA8046894640F69810C2F200004FF00001C4F22C310CF06BF90346184611F001FA02460B46D7E91601CDE90001D7E91401CDE90201D7E91201CDE90401CDE94B
:4035000006ABCDE90889CDE90A2345F25820C0F2020022462B4612F07FFA4FF01E000EF0C7FD04F0A1FC0346002B80D040F69810C2F200000BF058FF10F0BEFD40F6880028
:40354000C2F2000040F69811C2F200010CF02AFA0346184611F0C6F904460D4640F68800C2F2000040F69811C2F200014FF00002C4F27A420CF04AFA0346184611F0B2F993
:4035800002460B46CDE9002345F2E010C0F2020022462B4612F040FA04F05ABC554845F2E421C0F2020112F041FB0346002B0AD0504845F2EC21C0F2020112F037FB034677
:4035C000002B40F0998010F065FD4AF2C800C1F6FF700BF0B1FF40F63020C2F200000BF02FFF45F25410C0F2020012F069FA4FF4FA700EF05DFD6DE04AF2C800C1F6FF708D
:403600000CF02EF9C7F894004AF2C800C1F6FF700CF0F4F8C7F890004AF2C800C1F6FF700CF0FAF8C7F88C004AF2C800C1F6FF700CF05EF9C7F8880040F63020C2F2000052
:403640000BF0E6FFC7F8840040F63020C2F200000CF07EF8C7F88000D7F8940011F042F904460D46D7F8900011F03CF9C7E91A01D7F88C0011F036F9C7E91801D7F88800F5
:4036800011F030F982468B46D7F8840011F02AF980468946D7F8800011F024F902460B46D7E91A01CDE90001D7E91801CDE90201CDE904ABCDE90689CDE9082345F2F0203F
:4036C000C0F2020022462B4612F0A6F94FF01E000EF0EEFC04F0C8FB0346002B8CD040F63020C2F200000BF0B7FE10F0E5FC04F0AFBB00BF9F100020BC4845F25431C0F2A7
:40370000020112F093FA0346002B0AD0B74845F25C31C0F2020112F089FA0346002B40F0968010F0B7FC40F68800C2F200000BF003FF40F66810C2F200000BF081FE45F2BD
:403740003820C0F2020012F0BBF94FF4FA700EF0AFFC6DE040F68800C2F200000CF080F8C7F8AC0040F68800C2F200000CF046F8C7F8A80040F68800C2F200000CF04CF8CE
:40378000C7F8A40040F68800C2F200000CF0B0F8C7F8A00040F66810C2F200000BF038FFC7F89C0040F66810C2F200000BF0D0FFC7F89800D7F8AC0011F094F804460D461A
:4037C000D7F8A80011F08EF8C7E91E01D7F8A40011F088F8C7E91C01D7F8A00011F082F882468B46D7F89C0011F07CF880468946D7F8980011F076F802460B46D7E91E01F5
:40380000CDE90001D7E91C01CDE90201CDE904ABCDE90689CDE9082345F2F020C0F2020022462B4612F0F8F84FF01E000EF040FC04F01AFB0346002B8CD040F66810C2F218
:4038400000000BF009FE10F037FC04F001BB674845F26031C0F2020112F0E8F90346002B09D0624845F26C31C0F2020112F0DEF90346002B4DD145F27430C0F2020012F0D8
:40388000CBF840F60833C2F200035B68184611F029F802460B4645F28C30C0F2020012F0BBF840F60833C2F200031B69184611F019F802460B4645F2A030C0F2020012F073
:4038C000ABF840F60833C2F20003DB68184611F009F802460B4645F2B430C0F2020012F09BF840F60833C2F200035B69184610F0F9FF02460B4645F2C830C0F2020012F09D
:403900008BF842F2D440C0F2020012F0D9F804F09FBA364845F2DC31C0F2020112F086F90346002B09D0314845F2E831C0F2020112F07CF90346002B4DD145F2F030C0F213
:40394000020012F069F848F66433C1F6FF735B68184610F0C7FF02460B4645F28C30C0F2020012F059F848F66433C1F6FF731B69184610F0B7FF02460B4645F2A030C0F282
:40398000020012F049F848F66433C1F6FF73DB68184610F0A7FF02460B4645F2B430C0F2020012F039F848F66433C1F6FF735B69184610F097FF02460B4645F2C830C0F2B2
:4039C000020012F029F842F2D440C0F2020012F077F804F03DBA054845F20841C0F2020112F024F90346002B3AD132E09F10002041F27C03C2F200031B8A1BB245F21040E7
:403A0000C0F20200194612F007F84AF23403C1F6FF73DB6F184610F065FF02460B4645F23040C0F2020011F0F7FF40F27473C2F20003DB6F184610F055FF02460B4645F243
:403A40004C40C0F2020011F0E7FF4FF00A000EF02FFB04F009FA0346002BC9D004F0F8B9B34845F26841C0F2020112F0DFF80346002B39D0AE4845F27441C0F2020112F086
:403A8000D5F80346002B37D12EE040F63C13C2F20003DB68184610F025FF04460D4640F63C13C2F200031B69184610F01BFF8046894640F63C13C2F200035B69184610F0E6
:403AC00011FF02460B46CDE90089CDE9022345F27C40C0F2020022462B4611F09DFF4FF032000EF0E5FA00E000BF04F0BDF90346002BCAD004F0ACB98D4845F2D041C0F219
:403B0000020112F093F80346002B00F08180884845F2DC41C0F2020112F088F80346002B7ED175E040F6DC73C2F20003DB68184610F0D8FE04460D4640F6DC73C2F2000391
:403B40001B881BB2009345F2E440C0F2020022462B4611F061FF40F6DC73C2F20003DB69184610F0BFFE04460D4640F6DC73C2F200031B8A1BB2009345F2F840C0F202005D
:403B800022462B4611F048FF40F6DC73C2F20003DB6A184610F0A6FE04460D4640F6DC73C2F200031B8C1BB2009345F20C50C0F2020022462B4611F02FFF40F6DC73C2F2F9
:403BC00000035B6B184610F08DFE02460B4645F22050C0F2020011F01FFF40F6DC73C2F200039B6B184610F07DFE02460B4645F23450C0F2020011F00FFF42F2D440C0F2D4
:403C0000020011F05DFF4FF032000EF051FA00E000BF04F029F90346002B83D004F018B9434845F24851C0F2020111F0FFFF0346002B69D03E4845F25051C0F2020111F05A
:403C4000F5FF0346002B5FD0394845F25851C0F2020111F0EBFF0346002B5DD154E045F26050C0F2020011F0D7FE40F69423C2F20003DB6845F26850C0F20200194611F07B
:403C8000CBFE40F69423C2F200031B7C45F28050C0F20200194611F0BFFE40F69423C2F200031B7D45F29050C0F20200194611F0B3FE40F69423C2F200039B7C45F2A0502E
:403CC000C0F20200194611F0A7FE40F69423C2F200031B7845F2AC50C0F20200194611F09BFE40F69423C2F200031B781846FCF7B3FB42F2D440C0F2020011F0E1FE4FF0A3
:403D000032000EF0D5F900E000BF04F0ADF80346002BA4D004F09CB8054845F2B851C0F2020111F083FF0346002B52D14AE000BF9F10002045F2C050C0F2020011F06CFEA3
:403D40004AF22803C1F6FF735B7845F2CC50C0F20200194611F060FE4AF22803C1F6FF739B7845F2D850C0F20200194611F054FE4AF22803C1F6FF739B8845F2E450C0F2E3
:403D80000200194611F048FE4AF22803C1F6FF731B7845F2F450C0F20200194611F03CFE4AF22803C1F6FF731B781846FCF7BEFB42F2D440C0F2020011F082FE4FF0320054
:403DC0000EF076F904F050F80346002BB2D004F03FB8C84845F20461C0F2020111F026FF0346002B42D0C34845F20C61C0F2020111F01CFF0346002B40D137E00DF002FB16
:403E0000034645F21060C0F20200194611F004FE0DF0F8FA0346012B06D145F22060C0F2020011F0F9FD16E00DF0ECFA0346022B06D145F22860C0F2020011F0EDFD0AE071
:403E40000DF0E0FA0346042B05D145F23060C0F2020011F0E1FD42F2D440C0F2020011F02FFE4FF032000EF023F900E000BF03F0FBFF0346002BC1D003F0EABF9D4845F2C5
:403E80003861C0F2020111F0D1FE0346002B25D0984845F24061C0F2020111F0C7FE0346002B23D11AE040F6DC73C2F200039B6B184610F017FD02460B4645F24860C0F208
:403EC000020011F0A9FD42F2D440C0F2020011F0F7FD4FF032000EF0EBF800E000BF03F0C3FF0346002BDED003F0B2BF814845F28861C0F2020111F099FE0346002B6DD015
:403F00007C4845F29461C0F2020111F08FFE0346002B6BD162E04AF23403C1F6FF735B6C42F61810C0F20200194611F075FD40F64C03C2F200035B68184611F00DFB034664
:403F400045F29860C0F20200194611F065FD40F64C03C2F200031B69184610F0C3FC02460B4645F2B060C0F2020011F055FD40F27473C2F200035B6C45F2C060C0F2020036
:403F8000194611F049FD40F6C423C2F200035B68184611F0E1FA034645F29860C0F20200194611F039FD40F6C423C2F200031B69184610F097FC02460B4645F2B060C0F2ED
:403FC000020011F029FD42F2D440C0F2020011F077FD4FF032000EF06BF800E000BF03F043FF0346002B96D003F032BF414845F2E061C0F2020111F019FE0346002B09D0A8
:404000003C4845F2E861C0F2020111F00FFE0346002B42D145F2F060C0F2020011F050FD45F24470C0F2020011F0F6FC4FF0010003F028FF0346012B43F0FF860DF05AF940
:404040004FF400700EF056FD4FF400700FF058FD18E00EF0A7FA034645F27470C0F20200194611F0D9FC0FF0A1FB034645F28470C0F20200194611F0CFFC03F0F5FE034634
:40408000012B05D003F0F0FE0346002BE1D000E000BF0DF01DF903F0D0BE164845F29871C0F2020111F0C2FD0346002B49D0114845F2A471C0F2020111F0B8FD0346002BA2
:4040C00047D13EE00FF080FF034645F2A870C0F20200194611F0A0FC0FF076FF034603F00103002B08D145F2BC70C0F2020011F093FC07E09F10002045F2D070C0F2020084
:4041000011F08AFC0FF060FF034603F00203002B06D145F2E470C0F2020011F07DFC05E045F2FC70C0F2020011F076FC42F2D440C0F2020011F0C4FC4FF032000DF0B8FF0D
:4041400000E000BF03F090FE0346002BBAD003F07FBECB4844F67031C0F2020111F066FD0346002B0AD0C64845F61001C0F2020111F05CFD0346002B40F04381C14845F687
:404180001801C0F2020111F051FD0346002B44D14FF0000387F8FF303AE097F9FF1040F63832C2F200020B464FEAC3035B184FEA8303D3181B78002B0AD197F9FF309BB248
:4041C00045F61C00C0F20200194611F025FC19E097F9FF309BB21C4697F9FF1040F63832C2F200020B464FEAC3035B184FEA8303D3181B7845F63C00C0F2020021461A46E5
:4042000011F00AFC97F8FF3003F1010387F8FF3097F9FF30202BC0DDF1E09A4811F03CFA034687F8E53097F8E530002B00F0DF80944811F031FA034687F8E53097F8E530FE
:40424000632B00F2D48097F8E52040F6CC13C2F200039B5CFF2B00F0C08097F8E56097F8E52040F6CC13C2F200039B5C194640F63832C2F200020B464FEAC3035B184FEADD
:404280008303D31803F118031B68184611F064F9054697F8E52040F6CC13C2F200039B5C194640F63832C2F200020B464FEAC3035B184FEA8303D31803F104031B6818469F
:4042C00011F04AF9044697F8E52040F6CC13C2F200039B5C194640F63832C2F200020B464FEAC3035B184FEA8303D31803F108031B891BB2009345F66000C0F202003146EE
:404300002A46234611F088FB97F8E56097F8E52040F6CC13C2F200039B5C194640F63832C2F200020B464FEAC3035B184FEA8303D31803F11C031B68184611F00DF905468D
:4043400097F8E52040F6CC13C2F200039B5C194640F63832C2F200020B464FEAC3035B184FEA8303D31803F108031B68184611F0F3F8044697F8E52040F6CC13C2F200034E
:404380009B5C194640F63832C2F200020B464FEAC3035B184FEA8303D31803F10A031B891BB2009345F6C000C0F2020031462A46234611F031FB97F8E52097F8E51040F665
:4043C000CC13C2F200035B5C45F62010C0F2020011461A4611F020FB11E097F8E53045F65410C0F20200194611F016FB07E045F67010C0F2020011F00FFB03F029BD03F0F8
:4044000027BD1F4845F69011C0F2020111F00EFC0346002B1ED11B4811F03EF9034687F8EA30184811F038F9034687F8EA3097F8EA30312B06D897F8EA30184609F018FF47
:4044400003F006BD45F67010C0F2020011F0E4FA03F0FEBC0A4845F69411C0F2020111F0E5FB0346002B2DD0054845F6A011C0F2020111F0DBFB0346002B2BD122E000BF5C
:404480009F100020AE1000204AF23403C1F6FF7393F8843045F6A810C0F20200194611F0BBFA4AF23400C1F6FF70FCF747FB42F2D440C0F2020011F003FB4FF032000DF084
:4044C000F7FD00E000BF03F0CFFC0346002BDBD003F0BEBCC84845F6B811C0F2020111F0A5FB0346002B28D0C34845F6C411C0F2020111F09BFB0346002B26D11DE040F208
:404500007473C2F2000393F8843045F6CC10C0F20200194611F080FA40F27470C2F20000FCF70CFB42F2D440C0F2020011F0C8FA4FF032000DF0BCFD00E000BF03F094FC2D
:404540000346002BDBD003F083BCAB4845F6DC11C0F2020111F06AFB0346002B0AD0A64845F6E811C0F2020111F060FB0346002B40F0FF8045F2F060C0F2020011F0A0FA3A
:4045800045F6F010C0F2020011F046FA4FF0010003F078FC0346012B40F0E7800CF0AAFE4AF23400C1F6FF7006F098F940F27470C2F2000006F092F940F64C03C2F20003D0
:4045C0004FF000029A624FF0000387F81231C7E041F27C03C2F200039B891BB245F62420C0F20200194611F017FA0DF0DBFF034645F64020C0F20200194611F00DFA40F6C9
:404600004C03C2F200039B6A184610F06BF902460B4645F65020C0F2020011F0FDF942F2D440C0F2020011F04BFA0CF057FD034687F8123197F81231722B03D097F812310D
:40464000522B1CD10DF0AEFF024640F64C03C2F200039A6141F27C03C2F200039B891AB240F64C03C2F20003DA6145F66820C0F2020011F025FA4FF0000387F8123197F8AD
:404680001231732B03D097F81231532B46D10DF089FF024640F64C03C2F200039B69D31A184610F03FFD024640F64C03C2F200031A6241F27C03C2F200039B891AB240F6BC
:4046C0004C03C2F20003DB69D31A184610F02AFD024640F64C03C2F200035A6240F64C03C2F200031A6A40F64C03C2F200035B6A1046194610F01EFE034623F0004240F658
:404700004C03C2F200039A6245F68020C0F2020011F0D6F94FF0000387F8123197F81231652B03D097F81231452B19D140F64C03C2F200039A6A40F64C03C2F200039A633A
:4047400000BF0CF0C5FD03F009FD034687F8D93045F6A420C0F2020011F0B2F903F078BB97F81231002B3FF433AF0CF0B1FD03F06FBB214845F6D421C0F2020111F056FAF5
:404780000346002B0AD01C4845F6E021C0F2020111F04CFA0346002B40F0018145F2F060C0F2020011F08CF945F6F010C0F2020011F032F94FF0010003F064FB0346012B06
:4047C00040F0E9800CF096FD4AF23400C1F6FF7006F084F840F27470C2F2000006F07EF840F6C423C2F200034FF000029A624FF0000387F81231C9E09F10002041F27C0314
:40480000C2F20003DB891BB245F6E820C0F20200194611F001F90EF0C9FF034645F64020C0F20200194611F0F7F840F6C423C2F200039B6A184610F055F802460B4645F63A
:404840005020C0F2020011F0E7F842F2D440C0F2020011F035F90CF041FC034687F8123197F81231722B03D097F81231522B1CD10EF09CFF024640F6C423C2F200039A6197
:4048800041F27C03C2F20003DB891AB240F6C423C2F20003DA6145F66820C0F2020011F00FF94FF0000387F8123197F81231732B03D097F81231532B46D10EF077FF024666
:4048C00040F6C423C2F200039B69D31A184610F029FC024640F6C423C2F200031A6241F27C03C2F20003DB891AB240F6C423C2F20003DB69D31A184610F014FC024640F64E
:40490000C423C2F200035A6240F6C423C2F200031A6A40F6C423C2F200035B6A1046194610F008FD034623F0004240F6C423C2F200039A6245F68020C0F2020011F0C0F8BC
:404940004FF0000387F8123197F81231652B03D097F81231452B19D140F6C423C2F200039A6A40F6C423C2F200039A6300BF0CF0AFFC03F0F3FB034687F8D93045F60430A2
:40498000C0F2020011F09CF803F062BA97F81231002B3FF433AF0CF09BFC03F059BA314845F63431C0F2020111F040F90346002B09D02C4845F63C31C0F2020111F036F99E
:4049C0000346002B50D140F60033C2F200031B88002B07D145F64430C0F2020011F070F803F02DBA40F60033C2F200031B8803F00803002B14D045F65430C0F2020011F072
:404A00005FF840F60033C2F200031B8803F00203002B05D045F67830C0F2020011F050F840F60033C2F200031B8803F01003002B03F0058245F6AC30C0F2020011F040F812
:404A400040F60033C2F200031B8803F00203002B03F0F58145F67830C0F2020011F030F803F0EDB99F1000200A4845F6D031C0F2020111F0DBF80346002B0DD0054845F6CF
:404A8000D831C0F2020111F0D1F80346002B43F0D88101E09F10002045F6DC30C0F2020011F00EF845F6EC30C0F2020011F008F840F6AC23C2F200031B7845F6FC30C0F248
:404AC0000200194610F0A8FFFBF762FE40F6AC23C2F200035B7845F62040C0F20200194610F09AFFFBF79AFD42F2D440C0F2020010F0E6FF42F2D440C0F2020010F0E0FF41
:404B000045F64440C0F2020010F0DAFF45F65C40C0F2020010F0D4FF45F67440C0F2020010F07AFF4AF23403C1F6FF73DB6818460FF0D8FE02460B4645F69440C0F2020041
:404B400010F06AFF42F2D440C0F2020010F0B8FF45F6A840C0F2020010F05EFF40F27473C2F20003DB6818460FF0BCFE02460B4645F69440C0F2020010F04EFF42F2D440CA
:404B8000C0F2020010F09CFF42F2D440C0F2020010F096FF45F6C840C0F2020010F090FF45F6D840C0F2020010F08AFF45F6E840C0F2020010F030FF4AF23403C1F6FF731D
:404BC0001B7C45F60850C0F20200194610F024FF42F2D440C0F2020010F072FF45F62050C0F2020010F018FF4AF23403C1F6FF735B6918460FF076FE02460B4645F64050DD
:404C0000C0F2020010F008FF42F2D440C0F2020010F056FF45F64450C0F2020010F0FCFE4AF23403C1F6FF739B6918460FF05AFE02460B4645F64050C0F2020010F0ECFE94
:404C400042F2D440C0F2020010F03AFF45F66450C0F2020010F0E0FEFBF778FE42F2D440C0F2020010F02CFF45F68450C0F2020010F0D2FE4AF23403C1F6FF731B6A1846DD
:404C80000FF030FE04460D464AF23403C1F6FF731A6A4AF23403C1F6FF73DB691046194610F094FA034618460FF01CFE02460B46CDE9002345F6A450C0F2020022462B46F9
:404CC00010F0AAFE42F2D440C0F2020010F0F8FE45F6B850C0F2020010F09EFE4AF23403C1F6FF7393F82D3045F6D850C0F20200194610F091FE42F2D440C0F2020010F002
:404D0000DFFE45F6F450C0F2020010F085FE40F27473C2F200031B7C45F60850C0F20200194610F079FE42F2D440C0F2020010F0C7FE45F61460C0F2020010F06DFE40F29B
:404D40007473C2F200035B6918460FF0CBFD02460B4645F64050C0F2020010F05DFE42F2D440C0F2020010F0ABFE45F63460C0F2020010F051FE40F27473C2F200039B69EE
:404D800018460FF0AFFD02460B4645F64050C0F2020010F041FE42F2D440C0F2020010F08FFE45F65460C0F2020010F035FEFBF701FE42F2D440C0F2020010F081FE45F68D
:404DC0007460C0F2020010F027FE40F27473C2F200031B6A18460FF085FD04460D4640F27473C2F200031A6A40F27473C2F20003DB691046194610F0E9F9034618460FF090
:404E000071FD02460B46CDE9002345F6A450C0F2020022462B4610F0FFFD42F2D440C0F2020010F04DFE45F69460C0F2020010F0F3FD40F27473C2F2000393F82D3045F6CD
:404E4000D850C0F20200194610F0E6FD42F2D440C0F2020010F034FE42F2D440C0F2020010F02EFE45F6B460C0F2020010F028FE45F6C860C0F2020010F022FE45F6DC60E7
:404E8000C0F2020010F0C8FD40F64C03C2F20003DB8D1AB240F64C03C2F2000393F82C3045F6FC60C0F2020011461A4610F0B4FD42F2D440C0F2020010F002FE45F620706C
:404EC000C0F2020010F0A8FD40F64C03C2F200031B8E1BB245F64070C0F20200194610F09BFD42F2D440C0F2020010F0E9FD45F65070C0F2020010F08FFD40F64C03C2F2BB
:404F000000035B8E1BB245F64070C0F20200194610F082FD42F2D440C0F2020010F0D0FD45F67070C0F2020010F076FD40F64C03C2F200039B8E1BB245F64070C0F202005F
:404F4000194610F069FD42F2D440C0F2020010F0B7FD45F69070C0F2020010F05DFD40F64C03C2F200039B6B18460FF0BBFC02460B4645F6B070C0F2020010F04DFD42F2F7
:404F8000D440C0F2020010F09BFD45F6C470C0F2020010F041FD40F6C423C2F20003DB8D1AB240F6C423C2F2000393F82C3045F6FC60C0F2020011461A4610F02DFD42F20D
:404FC000D440C0F2020010F07BFD45F6E470C0F2020010F021FD40F6C423C2F200031B8E1BB245F64070C0F20200194610F014FD42F2D440C0F2020010F062FD46F2040020
:40500000C0F2020010F008FD40F6C423C2F200035B8E1BB245F64070C0F20200194610F0FBFC42F2D440C0F2020010F049FD46F22400C0F2020010F0EFFC40F6C423C2F22A
:4050400000039B8E1BB245F64070C0F20200194610F0E2FC42F2D440C0F2020010F030FD46F24400C0F2020010F0D6FC40F6C423C2F200039B6B18460FF034FC02460B4630
:4050800045F6B070C0F2020010F0C6FC42F2D440C0F2020010F014FD42F2D440C0F2020010F00EFD46F26400C0F2020010F008FD46F27400C0F2020010F002FD46F284009B
:4050C000C0F2020010F0A8FC4AF23403C1F6FF735B6A18460FF006FC02460B4645F64050C0F2020010F098FC4AF23403C1F6FF731B7846F2A400C0F20200194610F08CFC46
:405100004AF23400C1F6FF70FBF76AFB46F2B400C0F2020010F080FC4AF23400C1F6FF70FBF79EFB46F2D400C0F2020010F074FC4AF23400C1F6FF70FBF770FC42F2D440D9
:40514000C0F2020010F0BCFC46F2F400C0F2020010F062FC40F27473C2F200035B6A18460FF0C0FB02460B4645F64050C0F2020010F052FC40F27473C2F200031B7846F2D7
:40518000A400C0F20200194610F046FC4AF23400C1F6FF70FBF724FB46F21410C0F2020010F03AFC40F27470C2F20000FBF758FB46F23410C0F2020010F02EFC40F274708A
:4051C000C2F20000FBF72AFC42F2D440C0F2020010F076FC46F25410C0F2020010F01CFC48F21013C1F6FF731B681846FBF784FB42F2D440C0F2020010F062FC42F2D44093
:40520000C0F2020010F05CFC46F27410C0F2020010F056FC46F28C10C0F2020010F050FC46F2A410C0F2020010F0F6FB40F6AC23C2F200035B6818460FF054FB04460D4673
:4052400040F6AC23C2F200035B6818464DF20A71C3F6234102F01AFF034618460FF042FB02460B46CDE9002346F2C410C0F2020022462B4610F0D0FB40F6AC23C2F20003FA
:405280005B6818464DF20A71C3F6234102F024FF034618460FF026FB02460B4646F2DC10C0F2020010F0B8FB46F2F010C0F2020010F0B2FB40F6AC23C2F200031B891BB230
:4052C00046F21020C0F20200194610F0A5FB42F2D440C0F2020010F0F3FB46F21C20C0F2020010F099FB40F6AC23C2F200035B891BB246F21020C0F20200194610F08CFB7E
:4053000042F2D440C0F2020010F0DAFB46F23C20C0F2020010F080FB40F6AC23C2F200039B891BB246F21020C0F20200194610F073FB42F2D440C0F2020010F0C1FB42F257
:40534000D440C0F2020010F0BBFB46F25C20C0F2020010F0B5FB46F27820C0F2020010F0AFFB46F29420C0F2020010F055FB40F63C13C2F200039B6A18460FF0B3FA0446E4
:405380000D4640F63C13C2F200039B6A18464CF24431C3F62E2102F079FE034618460FF0A1FA02460B46CDE9002346F2C410C0F2020022462B4610F02FFB40F63C13C2F228
:4053C00000039B6A18464CF24431C3F62E2102F083FE034618460FF085FA02460B4646F2DC10C0F2020010F017FB46F2B420C0F2020010F011FB40F63C13C2F2000393F8DE
:40540000243045F60850C0F20200194610F004FB42F2D440C0F2020010F052FB46F2D420C0F2020010F0F8FA40F63C13C2F2000393F8253045F60850C0F20200194610F096
:40544000EBFA42F2D440C0F2020010F039FB46F2F420C0F2020010F0DFFA40F63C13C2F2000393F8263045F60850C0F20200194610F0D2FA42F2D440C0F2020010F020FB98
:4054800046F21430C0F2020010F0C6FA40F63C13C2F2000393F8273046F23430C0F20200194610F0B9FA42F2D440C0F2020010F007FB42F2D440C0F2020010F001FB46F24E
:4054C0005030C0F2020010F0FBFA46F26430C0F2020010F0F5FA46F27830C0F2020010F09BFA40F6AC23C2F200031B6918460FF0F9F902460B4646F29830C0F2020010F00F
:405500008BFA46F2A430C0F2020010F085FA40F6AC23C2F200035B6918460FF0E3F902460B4646F29830C0F2020010F075FA42F2D440C0F2020010F0C3FA02F089BC41F20F
:405540009000C2F2000046F2C431C0F2020110F06DFB0346002B5ED1B14810F09DF8034687F8EA30AE4810F097F8034687F8EA3097F8EA30322B44D848F61C23C1F6FF735B
:405580001B78052B35D197F8EA30184608F0E2FE0346002B26D197F8EA3046F2CC30C0F20200194610F038FA97F8EA30184608F0B9FF11E04AF22803C1F6FF731B780C2BB4
:4055C0000AD197F8EA3046F2E030C0F20200194610F022FA02F03CBC02F046FC0346002BE8D00DE046F2F430C0F2020010F068FA0FE046F22040C0F2020010F061FA08E089
:4056000007E045F67010C0F2020010F005FA02F01FBC02F01DBC41F29000C2F2000046F25041C0F2020110F001FB0346002B79D17B4810F031F8034687F8E930784810F041
:405640002BF8034687F8E93048F61C23C1F6FF731B78052B5DD108F033FD4FF0000387F8FE3045E097F8FE2040F6D803C2F200039B5C46F2CC30C0F20200194610F0CCF9DB
:4056800097F8FE2040F6D803C2F200039B5C184608F048FF0CE002F0E7FB0346012B07D146F25840C0F2020010F00AFA02F0D0BB4AF22803C1F6FF731B780C2BEBD197F82A
:4056C000FE2040F6D803C2F200039B5C46F2E030C0F20200194610F09FF997F8E93018460CF0E6FC97F8FE3003F1010387F8FE3097F8FE2040F6D803C2F200039B5CFF2BFE
:40570000B0D146F26840C0F2020010F0D9F902F09FBB46F28040C0F2020010F0D1F900BF02F096BB41F29000C2F2000046F2B041C0F2020110F07AFA0346002B0CD041F272
:405740009000C2F2000046F2BC41C0F2020110F06DFA0346002B65D148F61C23C1F6FF731B78052B52D146F2C440C0F2020010F0A7F906F09DFA06F0DBFA06F079FA06F017
:405780007FFA40F60800C2F200004FF0020106F0BFF840F6A800C2F200004FF0030106F0B7F82DE040F60803C2F200035A6841F6F113C0F27653A3FB02134FEA531340F214
:4057C000DC5101FB03F3D31A002B03D14FF02E0010F038F940F60803C2F200031B78022B0ED140F6A803C2F200031B78022B07D146F2DC40C0F2020010F062F902F028BB01
:4058000002F032FB0346002BCCD007E046F2F440C0F2020010F054F902F01ABB02F018BB9F10002041F29000C2F2000046F23051C0F2020110F0FAF90346002B0DD041F22E
:405840009000C2F2000046F23851C0F2020110F0EDF90346002B40F0DC80BA480FF01CFF034687F8E53097F8E530002B00F0C780B4480FF011FF034687F8E53097F8E530FD
:40588000632B00F2BC80B0480FF002FF02460B46104619460FF03CFB0346C7F81431D7F814014FF000010FF043FE0346002B00F0AE80A5480FF0ECFE02460B461046194649
:4058C0000FF026FB0346C7F81431D7F814014FF00001C4F2F0110FF021FE0346002B00F08D8048F61C23C1F6FF731B78052B7ED197F8E52040F6CC13C2F200039B5CFF2B98
:405900006BD0D7F814014FF000010FF0F3FD0346002B03D04FF08043C7F8143146F23C50C0F2020010F0CCF897F8E5305BB21846D7F8141106F03CFA97F8E5305BB2184652
:40594000D7F8141106F0D4FA06F0A2F906F0A8F940F60800C2F200004FF0040105F0D8FF40F6A800C2F200004FF0050105F0D0FF2DE040F60803C2F200035A6841F6F113A8
:40598000C0F27653A3FB02034FEA531340F2DC5101FB03F3D31A002B03D14FF02E0010F051F840F60803C2F200031B78022B0ED140F6A803C2F200031B78022B07D146F238
:4059C0005450C0F2020010F07BF802F041BA02F04BFA0346002BCCD010E097F8E53046F26C50C0F20200194610F016F80FE046F2A450C0F2020010F063F808E007E046F2CE
:405A0000DC50C0F2020010F05BF802F021BA02F01FBA41F29000C2F2000043F2B011C0F2020110F003F90346002B42F0FD81454B1B78002B07D146F20860C0F202000FF0E0
:405A4000EBFF02F002BA3F4846F22C61C0F2020110F0ECF80346002B09D03A4846F23861C0F2020110F0E2F80346002B30D136480FF012FE034687F8B33033480FF00CFE49
:405A8000034687F8B33097F8B330122B18D840F6AC23C2F2000397F8B3205A7002F05EFB034687F8D93097F8B33046F23C60C0F2020019460FF0B0FFFAF7B0FD02F0C8B980
:405AC00045F67010C0F202000FF0A6FF02F0C0B91C4846F26461C0F2020110F0A7F80346002B33D118480FF0D7FD034687F8DA3015480FF0D1FD034687F8DA3097F8DA3061
:405B0000012B16D840F6AC23C2F2000397F8DA201A7002F023FB034687F8D93097F8DA3046F26C60C0F2020019460FF075FF02F08FB945F67010C0F202000FF06DFF02F072
:405B400087B900BF9F100020AE100020BD4846F29061C0F2020110F069F80346002B09D0B84846F29C61C0F2020110F05FF80346002B2ED1B4480FF08FFD034687F8F330C2
:405B8000B1480FF089FD034687F8F33097F8F330012B16D84AF23403C1F6FF7397F8F3201A7402F0DBFA034687F8D93097F8F33046F2A460C0F2020019460FF02DFF02F02E
:405BC00047B945F67010C0F202000FF025FF02F03FB99C4846F2C861C0F2020110F026F80346002B09D0974846F2D461C0F2020110F01CF80346002B2ED193480FF04CFD19
:405C0000034687F8F33090480FF046FD034687F8F33097F8F330012B16D840F27473C2F2000397F8F3201A7402F098FA034687F8D93097F8F33046F2DC60C0F2020019461A
:405C40000FF0EAFE02F004B945F67010C0F202000FF0E2FE02F0FCB87A4846F20071C0F202010FF0E3FF0346002B09D0754846F20871C0F202010FF0D9FF0346002B2FD1DE
:405C800071480FF009FD034687F8B4306E480FF003FD034687F8B43097F8B430012B17D84AF23403C1F6FF7397F8B42083F82D2002F054FA034687F8D93097F8B43046F208
:405CC0000C70C0F2020019460FF0A6FE02F0C0B845F67010C0F202000FF09EFE02F0B8B8584846F23471C0F202010FF09FFF0346002B09D0534846F23C71C0F202010FF04C
:405D000095FF0346002B2FD14F480FF0C5FC034687F8B5304C480FF0BFFC034687F8B53097F8B530012B17D840F64C03C2F2000397F8B52083F82C2002F010FA034687F8A2
:405D4000D93097F8B53046F24470C0F2020019460FF062FE02F07CB845F67010C0F202000FF05AFE02F074B8364846F27471C0F202010FF05BFF0346002B09D0314846F297
:405D80008071C0F202010FF051FF0346002B5DD146F28470C0F202000FF03EFE4FF0010002F070F80346012B3FD140F64C03C2F200034FF00002DA8546F2C470C0F2020016
:405DC0000FF07EFE40F60830C2F2000009F04AFE4FF47A700CF06CF946F2DC70C0F202000FF06EFE40F60830C2F2000009F048FE40F60833C2F200035B6818460FF0ACFB44
:405E000003469AB240F64C03C2F20003DA8540F64C03C2F20003DB8D1BB246F2F070C0F2020019460FF0F8FD05E046F63800C0F202000FF045FE02F091F9034687F8D93086
:405E400002F006B89F100020AE100020C14846F66801C0F202010FF0E9FE0346002B09D0BC4846F67401C0F202010FF0DFFE0346002B59D146F67C00C0F202000FF0CCFD17
:405E80004FF0010001F0FEFF0346012B3FD140F64C03C2F200034FF000025A8646F2C470C0F202000FF00CFE40F60830C2F2000009F0D8FD4FF47A700CF0FAF840F6083030
:405EC000C2F2000009F0DCFD46F2DC70C0F202000FF0F6FD40F60833C2F200035B6818460FF03AFB03469AB240F64C03C2F200035A8640F64C03C2F200035B8E1BB246F696
:405F0000B800C0F2020019460FF086FD05E046F63800C0F202000FF0D3FD02F01FF9034687F8D93001F094BF8A4846F6F401C0F202010FF07BFE0346002B09D0854846F693
:405F40000011C0F202010FF071FE0346002B59D146F60810C0F202000FF05EFD4FF0010001F090FF0346012B3FD140F64C03C2F200034FF000021A8646F2C470C0F202006B
:405F80000FF09EFD40F60830C2F2000009F06AFD4FF47A700CF08CF840F60830C2F2000009F06EFD46F2DC70C0F202000FF088FD40F60833C2F200035B6818460FF0CCFAC8
:405FC00003469AB240F64C03C2F200031A8640F64C03C2F200031B8E1BB246F64410C0F2020019460FF018FD05E046F63800C0F202000FF065FD02F0B1F8034687F8D930ED
:4060000001F026BF534846F68011C0F202010FF00DFE0346002B09D04E4846F68C11C0F202010FF003FE0346002B2ED14A480FF033FB0346A7F8B63047480FF02DFB0346F3
:40604000A7F8B630B7F8B630642B16D8B7F8B62040F64C03C2F200039A8602F07FF8034687F8D930B7F8B63046F69410C0F2020019460FF0D1FC01F0EBBE45F67010C0F213
:4060800002000FF0C9FC01F0E3BE324845F6DC11C0F202010FF0CAFD0346002B09D02D4845F6E811C0F202010FF0C0FD0346002B54D129480FF0ECFA02460B4610461946C7
:4060C0000EF026FF0346C7F8B830D7F8B8004FF48041CCF21C610FF02BFA0346002B30D01D480FF0D5FA02460B46104619460EF00FFF0346C7F8B830D7F8B8004FF4804127
:40610000C4F21C610FF00AFA0346002B19D040F64C03C2F20003D7F8B8209A6302F01EF8034687F8D930D7F8B8000EF0DBFB02460B4646F6D810C0F202000FF06DFC01F0EE
:4061400087BE45F67010C0F202000FF065FC01F07FBE00BF9F100020AE100020B14846F62421C0F202010FF061FD0346002B09D0AC4846F62C21C0F202010FF057FD0346CA
:40618000002B2FD1A8480FF087FA034687F8B430A5480FF081FA034687F8B43097F8B430012B17D840F27473C2F2000397F8B42083F82D2001F0D2FF034687F8D93097F8DA
:4061C000B43046F63020C0F2020019460FF024FC01F03EBE45F67010C0F202000FF01CFC01F036BE8F4846F65C21C0F202010FF01DFD0346002B09D08A4846F66421C0F2B5
:4062000002010FF013FD0346002B2FD186480FF043FA034687F8B53083480FF03DFA034687F8B53097F8B530012B17D840F6C423C2F2000397F8B52083F82C2001F08EFF67
:40624000034687F8D93097F8B53046F66C20C0F2020019460FF0E0FB01F0FABD45F67010C0F202000FF0D8FB01F0F2BD6D4846F6A021C0F202010FF0D9FC0346002B09D013
:40628000684846F6AC21C0F202010FF0CFFC0346002B59D146F6B020C0F202000FF0BCFB4FF0010001F0EEFD0346012B3FD140F6C423C2F200034FF00002DA8546F2C47011
:4062C000C0F202000FF0FCFB48F66430C1F6FF7009F0C8FB4FF47A700BF0EAFE48F66430C1F6FF7009F0CCFB46F2DC70C0F202000FF0E6FB48F66433C1F6FF735B68184641
:406300000FF02AF903469AB240F6C423C2F20003DA8540F6C423C2F20003DB8D1BB246F6F020C0F2020019460FF076FB05E046F63830C0F202000FF0C3FB01F00FFF034659
:4063400087F8D93001F084BD364846F66831C0F202010FF06BFC0346002B09D0314846F67431C0F202010FF061FC0346002B5DD146F67C30C0F202000FF04EFB4FF0010077
:4063800001F080FD0346012B3FD140F6C423C2F200034FF000025A8646F2C470C0F202000FF08EFB48F66430C1F6FF7009F05AFB4FF47A700BF07CFE48F66430C1F6FF706D
:4063C00009F05EFB46F2DC70C0F202000FF078FB48F66433C1F6FF735B6818460FF0BCF803469AB240F6C423C2F200035A8640F6C423C2F200035B8E1BB246F6B830C0F226
:40640000020019460FF008FB05E046F63830C0F202000FF055FB01F0A1FE034687F8D93001F016BD9F100020AE100020D24846F6F431C0F202010FF0F9FB0346002B09D02B
:40644000CD4846F60041C0F202010FF0EFFB0346002B59D146F60840C0F202000FF0DCFA4FF0010001F00EFD0346012B3FD140F6C423C2F200034FF000021A8646F2C4705F
:40648000C0F202000FF01CFB48F66430C1F6FF7009F0E8FA4FF47A700BF00AFE48F66430C1F6FF7009F0ECFA46F2DC70C0F202000FF006FB48F66433C1F6FF735B681846E1
:4064C0000FF04AF803469AB240F6C423C2F200031A8640F6C423C2F200031B8E1BB246F64440C0F2020019460FF096FA05E046F63830C0F202000FF0E3FA01F02FFE034626
:4065000087F8D93001F0A4BC9B4846F68041C0F202010FF08BFB0346002B09D0964846F68C41C0F202010FF081FB0346002B2ED192480FF0B1F80346A7F8B6308F480FF06B
:40654000ABF80346A7F8B630B7F8B630642B16D8B7F8B62040F6C423C2F200039A8601F0FDFD034687F8D930B7F8B63046F69440C0F2020019460FF04FFA01F069BC45F612
:406580007010C0F202000FF047FA01F061BC7A4845F6D421C0F202010FF048FB0346002B09D0754845F6E021C0F202010FF03EFB0346002B4FD171480FF06AF802460B46F6
:4065C000104619460EF0A4FC0346C7F8B830D7F8B8004FF48041CCF21C610EF0A9FF0346002B30D065480FF053F802460B46104619460EF08DFC0346C7F8B830D7F8B80035
:406600004FF48041C4F21C610EF088FF0346002B19D040F6C423C2F20003D7F8B8209A6301F09CFD034687F8D930D7F8B8000EF059F902460B4646F6D840C0F202000FF0F7
:40664000EBF901F005BC45F67010C0F202000FF0E3F901F0FDBB484846F62451C0F202010FF0E4FA0346002B09D0434846F63051C0F202010FF0DAFA0346002B33D13F48A2
:406680000FF00AF8034687F8F2303C480FF004F8034687F8F23097F8F230012B1BD840F63C13C2F2000397F8F22083F8242001F055FD034687F8D93040F63C13C2F20003CA
:4066C00093F8243046F63850C0F2020019460FF0A3F901F0BDBB45F67010C0F202000FF09BF901F0B5BB244846F65851C0F202010FF09CFA0346002B09D01F4846F664513D
:40670000C0F202010FF092FA0346002B38D11B480EF0C2FF034687F8F23018480EF0BCFF034687F8F23097F8F230012B1BD840F63C13C2F2000397F8F22083F8252001F02F
:406740000DFD034687F8D93040F63C13C2F2000393F8253046F66C50C0F2020019460FF05BF901F075BB45F67010C0F202000FF053F901F06DBB00BF9F100020AE10002064
:40678000BB4846F69051C0F202010FF04FFA0346002B09D0B64846F69C51C0F202010FF045FA0346002B33D1B2480EF075FF034687F8F230AF480EF06FFF034687F8F2303A
:4067C00097F8F230012B1BD840F63C13C2F2000397F8F22083F8262001F0C0FC034687F8D93040F63C13C2F2000393F8263046F6A450C0F2020019460FF00EF901F028BB73
:4068000045F67010C0F202000FF006F901F020BB974846F6C851C0F202010FF007FA0346002B09D0924846F6D451C0F202010FF0FDF90346002B33D18E480EF02DFF034643
:4068400087F8F1308B480EF027FF034687F8F13097F8F130012B1BD840F63C13C2F2000397F8F12083F8272001F078FC034687F8D93040F63C13C2F2000393F8273046F69B
:40688000DC50C0F2020019460FF0C6F801F0E0BA45F67010C0F202000FF0BEF801F0D8BA734844F67031C0F202010FF0BFF90346002B0AD06E4845F61001C0F202010FF0A4
:4068C000B5F90346002B40F0BE816B4846F60461C0F202010FF0AAF90346002B09D0664846F60C61C0F202010FF0A0F90346002B7AD160480EF0D0FE034687F8E53097F8CC
:40690000E530002B00F09C815A480EF0C5FE034687F8E53097F8E530632B00F2918197F8E52040F6CC13C2F200039B5C194640F63832C2F200020B464FEAC3035B184FEA8C
:406940008303D3181B78002B47D097F8E52040F6CC13C2F200039B5C194640F63832C2F200020B464FEAC3035B184FEA8303D3181B7846F61060C0F2020019460FF04CF8C3
:4069800097F8E52040F6CC13C2F200039B5C194640F63832C2F200020B464FEAC3035B184FEA8303D3184FF000021A7097F8E52040F6CC13C2F200039B5CDBB25BB2184644
:4069C00002F090F90346002B00F03A8146F63460C0F202000FF020F832E146F65860C0F202000FF06DF82BE123480EF055FE0346A7F8E63020480EF04FFE0346A7F8E630CC
:406A0000B7F8E6301F2B00F213811A480EF044FE034687F8E53097F8E530002B00F0008114480EF039FE034687F8E53097F8E530632B00F2F58046F68C60C0F202000EF021
:406A4000EBFF4FF0010001F01DFA0346012B40F0CB80094B1B78002B10D097F8E520B7F8E630D9B240F6CC13C2F20003995413E09F100020AE100020B810002097F8E52049
:406A800097F8E51041F21803C2F20003595C40F6CC13C2F20003995497F8E52040F6CC13C2F200039B5C194640F63832C2F200020B464FEAC3035B184FEA8303D31897F8D7
:406AC000E5201A7097F8E52040F6CC13C2F200039B5C194640F64C03C2F20003586840F63832C2F200020B464FEAC3035B184FEA8303D31803F11803186097F8E52040F641
:406B0000CC13C2F200039B5C194640F64C03C2F20003586840F63832C2F200020B464FEAC3035B184FEA8303D31803F10403186097F8E52040F6CC13C2F200039B5C194681
:406B400040F6C423C2F20003586840F63832C2F200020B464FEAC3035B184FEA8303D31803F11C03186097F8E52040F6CC13C2F200039B5C194640F6C423C2F200035868E9
:406B800040F63832C2F200020B464FEAC3035B184FEA8303D31803F10803186097F8E56040F64C03C2F200035B6818460EF0D4FC054640F6C423C2F200035B6818460EF05E
:406BC000CBFC044697F8E52040F6CC13C2F200039B5C009346F6C860C0F2020031462A4623460EF019FF05E046F63870C0F202000EF066FF97F8E52040F6CC13C2F20003DC
:406C00009B5CDBB25BB2184602F06CF80346002B0DD046F63460C0F202000EF0FDFE06E045F67010C0F202000EF0F6FE09E008E045F67010C0F202000EF0EEFE01F008B91E
:406C400000BF01F005B9B84846F66471C0F202010EF0ECFF0346002B51D1B4480EF018FD02460B46104619460EF052F90346C7F8D430D7F8D4004FF000010EF059FC034630
:406C8000002B34D0A9480EF003FD02460B46104619460EF03DF90346C7F8D430D7F8D4004FF00001C4F2C8210EF038FC0346002B1DD04AF23403C1F6FF73D7F8D4205A61F9
:406CC00001F04CFA034687F8D9304AF23403C1F6FF735B6918460DF005FE02460B4646F66870C0F202000EF097FE01F0B1B845F67010C0F202000EF08FFE01F0A9B88A4862
:406D000046F68871C0F202010EF090FF0346002B51D186480EF0BCFC02460B46104619460EF0F6F80346C7F8D430D7F8D4004FF000010EF0FDFB0346002B34D07B480EF06A
:406D4000A7FC02460B46104619460EF0E1F80346C7F8D430D7F8D4004FF00001C4F2C8210EF0DCFB0346002B1DD040F27473C2F20003D7F8D4205A6101F0F0F9034687F897
:406D8000D93040F27473C2F200035B6918460DF0A9FD02460B4646F68C70C0F202000EF03BFE01F055B845F67010C0F202000EF033FE01F04DB85C4846F6AC71C0F2020135
:406DC0000EF034FF0346002B51D158480EF060FC02460B46104619460EF09AF80346C7F8D030D7F8D0004FF000010EF0A1FB0346002B34D04D480EF04BFC02460B46104632
:406E000019460EF085F80346C7F8D030D7F8D0004FF00001C4F27A410EF080FB0346002B1DD04AF23403C1F6FF73D7F8D0209A6101F094F9034687F8D9304AF23403C1F677
:406E4000FF739B6918460DF04DFD02460B4646F6B070C0F202000EF0DFFD00F0F9BF45F67010C0F202000EF0D7FD00F0F1BF2E4846F6D071C0F202010EF0D8FE0346002BFB
:406E800056D12A480EF004FC02460B46104619460EF03EF80346C7F8D030D7F8D0004FF000010EF045FB0346002B34D01F480EF0EFFB02460B46104619460EF029F8034617
:406EC000C7F8D030D7F8D0004FF00001C4F27A410EF024FB0346002B1DD040F27473C2F20003D7F8D0209A6101F038F9034687F8D93040F27473C2F200039B6918460DF059
:406F0000F1FC02460B4646F6D470C0F202000EF083FD00F09DBF45F67010C0F202000EF07BFD00F095BF00BF9F100020AE100020B74846F6F471C0F202010EF077FE034627
:406F4000002B51D1B3480EF0A3FB02460B46104619460DF0DDFF0346C7F8CC30D7F8CC004FF000010EF0E4FA0346002B34D0A9480EF08EFB02460B46104619460DF0C8FF49
:406F80000346C7F8CC30D7F8CC004FF00001C4F2C8210EF0C3FA0346002B1DD04AF23403C1F6FF73D7F8CC20DA6101F0D7F8034687F8D9304AF23403C1F6FF73DB691846D6
:406FC0000DF090FC02460B4646F6F870C0F202000EF022FD00F03CBF45F67010C0F202000EF01AFD00F034BF894847F21801C0F202010EF01BFE0346002B51D185480EF058
:4070000047FB02460B46104619460DF081FF0346C7F8CC30D7F8CC004FF000010EF088FA0346002B34D07B480EF032FB02460B46104619460DF06CFF0346C7F8CC30D7F8F5
:40704000CC004FF00001C4F2C8210EF067FA0346002B1DD040F27473C2F20003D7F8CC20DA6101F07BF8034687F8D93040F27473C2F20003DB6918460DF034FC02460B4672
:4070800047F21C00C0F202000EF0C6FC00F0E0BE45F67010C0F202000EF0BEFC00F0D8BE5B4847F23C01C0F202010EF0BFFD0346002B51D157480EF0EBFA02460B4610463D
:4070C00019460DF025FF0346C7F8C830D7F8C8004FF000010EF02CFA0346002B34D04D480EF0D6FA02460B46104619460DF010FF0346C7F8C830D7F8C8004FF41051C4F6EB
:4071000074110EF00BFA0346002B1DD04AF23403C1F6FF73D7F8C8201A6201F01FF8034687F8D9304AF23403C1F6FF731B6A18460DF0D8FB02460B4647F24400C0F20200A5
:407140000EF06AFC00F084BE45F67010C0F202000EF062FC00F07CBE2D4847F26401C0F202010EF063FD0346002B55D129480EF08FFA02460B46104619460DF0C9FE034671
:40718000C7F8C830D7F8C8004FF000010EF0D0F90346002B34D01F480EF07AFA02460B46104619460DF0B4FE0346C7F8C830D7F8C8004FF41051C4F674110EF0AFF90346C3
:4071C000002B1DD040F27473C2F20003D7F8C8201A6200F0C3FF034687F8D93040F27473C2F200031B6A18460DF07CFB02460B4647F26C00C0F202000EF00EFC00F028BEFA
:4072000045F67010C0F202000EF006FC00F020BE9F100020AE100020B14847F29001C0F202010EF003FD0346002B09D0AC4847F29C01C0F202010EF0F9FC0346002B78D172
