:400000000080002011000000410201004102010080B500AF47F2BC63C4F2000344F2FA62C4F2000212681A6010F00EF910B5054C237833B9044810B10448AFF30080012113
:40004000217010BD008AFF1F0000000050FF010008B5064B1BB106480649AFF300800648016811B1054A02B1904708BD0000000050FF0100048AFF1F0881FF1F00000000D7
:4000800080B582B000AF48F26053C1F6FF731B689B6818464FF000014FF002024FF0000316F02AF84FF00003FB7111F07DFB09F09BFA4AF23403C1F6FF734FF480525A651E
:4000C00040F27473C2F200034FF480525A654AF23403C1F6FF734FF00002C4F67802DA6040F27473C2F200034FF00002C4F62C12DA604AF23403C1F6FF73DB6818464FF052
:400100000001C4F2B43115F029FC03461A464AF23403C1F6FF735A6040F27473C2F20003DB6818464FF00001C4F2B43115F016FC03461A4640F27473C2F200035A604AF228
:400140003403C1F6FF73DB68184614F0DFFE02460B46BFA1D1E9000115F056F802460B461046194615F0E8F902464AF23403C1F6FF739A6040F27473C2F20003DB68184613
:4001800014F0C4FE02460B46B1A1D1E9000115F03BF802460B461046194615F0CDF9024640F27473C2F200039A6011F0EDFC4FF0FF0011F0E9FA11F093FB10F069FB10F071
:4001C00045FF10F061FF12F0ADFE13F03DFC12F0DBFC13F0DDFD12F0B1FE13F0B5FE12F0E9FF40F60033C2F200034FF000021A8040F60033C2F200034FF000029A7040F6CF
:400200000033C2F200034FF00002DA7040F60033C2F200034FF000021A714AF23400C1F6FF700AF06FFE40F27470C2F200000AF069FE0AF089FA14F00FFB40F60830C2F288
:4002400000000FF015FF48F66430C1F6FF700FF00FFF40F66020C2F200000FF0C1FB40F69810C2F200000FF0BBFB09F069FE0CF0F3F90CF033FB0CF043FA40F60800C2F25D
:4002800000000BF03DFE40F6A800C2F200000BF037FE0BF0D1FC0CF0B5FB0EF04BFC11F0B7F94FF4FA7012F017FA42F27860C0F2020015F019FF42F27C60C0F2020015F076
:4002C00013FF42F2A860C0F2020015F00DFF42F2D060C0F2020015F007FF42F2FC60C0F2020015F001FF42F23470C0F2020015F0FBFE42F27870C0F2020015F0F5FE42F2F9
:400300007860C0F2020015F0EFFE11F0F5FA13F03BFC14F079F962B642F27860C0F2020015F0E2FE4FF0C80012F0D6F942F2CC70C0F2020015F084FE4FF00103FB710BE0C5
:400340004FF47A7012F0C8F94FF02E0015F08EFEFB7903F1FF33FB71FB79002BF0D142F27860C0F2020015F0BFFE40F6AC23C2F200031B78002B07D148F61C23C1F6FF73AF
:400380004FF006021A7014E048F61C23C1F6FF734FF005021A704AF23400C1F6FF700AF0DBFD40F27470C2F200000AF0D5FD0BF057FC00F0F5FD0346BB7142F27860C0F2A1
:4003C000020015F091FE42F2F470C0F2020015F037FE40F6AC23C2F200031B78012B06D142F2FC70C0F2020015F02AFE05E042F60800C0F2020015F023FE40F60033C2F2F2
:4004000000031B88002B05D042F60C00C0F2020015F016FE48F61C23C1F6FF731B78052B06D142F61000C0F2020015F009FE05E042F61800C0F2020015F002FE4FF03E0052
:4004400015F014FE4FF0C80012F046F9B1E700BF182D4454FB21194080B582B000AF0346FB71FB79042B32D0042B0BDC012B19D0012B02DC002B0ED04CE0022B19D0032B56
:400480001ED047E0062B30D0062B27DB072B33D0632B38D03EE042F62000C0F2020015F0CFFD3EE042F63000C0F2020015F0C8FD37E042F64400C0F2020015F0C1FD30E0DF
:4004C00042F65400C0F2020015F0BAFD29E042F66C00C0F2020015F0B3FD22E042F68400C0F2020015F0ACFD1BE042F69800C0F2020015F0A5FD14E042F6B000C0F2020014
:4005000015F09EFD0DE042F6C000C0F2020015F097FD06E042F6D000C0F2020015F090FD00BF07F10807BD4680BD00BF80B582B000AF0346FB71FB790C2B63D801A252F852
:4005400023F000BF790500008705000095050000A3050000B1050000BF050000CD050000050600000506000005060000DB050000E9050000F705000042F6D800C0F2020062
:4005800015F05EFD45E042F6E400C0F2020015F057FD3EE042F6F400C0F2020015F050FD37E042F60C10C0F2020015F049FD30E042F62410C0F2020015F042FD29E042F61E
:4005C0003C10C0F2020015F03BFD22E042F65410C0F2020015F034FD1BE042F66C10C0F2020015F02DFD14E042F68410C0F2020015F026FD0DE042F69410C0F2020015F086
:400600001FFD06E042F6D000C0F2020015F018FD00BF07F10807BD4680BD00BF80B500AF40F6AC23C2F200035B78122B00F2A88001A252F823F000BF850600009306000070
:40064000A1060000AF060000BD060000CB060000D9060000E7060000F506000003070000110700001F0700002D0700003B0700008107000049070000570700006507000063
:400680007307000042F6A010C0F2020015F0D8FC7DE042F6B010C0F2020015F0D1FC76E042F6C410C0F2020015F0CAFC6FE042F6D410C0F2020015F0C3FC68E042F6E41038
:4006C000C0F2020015F0BCFC61E042F6F010C0F2020015F0B5FC5AE042F60820C0F2020015F0AEFC53E042F61820C0F2020015F0A7FC4CE042F62C20C0F2020015F0A0FCA5
:4007000045E042F63C20C0F2020015F099FC3EE042F64C20C0F2020015F092FC37E042F66020C0F2020015F08BFC30E042F66C20C0F2020015F084FC29E042F67820C0F202
:40074000020015F07DFC22E042F68C20C0F2020015F076FC1BE042F6A020C0F2020015F06FFC14E042F6B420C0F2020015F068FC0DE042F6C420C0F2020015F061FC06E0AF
:4007800042F6D020C0F2020015F05AFC00BF80BD80B500AF40F6AC23C2F200031B78002B02D0012B07D00DE042F6D420C0F2020015F046FC0DE042F6E420C0F2020015F0DD
:4007C0003FFC06E042F6F020C0F2020015F038FC00BF42F6FC20C0F2020015F085FC80BD80B582B000AF78607B685B78002B06D142F60030C0F2020015F022FC26E07B684B
:400800005B78012B06D142F60C30C0F2020015F017FC1BE07B685B78022B06D142F61830C0F2020015F00CFC10E07B685B78032B06D142F62830C0F2020015F001FC05E0D6
:4008400042F63430C0F2020015F0FAFB42F6FC20C0F2020015F048FC07F10807BD4680BD80B582B000AF78607B689B6A184614F04DFB02460B4642F64830C0F2020015F014
:40088000DFFB7B689B6A4FF00000C4F27F20194615F064F80346184614F038FB02460B4642F65030C0F2020015F0CAFB7B685B6A184614F02BFB02460B460DA1D1E9000143
:4008C00014F0A2FC02460B461046194614F034FE0346184614F01AFB02460B4642F66430C0F2020015F0ACFB07F10807BD4680BD597B0FFFFFEBB33F80B582B000AF78605A
:400900007A684AF23403C1F6FF739A4206D142F68030C0F2020015F093FB13E07A6840F27473C2F200039A4206D142F69030C0F2020015F085FB05E042F6AC30C0F2020021
:4009400015F07EFB07F10807BD4680BDB0B582B002AF4AF23403C1F6FF73DB69184614F0D5FA04460D464AF23403C1F6FF7359694AF23403C1F6FF73DA6948F20C13C1F66F
:40098000FF731B68084611461A460AF053FD0346184614F0BBFA02460B46CDE9002342F6C830C0F2020022462B4615F049FBBD46B0BD00BFB0B582B002AF40F27473C2F2D7
:4009C0000003DB69184614F0A1FA04460D4640F27473C2F20003596940F27473C2F20003DA6948F20C13C1F6FF731B68084611461A460AF01FFD0346184614F087FA0246DD
:400A00000B46CDE9002342F6C830C0F2020022462B4615F015FBBD46B0BD00BF80B582B000AF78607B6893F82C3042F6E430C0F20200194615F004FB7B6893F82C30002B7B
:400A400006D142F6EC30C0F2020015F0F9FA71E07B6893F82C30012B06D142F6F830C0F2020015F0EDFA65E07B6893F82C30022B06D142F61040C0F2020015F0E1FA59E019
:400A80007B6893F82C30032B06D142F62840C0F2020015F0D5FA4DE07B6893F82C30042B06D142F63440C0F2020015F0C9FA41E07B6893F82C30052B06D142F64040C0F2BE
:400AC000020015F0BDFA35E07B6893F82C30062B06D142F65040C0F2020015F0B1FA29E07B6893F82C30072B06D142F65040C0F2020015F0A5FA1DE07B6893F82C30072B30
:400B000006D142F66840C0F2020015F099FA11E07B6893F82C30082B06D142F69C40C0F2020015F08DFA05E042F6C440C0F2020015F086FA07F10807BD4680BD80B582B091
:400B400000AF78607B6893F88430002B06D142F6DC40C0F2020015F073FA1DE07B6893F88430022B06D142F6E840C0F2020015F067FA11E07B6893F88430012B06D142F665
:400B8000F440C0F2020015F05BFA05E042F60050C0F2020015F054FA07F10807BD4680BD80B586B000AF02460B46FA71BB714FF00003FB754FF00003BB8248F62C20C1F67C
:400BC000FF7007F0A7FC37E0FB7C002B2DD0FB7C0A2B2AD0FA7DFB7CFB6048F23413C1F6FF731968FB6803F10103CB181B7803F00303012B03D1FB6803F1200300E0FB6895
:400C0000D9B248F62C23C1F6FF739954FB7D03F10103FB75FB79012B03D1FB7C184615F025FA4FF00003BB8206E0BB79012B03D1BB8A03F10103BB82FB7D262B10D810F075
:400C400061FD0346FB74FB7C0D2B09D0BA8A4CF24F339A4204D807F07BFC0346012BB3D0FA7D48F62C23C1F6FF734FF000019954FB7D262B02D94FF0020309E0BA8A4CF207
:400C80004F339A4202D94FF0010301E04FF00003184607F11807BD4680BD00BF80B590B000AF0346FB714FF0000387F837304FF0000387F83F304FF0000387F83E3041F28E
:400CC0009000C2F2000007F025FCB24807F022FCB14807F01FFCB14807F01CFC4FF001004FF00001FFF75CFF034687F8373097F83730002B40F0BB8007F10C03184607F08E
:400D000009FC4FF0000387F83F304FF0000387F83E3036E097F83F3003F1010387F83F3097F83E30002B05D097F83E3003F1FF3387F83E3097F83F30272B08D897F83F202A
:400D400048F62C23C1F6FF739B5C082BE2D097F83E1097F83F2048F62C23C1F6FF739A5C07F14000431803F8342C97F83F3003F1010387F83F3097F83E3003F1010387F824
:400D80003E3097F83F30272B08D897F83F2048F62C23C1F6FF739B5C002BCBD197F83E3007F14002D3184FF0000203F8342C07F10C03184642F60C51C0F2020116F02CFB99
:400DC000B863BB6B002B10D041F29000C2F20000B96B15F02DFB4FF0000042F60C51C0F2020116F019FBB86305E041F29000C2F2000007F08FFBBB6B002B0DD06548B96B45
:400E000015F016FB4FF0000042F60C51C0F2020116F002FBB86302E05E4807F07BFBBB6B002B0DD05C48B96B15F002FB4FF0000042F60C51C0F2020116F0EEFAB86302E094
:400E4000554807F067FBBB6B002B0DD05348B96B15F0EEFA4FF0000042F60C51C0F2020116F0DAFAB86302E04C4807F053FBFB79012B7BD142F6FC20C0F2020015F034F943
:400E800042F61050C0F2020015F0DAF84FF0000387F83F302FE097F83F2048F62C23C1F6FF739B5C082B06D142F61850C0F2020015F0C6F819E097F83F2048F62C23C1F6E9
:400EC000FF739B5C7F2B06D142F61C50C0F2020015F0B6F809E097F83F2048F62C23C1F6FF739B5C184615F0C1F897F83F3003F1010387F83F3097F83F30272B08D897F8BA
:400F00003F2048F62C23C1F6FF739B5C002BC2D142F62050C0F2020015F092F841F29000C2F2000015F08CF842F62850C0F2020015F086F8174815F083F842F63050C0F2CC
:400F4000020015F07DF8144815F07AF842F63850C0F2020015F074F8104815F071F842F6FC20C0F2020015F0BFF80BE042F6FC20C0F2020015F0B8F842F6FC20C0F2020003
:400F800015F0B2F84FF00003184607F14007BD4680BD00BF9F100020AE100020B81000202DE9F04FD3B00CAF4FF00003C7F8F8304FF00003C7F8F4304FF0000387F8F3304A
:400FC0004FF0000387F8F2304FF0000387F8F1304FF00003A7F8EE304FF0000387F8ED304FF0000387F8EC304FF0000387F8EB304FF0000387F8EA304FF0000387F8E930E1
:401000004FF00003A7F8E6304FF0000387F8E5304FF00003C7F814314FF00003C7F8E0304FF00003C7F8DC304FF0000387F813314FF0000387F812314FF00000FFF72EFE15
:40104000034687F8DB3041F29000C2F2000042F64051C0F2020115F0FDF80346002B2CD1DC4B1B78002B20D142F64850C0F2020014F0E6FF4FF0000007F018FA0346012B3D
:401080000BD142F67050C0F2020015F02DF84FF0640011F021FB07F0EDB942F6B450C0F2020014F0CDFF07F0E5B942F6CC50C0F2020014F0C5FF07F0DDB941F29000C2F2F8
:4010C000000042F6EC51C0F2020115F0C3F80346002B23D1BF4B1B78002B17D142F6F050C0F2020015F000F848F62423C1F6FF731B6803F1140248F62423C1F6FF731A6062
:401100004FF0640011F0E8FA07F0B4B942F60460C0F2020014F0E8FF07F0ACB941F29000C2F2000042F60C61C0F2020115F092F80346002B23D1A74B1B78002B17D142F696
:401140001060C0F2020014F0CFFF48F62423C1F6FF731B6803F1640248F62423C1F6FF731A604FF0640011F0B7FA07F083B942F60460C0F2020014F0B7FF07F07BB941F2D6
:401180009000C2F2000042F62461C0F2020115F061F80346002B23D18E4B1B78002B17D142F62860C0F2020014F09EFF48F62423C1F6FF731B68A3F1140248F62423C1F608
:4011C000FF731A604FF0640011F086FA07F052B942F60460C0F2020014F086FF07F04AB941F29000C2F2000042F63C61C0F2020115F030F80346002B23D1764B1B78002BF5
:4012000017D142F64060C0F2020014F06DFF48F62423C1F6FF731B68A3F1640248F62423C1F6FF731A604FF0640011F055FA07F021B942F60460C0F2020014F055FF07F014
:4012400019B941F29000C2F2000042F65461C0F2020114F0FFFF0346002B26D142F65C60C0F2020014F040FF4FF0000387F8133115E04FF0010011F025FC4FF0FA0011F095
:401280002BFA4FF0000011F01DFC4FF07D0011F023FA97F8133103F1010387F8133197F81331022BE5D907F0E5B841F29000C2F2000042F67061C0F2020114F0CBFF0346AA
:4012C000002B1BD142F67860C0F2020014F00CFF48F68820C0F202000EF086FF4FF4FA7011F0FAF948F69020C0F202000EF07CFF4FF4FA7011F0F0F907F0BCB841F2900066
:40130000C2F2000042F68C61C0F2020114F0A2FF0346002B2DD142F69460C0F2020014F0E3FE1FE04FF0010010F02EFA4FF00B004CF6CD41C3F64C610BF04EF84FF00B0051
:401340004CF6CD41C3F64C610BF0E6F80AF0B4FF0AF0BAFF4FF0000010F016FA4FF4FA7011F0DEF907F094F80346002BDAD007F081B841F29000C2F2000042F6A061C0F277
:40138000020114F067FF0346002B0CD041F29000C2F2000042F6AC61C0F2020114F05AFF0346002B18D10B4B1B78002B09D142F6B460C0F2020014F097FE0AF03DFC07F094
:4013C00059B842F60460C0F2020014F08DFE07F051B800BF9F10002041F29000C2F2000042F6D461C0F2020114F034FF0346002B0CD041F29000C2F2000042F6E061C0F2AD
:40140000020114F027FF0346002B4BD1CE4B1B78002B3FD142F6E860C0F2020014F064FE48F61C23C1F6FF734FF006021A700AF003FC4AF22803C1F6FF734FF00C021A7097
:4014400040F60803C2F200034FF002021A7040F60803C2F200034FF000021A6240F6A803C2F200034FF002021A7040F6A803C2F200034FF000021A624AF23400C1F6FF70A2
:4014800009F084FD40F27470C2F2000009F07EFD06F0F0BF42F60460C0F2020014F024FE06F0E8BF41F29000C2F2000042F61071C0F2020114F0CEFE0346002B0CD041F284
:4014C0009000C2F2000042F61C71C0F2020114F0C1FE0346002B3AD19B4B1B78002B2ED142F62070C0F2020014F0FEFD4AF23400C1F6FF7009F006FD40F27470C2F2000072
:4015000009F000FD11F040FB12F042FC4FF0640011F0E2F848F61C23C1F6FF734FF005021A704AF23400C1F6FF7009F015FD40F27470C2F2000009F00FFD06F09BBF42F64D
:401540000460C0F2020014F0CFFD06F093BF41F29000C2F2000042F63471C0F2020114F079FE0346002B0DD041F29000C2F2000042F63C71C0F2020114F06CFE0346002B73
:4015800040F0BD804FF00003C7F80C314FF0000387F81231A5E04AF23403C1F6FF735B6C42F64070C0F20200194614F049FD40F64C03C2F200035B68184614F0E1FA0346CA
:4015C00042F65870C0F20200194614F039FD4AF23400C1F6FF70FFF7B1FAD7F80C014FF40041C4F2BB4114F005F90346184613F08DFC02460B4642F67470C0F2020014F0B3
:401600001FFDD7F80C014FF40041C4F2BB4114F0F1F803461A464AF23403C1F6FF73DB681046194614F09AF90346184613F06EFC02460B4642F69070C0F2020014F000FD21
:4016400042F6FC20C0F2020014F04EFD10F05AF8034687F8123197F81231612B03D097F81231412B0DD1D7F80C014FF07E5113F0B9FF0346C7F80C314FF0000387F812317B
:4016800025E097F81231642B03D097F81231442B0DD1D7F80C014FF07E5113F0A1FF0346C7F80C314FF0000387F812310FE097F81231732B03D097F81231532B07D14FF063
:4016C0000003C7F80C314FF0000387F81231D7F80C0114F055FA02464AF23403C1F6FF731A6497F81231002B3FF455AF4AF23403C1F6FF734FF000021A6406F0BBBE41F225
:401700009000C2F2000042F6A471C0F2020114F0A1FD0346002B0DD041F29000C2F2000042F6AC71C0F2020114F094FD0346002B40F0C8804FF00003C7F808314FF00003F2
:4017400087F81231B0E000BF9F10002040F27473C2F200035B6C42F6B070C0F20200194614F06EFC40F6C423C2F200035B68184614F006FA034642F65870C0F202001946C4
:4017800014F05EFC40F27470C2F20000FFF7D6F9D7F808014FF40041C4F2BB4114F02AF80346184613F0B2FB02460B4642F67470C0F2020014F044FCD7F808014FF40041A8
:4017C000C4F2BB4114F016F8034618464FF00001C4F2B43114F00EF803461A4640F27473C2F20003DB681046194614F0B7F80346184613F08BFB02460B4642F69070C0F2C2
:40180000020014F01DFC42F6FC20C0F2020014F06BFC0FF077FF034687F8123197F81231772B03D097F81231572B0DD1D7F808014FF07E5113F0D6FE0346C7F808314FF0E0
:40184000000387F8123125E097F812317A2B03D097F812315A2B0DD1D7F808014FF07E5113F0BEFE0346C7F808314FF0000387F812310FE097F81231732B03D097F8123131
:40188000532B07D14FF00003C7F808314FF0000387F81231D7F8080114F072F9024640F27473C2F200031A6497F81231002B3FF44DAF40F27473C2F200034FF000021A64FC
:4018C00006F0D8BD41F29000C2F2000042F6CC71C0F2020114F0BEFC0346002B0DD041F29000C2F2000042F6D471C0F2020114F0B1FC0346002B40F039814FF00003C7F8F4
:4019000004314FF00003C7F800314FF0000387F8123116E142F6D870C0F2020014F090FB4AF23400C1F6FF70FFF708F9D7F804014FF40041C4F2BB4113F05CFF03461846E6
:4019400013F0E4FA02460B4642F6E070C0F2020014F076FB4AF23403C1F6FF739B6F184613F0D4FA02460B4642F6FC70C0F2020014F066FB43F20C00C0F2020014F060FBBD
:4019800040F27470C2F20000FFF7D8F8D7F800014FF40041C4F2BB4113F02CFF0346184613F0B4FA02460B4642F6E070C0F2020014F046FB40F27473C2F200039B6F1846B9
:4019C00013F0A4FA02460B4642F6FC70C0F2020014F036FB42F6FC20C0F2020014F084FB0FF090FE034687F8123197F81231612B03D097F81231412B18D1D7F804014FF092
:401A00000001C4F2C82114F093F80346002B08D0D7F804014FF07E5113F0E4FD0346C7F804314FF0000387F8123176E097F81231642B03D097F81231442B18D1D7F804019C
:401A40004FF00001CCF2C82114F090F80346002B08D0D7F804014FF07E5113F0C1FD0346C7F804314FF0000387F8123155E097F81231772B03D097F81231572B18D1D7F83B
:401A800000014FF00001C4F2C82114F051F80346002B08D0D7F800014FF07E5113F0A2FD0346C7F800314FF0000387F8123134E097F812317A2B03D097F812315A2B18D152
:401AC000D7F800014FF00001CCF2C82114F04EF80346002B08D0D7F800014FF07E5113F07FFD0346C7F800314FF0000387F8123113E097F81231732B03D097F81231532B79
:401B00000BD14FF00003C7F804314FF00003C7F800314FF0000387F81231D7F8040114F02FF802464AF23403C1F6FF731A64D7F8000114F025F8024640F27473C2F20003F3
:401B40001A6497F81231002B3FF4E4AE4AF23403C1F6FF734FF000021A6440F27473C2F200034FF000021A6406F084BC41F29003C2F200031B78002B06F06F8441F290001E
:401B8000C2F2000043F21801C0F2020114F062FB0346002B0CD041F29000C2F2000043F21C01C0F2020114F055FB0346002B31D1B84B1B78002B25D143F22400C0F20200B1
:401BC00014F092FA43F25000C0F2020014F08CFA43F27800C0F2020014F086FA43F2A400C0F2020014F080FA43F2DC00C0F2020014F07AFA43F22010C0F2020014F074FADA
:401C000006F038BC42F6CC50C0F2020014F018FA06F030BC41F29000C2F2000043F27411C0F2020114F016FB0346002B2BD1994B1B78002B1FD143F27C10C0F2020014F044
:401C400053FA43F28C10C0F2020014F04DFA43F2B410C0F2020014F047FA43F20420C0F2020014F041FA43F25020C0F2020014F03BFA06F0FFBB42F6CC50C0F2020014F0BB
:401C8000DFF906F0F7BB41F29000C2F2000043F28421C0F2020114F0DDFA0346002B1AD041F29000C2F2000043F28821C0F2020114F0D0FA0346002B0DD041F29000C2F2C5
:401CC000000043F28C21C0F2020114F0C3FA0346002B40F07F846F4B1B78002B40F0DC8043F29420C0F2020014F0FEF943F2B820C0F2020014F0F8F943F2EC20C0F202009E
:401D000014F0F2F943F21C30C0F2020014F0ECF943F23830C0F2020014F0E6F943F25430C0F2020014F0E0F943F27430C0F2020014F0DAF943F29C30C0F2020014F0D4F92E
:401D400043F2BC30C0F2020014F0CEF943F2D430C0F2020014F0C8F942F6FC20C0F2020014F0C2F943F20840C0F2020014F0BCF943F23040C0F2020014F0B6F943F2584087
:401D8000C0F2020014F0B0F943F28440C0F2020014F0AAF942F6FC20C0F2020014F0A4F943F2B440C0F2020014F09EF943F23040C0F2020014F098F943F2DC40C0F202005A
:401DC00014F092F943F21450C0F2020014F08CF943F24C50C0F2020014F086F942F6FC20C0F2020014F080F943F29C50C0F2020014F07AF943F23040C0F2020014F074F9DB
:401E000043F2C450C0F2020014F06EF943F2F050C0F2020014F068F943F21C60C0F2020014F062F943F27060C0F2020014F05CF943F2B460C0F2020014F056F943F2F860F9
:401E4000C0F2020014F050F942F6FC20C0F2020014F04AF943F23070C0F2020014F044F943F23040C0F2020014F03EF943F25870C0F2020014F038F943F29470C0F20200E1
:401E800014F032F942F6FC20C0F2020014F02CF906F0F0BA9F100020DB4843F2D871C0F2020114F0D7F90346002B40F0AF8143F21C30C0F2020014F017F943F2DC70C0F2D9
:401EC000020014F011F943F2E870C0F2020014F00BF943F62400C0F2020014F005F943F66000C0F2020014F0FFF843F69C00C0F2020014F0F9F843F6D800C0F2020014F0E7
:401F0000F3F843F61410C0F2020014F0EDF843F65010C0F2020014F0E7F843F68C10C0F2020014F0E1F843F6C810C0F2020014F0DBF843F60420C0F2020014F0D5F843F66F
:401F40004020C0F2020014F0CFF843F68020C0F2020014F0C9F843F6C020C0F2020014F0C3F843F60430C0F2020014F0BDF843F65030C0F2020014F0B7F843F69C30C0F2F3
:401F8000020014F0B1F843F6EC30C0F2020014F0ABF843F63C40C0F2020014F0A5F843F68440C0F2020014F09FF843F6C840C0F2020014F099F843F61450C0F2020014F08D
:401FC00093F843F66050C0F2020014F08DF843F6B050C0F2020014F087F843F60060C0F2020014F081F843F64860C0F2020014F07BF843F6A060C0F2020014F075F843F653
:40200000DC60C0F2020014F06FF843F62470C0F2020014F069F843F67470C0F2020014F063F843F6BC70C0F2020014F05DF843F6FC70C0F2020014F057F844F23C00C0F2ED
:40204000020014F051F844F28C00C0F2020014F04BF844F2D400C0F2020014F045F844F21410C0F2020014F03FF844F25410C0F2020014F039F844F29810C0F2020014F0F3
:4020800033F844F2DC10C0F2020014F02DF844F22020C0F2020014F027F844F26420C0F2020014F021F844F2AC20C0F2020014F01BF844F2F420C0F2020014F015F844F20C
:4020C0004030C0F2020014F00FF844F28C30C0F2020014F009F844F2D830C0F2020014F003F844F21C40C0F2020013F0FDFF44F26840C0F2020013F0F7FF44F29C40C0F281
:40210000020013F0F1FF42F6FC20C0F2020013F0EBFF44F2CC40C0F2020013F0E5FF44F2F440C0F2020013F0DFFF44F22050C0F2020013F0D9FF44F24C50C0F2020013F01B
:40214000D3FF44F27850C0F2020013F0CDFF44F2A450C0F2020013F0C7FF44F2D050C0F2020013F0C1FF44F2FC50C0F2020013F0BBFF44F22860C0F2020013F0B5FF44F246
:402180006860C0F2020013F0AFFF44F2C460C0F2020013F0A9FF44F2FC60C0F2020013F0A3FF44F21C70C0F2020013F09DFF44F24470C0F2020013F097FF44F26870C0F242
:4021C000020013F091FF44F29C70C0F2020013F08BFF44F2B470C0F2020013F085FF44F2F070C0F2020013F07FFF44F64C00C0F2020013F079FF44F6A800C0F2020013F019
:4022000073FF06F037B900BF9F100020F04844F60C11C0F2020114F01DF80346002B40F0DA8043F2EC20C0F2020013F05DFF43F2DC70C0F2020013F057FF44F61410C0F26B
:40224000020013F051FF44F64810C0F2020013F04BFF44F68010C0F2020013F045FF44F6B410C0F2020013F03FFF44F6F010C0F2020013F039FF44F63420C0F2020013F050
:4022800033FF44F66820C0F2020013F02DFF44F6AC20C0F2020013F027FF44F6F820C0F2020013F021FF44F63030C0F2020013F01BFF44F67030C0F2020013F015FF44F6F1
:4022C000B030C0F2020013F00FFF44F60840C0F2020013F009FF44F66040C0F2020013F003FF44F6A440C0F2020013F0FDFE44F6E840C0F2020013F0F7FE44F62850C0F223
:40230000020013F0F1FE44F65850C0F2020013F0EBFE44F69C50C0F2020013F0E5FE44F6E050C0F2020013F0DFFE44F62C60C0F2020013F0D9FE44F67060C0F2020013F054
:40234000D3FE44F6B460C0F2020013F0CDFE44F60070C0F2020013F0C7FE44F63070C0F2020013F0C1FE44F66C70C0F2020013F0BBFE44F6A870C0F2020013F0B5FE44F6CA
:40238000E470C0F2020013F0AFFE45F22800C0F2020013F0A9FE45F26C00C0F2020013F0A3FE45F2AC00C0F2020013F09DFE45F2F400C0F2020013F097FE45F22C10C0F2DC
:4023C000020013F091FE45F27410C0F2020013F08BFE06F04FB87E4845F29811C0F2020113F038FF0346002B7FD145F29C10C0F2020013F079FE45F2AC10C0F2020013F03D
:4024000073FE45F2BC10C0F2020013F06DFE45F2CC10C0F2020013F067FE45F2D810C0F2020013F061FE45F2E410C0F2020013F05BFE45F2F410C0F2020013F055FE45F2EB
:402440000420C0F2020013F04FFE45F21420C0F2020013F049FE45F22420C0F2020013F043FE45F23020C0F2020013F03DFE45F23C20C0F2020013F037FE45F25020C0F207
:40248000020013F031FE45F26420C0F2020013F02BFE45F27C20C0F2020013F025FE45F29020C0F2020013F01FFE45F2A420C0F2020013F019FE45F2BC20C0F2020013F052
:4024C00013FE45F2D420C0F2020013F00DFE45F2E020C0F2020013F007FE45F2F020C0F2020013F001FE05F0C5BF394845F20031C0F2020113F0AEFE0346002B13D145F299
:402500000830C0F2020013F0EFFD43F2DC70C0F2020013F0E9FD45F22C30C0F2020013F0E3FD05F0A7BF2A4843F27411C0F2020113F090FE0346002B13D143F23830C0F204
:40254000020013F0D1FD43F2DC70C0F2020013F0CBFD45F23830C0F2020013F0C5FD05F089BF1B4843F21C01C0F2020113F072FE0346002B09D0164843F21801C0F20201A8
:4025800013F068FE0346002B19D143F27430C0F2020013F0A9FD43F2DC70C0F2020013F0A3FD45F24430C0F2020013F09DFD45F25030C0F2020013F097FD05F05BBF45F202
:4025C0005830C0F2020013F03BFD05F053BF00BF9F10002041F29000C2F2000044F60C11C0F2020113F036FE0346002B0DD041F29000C2F2000045F27431C0F2020113F0B9
:4026000029FE0346002B43F0AC82104845F27831C0F2020113F01EFE0346002B0ED00B4845F28031C0F2020113F014FE0346002B04D0064B1B78002B40F0D38245F2883070
:40264000C0F2020013F0FCFCBDE200BF9F10002045F29030C0F2020013F0F2FC45F29430C0F2020013F040FD45F2B830C0F2020013F03AFD45F29430C0F2020013F034FD03
:4026800042F6FC20C0F2020013F02EFD4AF23403C1F6FF73DB68184612F038FC02460B4645F2DC30C0F2020013F0CAFC4FF0010007F004FE40F27473C2F20003DB6818466E
:4026C00012F024FC02460B4645F2FC30C0F2020013F0B6FC42F6FC20C0F2020013F004FD4AF23403C1F6FF735B6C184613F02EF8034618464FF00001C4F2B43113F07AF866
:4027000003461A464AF23403C1F6FF73DB681046194613F023F90346184612F0F7FB02460B4645F21C40C0F2020013F089FC4FF00D0007F0C3FD40F27473C2F200035B6CA0
:40274000184613F003F8034618464FF00001C4F2B43113F04FF803461A4640F27473C2F20003DB681046194613F0F8F80346184612F0CCFB02460B4645F23440C0F2020065
:4027800013F05EFC42F6FC20C0F2020013F0ACFC42F6FC20C0F2020013F0A6FC4AF23403C1F6FF735B6C184612F0D0FF0346184612F0ACFB02460B4645F24C40C0F202006A
:4027C00013F03EFC4FF00E0007F078FD40F27473C2F200035B6C184612F0B8FF0346184612F094FB02460B4645F26440C0F2020013F026FC42F6FC20C0F2020013F074FC35
:402800004AF23403C1F6FF735B6B184612F09EFF0346184612F07AFB02460B4645F27C40C0F2020013F00CFC4FF0090007F046FD40F27473C2F200035B6B184612F086FFD3
:402840000346184612F062FB02460B4645F29840C0F2020013F0F4FB42F6FC20C0F2020013F042FC4AF23403C1F6FF73DB6B184612F06CFF0346184612F048FB02460B4689
:4028800045F2B440C0F2020013F0DAFB4FF0090007F014FD40F27473C2F20003DB6B184612F054FF0346184612F030FB02460B4645F2D040C0F2020013F0C2FB42F6FC20CC
:4028C000C0F2020013F010FC42F6FC20C0F2020013F00AFC4AF23403C1F6FF739B6D184612F014FB02460B4645F2EC40C0F2020013F0A6FB4FF0150007F0E0FC40F274735D
:40290000C2F200039B6D184612F000FB02460B4645F2FC40C0F2020013F092FB42F6FC20C0F2020013F0E0FB4AF23403C1F6FF735B6E184612F0EAFA02460B4645F20C5072
:40294000C0F2020013F07CFB4FF0140007F0B6FC40F27473C2F200035B6E184612F0D6FA02460B4645F21C50C0F2020013F068FB42F6FC20C0F2020013F0B6FB4AF23403DF
:40298000C1F6FF731B6E184612F0C0FA02460B4645F22C50C0F2020013F052FB4FF0140007F08CFC40F27473C2F200031B6E184612F0ACFA02460B4645F23C50C0F20200BA
:4029C00013F03EFB42F6FC20C0F2020013F08CFB4AF23403C1F6FF731B6F184612F096FA02460B4645F24C50C0F2020013F028FB4FF0160007F062FC40F27473C2F2000333
:402A00001B6F184612F082FA02460B4645F25C50C0F2020013F014FB42F6FC20C0F2020013F062FB4AF23403C1F6FF73B3F874309BB245F26C50C0F20200194613F000FB4A
:402A40004FF0130007F03AFC40F27473C2F20003B3F874309BB245F27C50C0F20200194613F0EEFA42F6FC20C0F2020013F03CFB48F65422C1F6FF7245F28C53C0F202037F
:402A800014460FCB07C423704FF0320048F65421C1F6FF7107F078FC4AF23403C1F6FF731B6F184613F06CF803469BB21BB218464FF400714FF0320248F65423C1F6FF731D
:402AC00007F014FC48F65422C1F6FF7245F29C53C0F2020314460FCB07C4237040F27473C2F200031B6F184613F04AF803469BB21BB218464FF400714FF0320248F65423EA
:402B0000C1F6FF7307F0F2FB4FF0320048F65421C1F6FF7107F038FC42F6FC20C0F2020013F0E2FA45F2AC50C0F2020013F0DCFA45F2B850C0F2020013F0D6FA45F2C4505A
:402B4000C0F2020013F07CFA48F61C23C1F6FF731B78062B06D145F2D450C0F2020013F0C3FA13E048F61C23C1F6FF731B78052B06D145F2EC50C0F2020013F0B5FA05E027
:402B800045F20060C0F2020013F0AEFA48F62823C1F6FF731B881A4648F62A23C1F6FF731B8845F22460C0F2020011461A4613F047FA42F6FC20C0F2020013F095FA4FF0D0
:402BC00032000FF089FD05F063FC0346002B3FF43FAD42F6FC20C0F2020013F085FA05F049BCC54845F25061C0F2020113F032FB0346002B00F08C80BF4845F25861C0F2C0
:402C0000020113F027FB0346002B40F08A807FE041F27C03C2F200031B881BB245F25C60C0F20200194613F00BFA41F27C03C2F200035B881BB245F26460C0F20200194651
:402C400013F0FEF941F27C03C2F200039B881BB245F27060C0F20200194613F0F1F941F27C03C2F20003DB881BB245F27C60C0F20200194613F0E4F941F27C03C2F20003F2
:402C80001B891BB245F28460C0F20200194613F0D7F941F27C03C2F200035B891BB245F28C60C0F20200194613F0CAF941F27C03C2F200039B891BB245F29460C0F2020053
:402CC000194613F0BDF941F27C03C2F20003DB891BB245F2A060C0F20200194613F0B0F941F27C03C2F200031B8A1BB245F2AC60C0F20200194613F0A3F942F6FC20C0F256
:402D0000020013F0F1F94FF032000FF0E5FC00E000BF05F0BDFB0346002B3FF479AF05F0A9BB754845F2B861C0F2020113F092FA0346002B35D12DE041F27C03C2F200039E
:402D40009B881BB2184612F001FD0346184612F0DDF802460B46104619464FF000024FF00003C4F2140312F025F902460B46104619465FA3D3E9002312F046FA02460B46BF
:402D800045F2BC60C0F2020013F05AF94FF064000FF0A2FC05F07CFB0346002BCCD005F069BB554845F2D061C0F2020113F052FA0346002B65D0504845F2D861C0F2020172
:402DC00013F048FA0346002B63D15AE04AF23403C1F6FF739B6F184612F098F804460D4640F27473C2F200039B6F184612F08EF802460B46CDE9002345F2DC60C0F2020020
:402E000022462B4613F01CF911F0F2FB034645F20870C0F20200194613F012F911F0E8FB034603F00103002B06D145F22070C0F2020013F005F905E045F23470C0F2020084
:402E400013F0FEF811F0D4FB034603F00203002B06D145F24870C0F2020013F0F1F805E045F25C70C0F2020013F0EAF84FF064000FF032FC42F6FC20C0F2020013F034F92E
:402E800000E000BF05F004FB0346002B9ED005F0F1BA194845F26C71C0F2020113F0DAF90346002B0AD0144845F27871C0F2020113F0D0F90346002B40F0CB8011F0FEFBC9
:402EC00040F66020C2F200000CF096FD4AF2C800C1F6FF700DF06AF845F27C70C0F2020013F002F94FF4FA700FF0F6FB74E000BF0000000000FEAF409F1000204AF2C8000B
:402F0000C1F6FF700CF082FF0346184611F0FEFF04460D460CF032FE0346184611F0F6FFC7E904014AF2C800C1F6FF700CF0ACFF0346184611F0EAFFC7E9020140F6602063
:402F4000C2F200000CF024FE0346184611F0DEFFC7E9000140F66020C2F200000CF024FE0346184611F0D2FF82468B4640F66020C2F200000CF0AAFE0346184611F0C6FF34
:402F80008046894640F66020C2F200000CF0ACFE0346184611F0BAFF02460B46D7E90401CDE90001D7E90201CDE90201D7E90001CDE90401CDE906ABCDE90889CDE90A236D
:402FC00045F28C70C0F2020022462B4613F038F84FF01E000FF080FB05F05AFA0346002B8CD040F66020C2F200000CF011FD11F077FB4AF2C800C1F6FF7040F66021C2F272
:4030000000010CF0E3FF0346184611F07FFF04460D464AF2C800C1F6FF7040F66021C2F200014FF00002C4F27A420DF003F80346184611F06BFF02460B46CDE9002345F6EE
:403040000800C0F2020022462B4612F0F9FF05F011BA834845F65001C0F2020113F0FAF80346002B0AD07E4845F65C01C0F2020113F0F0F80346002B40F0C48011F01EFBB2
:4030800040F69810C2F200000CF0B6FC40F68800C2F200000CF08AFF45F66000C0F2020013F022F84FF4FA700FF016FB6DE040F68800C2F200000CF0A9FE0346184611F0A6
:4030C00025FF04460D460CF059FD0346184611F01DFFC7E90A0140F68800C2F200000CF0D3FE0346184611F011FFC7E9080140F69810C2F200000CF04BFD0346184611F010
:4031000005FFC7E9060140F69810C2F200000CF04BFD0346184611F0F9FE82468B4640F69810C2F200000CF0D1FD0346184611F0EDFE8046894640F69810C2F200000CF0B4
:40314000D3FD0346184611F0E1FE02460B46D7E90A01CDE90001D7E90801CDE90201D7E90601CDE90401CDE906ABCDE90889CDE90A2345F28C70C0F2020022462B4612F086
:403180005FFF4FF01E000FF0A7FA05F081F90346002B8CD040F69810C2F200000CF038FC11F09EFA40F68800C2F2000040F69811C2F200010CF00AFF0346184611F0A6FEC3
:4031C00004460D4640F68800C2F2000040F69811C2F200014FF00002C4F27A420CF02AFF0346184611F092FE02460B46CDE9002345F60800C0F2020022462B4612F020FFB9
:4032000005F038B9164845F67001C0F2020113F021F80346002B0AD0114845F67C01C0F2020113F017F80346002B40F0D28011F045FA40F66020C2F200000CF0DDFB4AF2F7
:40324000C800C1F6FF700CF0B1FE45F27C70C0F2020012F049FF4FF4FA700FF03DFA7BE09F1000204AF2C800C1F6FF700CF0CEFD0346184611F04AFE04460D460CF07EFC93
:403280000346184611F042FEC7E910014AF2C800C1F6FF704FF00001C4F278210CF06CFE0346184611F032FEC7E90E0140F66020C2F200000CF06CFC0346184611F026FE15
:4032C000C7E90C0140F66020C2F200004FF00001C4F278210CF0E0FC0346184611F016FE82468B4640F66020C2F200000CF0EEFC0346184611F00AFE8046894640F66020A0
:40330000C2F200004FF00001C4F278210CF064FD0346184611F0FAFD02460B46D7E91001CDE90001D7E90E01CDE90201D7E90C01CDE90401CDE906ABCDE90889CDE90A238C
:4033400045F68000C0F2020022462B4612F078FE4FF01E000FF0C0F905F09AF80346002B80D040F66020C2F200000CF051FB11F0B7F94AF2C800C1F6FF7040F66021C2F235
:4033800000010CF023FE0346184611F0BFFD04460D464AF2C800C1F6FF7040F66021C2F200014FF00002C4F27A420CF043FE0346184611F0ABFD02460B46CDE9002345F66B
:4033C0000800C0F2020022462B4612F039FE05F051B8C84845F6FC01C0F2020112F03AFF0346002B0AD0C34845F60811C0F2020112F030FF0346002B40F0D08011F05EF9EA
:4034000040F69810C2F200000CF0F6FA40F68800C2F200000CF0CAFD45F66000C0F2020012F062FE4FF4FA700FF056F979E040F68800C2F200000CF0E9FC0346184611F0D9
:4034400065FD04460D460CF099FB0346184611F05DFDC7E9160140F68800C2F200004FF00001C4F22C310CF087FD0346184611F04DFDC7E9140140F69810C2F200000CF06A
:4034800087FB0346184611F041FDC7E9120140F69810C2F200004FF00001C4F22C310CF0FBFB0346184611F031FD82468B4640F69810C2F200000CF009FC0346184611F060
:4034C00025FD8046894640F69810C2F200004FF00001C4F22C310CF07FFC0346184611F015FD02460B46D7E91601CDE90001D7E91401CDE90201D7E91201CDE90401CDE906
:4035000006ABCDE90889CDE90A2345F68000C0F2020022462B4612F093FD4FF01E000FF0DBF804F0B5FF0346002B80D040F69810C2F200000CF06CFA11F0D2F840F68800BE
:40354000C2F2000040F69811C2F200010CF03EFD0346184611F0DAFC04460D4640F68800C2F2000040F69811C2F200014FF00002C4F27A420CF05EFD0346184611F0C6FC37
:4035800002460B46CDE9002345F60800C0F2020022462B4612F054FD04F06CBF554845F60C11C0F2020112F055FE0346002B0AD0504845F61411C0F2020112F04BFE0346C9
:4035C000002B40F0998011F079F84AF2C800C1F6FF700CF0C5FA40F63020C2F200000CF043FA45F27C70C0F2020012F07DFD4FF4FA700FF071F86DE04AF2C800C1F6FF70AE
:403600000CF042FCC7F894004AF2C800C1F6FF700CF008FCC7F890004AF2C800C1F6FF700CF00EFCC7F88C004AF2C800C1F6FF700CF072FCC7F8880040F63020C2F20000F4
:403640000CF0FAFAC7F8840040F63020C2F200000CF092FBC7F88000D7F8940011F056FC04460D46D7F8900011F050FCC7E91A01D7F88C0011F04AFCC7E91801D7F8880089
:4036800011F044FC82468B46D7F8840011F03EFC80468946D7F8800011F038FC02460B46D7E91A01CDE90001D7E91801CDE90201CDE904ABCDE90689CDE9082345F61810DE
:4036C000C0F2020022462B4612F0BAFC4FF01E000FF002F804F0DCFE0346002B8CD040F63020C2F200000CF0CBF910F0F9FF04F0C1BE00BF9F100020BC4845F67C11C0F220
:40370000020112F0A7FD0346002B0AD0B74845F68411C0F2020112F09DFD0346002B40F0968010F0CBFF40F68800C2F200000CF017FA40F66810C2F200000CF095F945F648
:403740006000C0F2020012F0CFFC4FF4FA700EF0C3FF6DE040F68800C2F200000CF094FBC7F8AC0040F68800C2F200000CF05AFBC7F8A80040F68800C2F200000CF060FB53
:40378000C7F8A40040F68800C2F200000CF0C4FBC7F8A00040F66810C2F200000CF04CFAC7F89C0040F66810C2F200000CF0E4FAC7F89800D7F8AC0011F0A8FB04460D46CC
:4037C000D7F8A80011F0A2FBC7E91E01D7F8A40011F09CFBC7E91C01D7F8A00011F096FB82468B46D7F89C0011F090FB80468946D7F8980011F08AFB02460B46D7E91E0182
:40380000CDE90001D7E91C01CDE90201CDE904ABCDE90689CDE9082345F61810C0F2020022462B4612F00CFC4FF01E000EF054FF04F02EFE0346002B8CD040F66810C2F2B6
:4038400000000CF01DF910F04BFF04F013BE674845F68811C0F2020112F0FCFC0346002B09D0624845F69411C0F2020112F0F2FC0346002B4DD145F69C10C0F2020012F04A
:40388000DFFB40F60833C2F200035B68184611F03DFB02460B4645F6B410C0F2020012F0CFFB40F60833C2F200031B69184611F02DFB02460B4645F6C810C0F2020012F0FF
:4038C000BFFB40F60833C2F20003DB68184611F01DFB02460B4645F6DC10C0F2020012F0AFFB40F60833C2F200035B69184611F00DFB02460B4645F6F010C0F2020012F02F
:403900009FFB42F6FC20C0F2020012F0EDFB04F0B1BD364845F60421C0F2020112F09AFC0346002B09D0314845F61021C0F2020112F090FC0346002B4DD145F61820C0F242
:40394000020012F07DFB48F66433C1F6FF735B68184611F0DBFA02460B4645F6B410C0F2020012F06DFB48F66433C1F6FF731B69184611F0CBFA02460B4645F6C810C0F21C
:40398000020012F05DFB48F66433C1F6FF73DB68184611F0BBFA02460B4645F6DC10C0F2020012F04DFB48F66433C1F6FF735B69184611F0ABFA02460B4645F6F010C0F24C
:4039C000020012F03DFB42F6FC20C0F2020012F08BFB04F04FBD054845F63021C0F2020112F038FC0346002B3AD132E09F10002041F27C03C2F200031B8A1BB245F6382069
:403A0000C0F20200194612F01BFB4AF23403C1F6FF73DB6F184611F079FA02460B4645F65820C0F2020012F00BFB40F27473C2F20003DB6F184611F069FA02460B4645F6EB
:403A40007420C0F2020012F0FBFA4FF00A000EF043FE04F01DFD0346002BC9D004F00ABDB34845F69021C0F2020112F0F3FB0346002B39D0AE4845F69C21C0F2020112F0FB
:403A8000E9FB0346002B37D12EE040F63C13C2F20003DB68184611F039FA04460D4640F63C13C2F200031B69184611F02FFA8046894640F63C13C2F200035B69184611F0AE
:403AC00025FA02460B46CDE90089CDE9022345F6A420C0F2020022462B4612F0B1FA4FF032000EF0F9FD00E000BF04F0D1FC0346002BCAD004F0BEBC8D4845F6F821C0F29F
:403B0000020112F0A7FB0346002B00F08180884845F60431C0F2020112F09CFB0346002B7ED175E040F6DC73C2F20003DB68184611F0ECF904460D4640F6DC73C2F2000337
:403B40001B881BB2009345F60C30C0F2020022462B4612F075FA40F6DC73C2F20003DB69184611F0D3F904460D4640F6DC73C2F200031B8A1BB2009345F62030C0F2020005
:403B800022462B4612F05CFA40F6DC73C2F20003DB6A184611F0BAF904460D4640F6DC73C2F200031B8C1BB2009345F63430C0F2020022462B4612F043FA40F6DC73C2F2BD
:403BC00000035B6B184611F0A1F902460B4645F64830C0F2020012F033FA40F6DC73C2F200039B6B184611F091F902460B4645F65C30C0F2020012F023FA42F6FC20C0F270
:403C0000020012F071FA4FF032000EF065FD00E000BF04F03DFC0346002B83D004F02ABC434845F67031C0F2020112F013FB0346002B69D03E4845F67831C0F2020112F0DD
:403C400009FB0346002B5FD0394845F68031C0F2020112F0FFFA0346002B5DD154E045F68830C0F2020012F0EBF940F69423C2F20003DB6845F69030C0F20200194612F026
:403C8000DFF940F69423C2F200031B7C45F6A830C0F20200194612F0D3F940F69423C2F200031B7D45F6B830C0F20200194612F0C7F940F69423C2F200039B7C45F6C830DB
:403CC000C0F20200194612F0BBF940F69423C2F200031B7845F6D430C0F20200194612F0AFF940F69423C2F200031B781846FCF7B3FB42F6FC20C0F2020012F0F5F94FF05B
:403D000032000EF0E9FC00E000BF04F0C1FB0346002BA4D004F0AEBB054845F6E031C0F2020112F097FA0346002B52D14AE000BF9F10002045F6E830C0F2020012F080F928
:403D40004AF22803C1F6FF735B7845F6F430C0F20200194612F074F94AF22803C1F6FF739B7845F60040C0F20200194612F068F94AF22803C1F6FF739B8845F60C40C0F27F
:403D80000200194612F05CF94AF22803C1F6FF731B7845F61C40C0F20200194612F050F94AF22803C1F6FF731B781846FCF7BEFB42F6FC20C0F2020012F096F94FF03200FC
:403DC0000EF08AFC04F064FB0346002BB2D004F051BBC84845F62C41C0F2020112F03AFA0346002B42D0C34845F63441C0F2020112F030FA0346002B40D137E00DF016FE84
:403E0000034645F63840C0F20200194612F018F90DF00CFE0346012B06D145F64840C0F2020012F00DF916E00DF000FE0346022B06D145F65040C0F2020012F001F90AE0EB
:403E40000DF0F4FD0346042B05D145F65840C0F2020012F0F5F842F6FC20C0F2020012F043F94FF032000EF037FC00E000BF04F00FFB0346002BC1D004F0FCBA9D4845F63C
:403E80006041C0F2020112F0E5F90346002B25D0984845F66841C0F2020112F0DBF90346002B23D11AE040F6DC73C2F200039B6B184611F02BF802460B4645F67040C0F2B8
:403EC000020012F0BDF842F6FC20C0F2020012F00BF94FF032000EF0FFFB00E000BF04F0D7FA0346002BDED004F0C4BA814845F6B041C0F2020112F0ADF90346002B6DD097
:403F00007C4845F6BC41C0F2020112F0A3F90346002B6BD162E04AF23403C1F6FF735B6C42F64070C0F20200194612F089F840F64C03C2F200035B68184611F021FE034699
:403F400045F6C040C0F20200194612F079F840F64C03C2F200031B69184610F0D7FF02460B4645F6D840C0F2020012F069F840F27473C2F200035B6C45F6E840C0F20200DB
:403F8000194612F05DF840F6C423C2F200035B68184611F0F5FD034645F6C040C0F20200194612F04DF840F6C423C2F200031B69184610F0ABFF02460B4645F6D840C0F287
:403FC000020012F03DF842F6FC20C0F2020012F08BF84FF032000EF07FFB00E000BF04F057FA0346002B96D004F044BA414845F60851C0F2020112F02DF90346002B09D01B
:404000003C4845F61051C0F2020112F023F90346002B42D145F61850C0F2020012F064F845F66C50C0F2020012F00AF84FF0010004F03CFA0346012B44F011820DF06EFC95
:404040004FF400700FF06AF84FF4007010F06CF818E00EF0BBFD034645F69C50C0F20200194611F0EDFF0FF0B5FE034645F6AC50C0F20200194611F0E3FF04F009FA03468F
:40408000012B05D004F004FA0346002BE1D000E000BF0DF031FC04F0E2B9164845F6C051C0F2020112F0D6F80346002B49D0114845F6CC51C0F2020112F0CCF80346002B34
:4040C00047D13EE010F094FA034645F6D050C0F20200194611F0B4FF10F08AFA034603F00103002B08D145F6E450C0F2020011F0A7FF07E09F10002045F6F850C0F2020012
:4041000011F09EFF10F074FA034603F00203002B06D145F60C60C0F2020011F091FF05E045F62460C0F2020011F08AFF42F6FC20C0F2020011F0D8FF4FF032000EF0CCFA4D
:4041400000E000BF04F0A4F90346002BBAD004F091B9C14845F29811C0F2020112F07AF80346002B0AD0BC4845F63861C0F2020112F070F80346002B40F04381B74845F6DA
:404180004061C0F2020112F065F80346002B44D14FF0000387F8FF303AE097F9FF1040F63832C2F200020B464FEAC3035B184FEA8303D3181B78002B0AD197F9FF309BB2B0
:4041C00045F64460C0F20200194611F039FF19E097F9FF309BB21C4697F9FF1040F63832C2F200020B464FEAC3035B184FEA8303D3181B7845F66460C0F2020021461A46BE
:4042000011F01EFF97F8FF3003F1010387F8FF3097F9FF30202BC0DDF1E0904811F050FD034687F8E53097F8E530002B00F0DF808A4811F045FD034687F8E53097F8E530CD
:40424000632B00F2D48097F8E52040F6CC13C2F200039B5CFF2B00F0C08097F8E56097F8E52040F6CC13C2F200039B5C194640F63832C2F200020B464FEAC3035B184FEADD
:404280008303D31803F118031B68184611F078FC054697F8E52040F6CC13C2F200039B5C194640F63832C2F200020B464FEAC3035B184FEA8303D31803F104031B68184688
:4042C00011F05EFC044697F8E52040F6CC13C2F200039B5C194640F63832C2F200020B464FEAC3035B184FEA8303D31803F108031B891BB2009345F68860C0F2020031464F
:404300002A46234611F09CFE97F8E56097F8E52040F6CC13C2F200039B5C194640F63832C2F200020B464FEAC3035B184FEA8303D31803F11C031B68184611F021FC05465F
:4043400097F8E52040F6CC13C2F200039B5C194640F63832C2F200020B464FEAC3035B184FEA8303D31803F108031B68184611F007FC044697F8E52040F6CC13C2F2000336
:404380009B5C194640F63832C2F200020B464FEAC3035B184FEA8303D31803F10A031B891BB2009345F6E860C0F2020031462A46234611F045FE97F8E52097F8E51040F6C6
:4043C000CC13C2F200035B5C45F64870C0F2020011461A4611F034FE11E097F8E53045F67C70C0F20200194611F02AFE07E045F69870C0F2020011F023FE04F03BB804F00C
:4044000039B8154845F6B871C0F2020111F022FF0346002B0AD0104845F6C071C0F2020111F018FF0346002B40F0B1820B4811F047FC034687F8EB30084811F041FC0346EC
:4044400087F8EB3097F8EB30402B00F296824FF0000387F813317EE29F100020AE10002097F8133145F6C470C0F20200194611F0E7FD97F8EB2097F8131148F69833C1F62A
:40448000FF734FF0680000FB01F14FF43C7000FB02F28A189B1803F108031B6818464FF00001C4F2C82111F0A5F90346184610F02DFD02460B4645F6DC70C0F2020011F0BF
:4044C000BFFD97F8EB2097F8131148F69833C1F6FF734FF0680000FB01F14FF43C7000FB02F28A189B1803F108035B6818464FF00001C4F2C82111F07DF90346184610F09D
:4045000005FD02460B4645F6FC70C0F2020011F097FD97F8EB2097F8131148F69833C1F6FF734FF0680000FB01F14FF43C7000FB02F28A189B1803F110031B68184610F0C2
:40454000E5FC02460B4646F21C00C0F2020011F077FD97F8EB2097F8131148F69833C1F6FF734FF0680000FB01F14FF43C7000FB02F28A189B1803F110035B68184611F0D5
:40458000E5F80346184610F0C1FC02460B4646F23C00C0F2020011F053FD97F8EB2097F8131148F69833C1F6FF734FF0680000FB01F14FF43C7000FB02F28A189B1803F16E
:4045C00018031B7846F25C00C0F20200194611F037FD46F27C00C0F2020011F085FD97F8EB2097F8131148F69833C1F6FF734FF0680000FB01F14FF43C7000FB02F28A18B3
:404600009B1803F140035B6846F29C00C0F20200194611F015FD97F8EB2097F8131148F69833C1F6FF734FF0680000FB01F14FF43C7000FB02F28A189B1803F138031B68DB
:4046400046F2BC00C0F20200194611F0F9FC97F8EB2097F8131148F69833C1F6FF734FF0680000FB01F14FF43C7000FB02F28A189B1803F138035B6846F2DC00C0F202003D
:40468000194611F0DDFC97F8EB2097F8131148F69833C1F6FF734FF0680000FB01F14FF43C7000FB02F28A189B1803F140031B6846F2FC00C0F20200194611F0C1FC97F82D
:4046C000EB2097F8131148F69833C1F6FF734FF0680000FB01F14FF43C7000FB02F28A189B1803F148031B6846F21C10C0F20200194611F0A5FC97F8EB2097F8131148F69D
:404700009833C1F6FF734FF0680000FB01F14FF43C7000FB02F28A189B1803F12003D3E900231046194610F007FF0346184610F0EDFB02460B4646F23C10C0F2020011F0AC
:404740007FFC97F8EB2097F8131148F69833C1F6FF734FF0680000FB01F14FF43C7000FB02F28A189B1803F13003D3E900231046194610F0E1FE0346184610F0C7FB02462D
:404780000B4646F26410C0F2020011F059FC97F8EB2097F8131148F69833C1F6FF734FF0680000FB01F14FF43C7000FB02F28A189B1803F12803D3E900231046194610F0F9
:4047C000BBFE0346184610F0A1FB02460B4646F28C10C0F2020011F033FC97F8EB2097F8131148F69833C1F6FF734FF0680000FB01F14FF43C7000FB02F28A189B1803F132
:404800005803D3E900231046194610F095FE0346184610F07BFB02460B4646F2B410C0F2020011F00DFC97F8EB2097F8131148F69833C1F6FF7301F101014FF0680000FB71
:4048400001F14FF43C7000FB02F28A189B181B68184610F05BFB02460B4646F2DC10C0F2020011F0EDFB97F8EB2097F8131148F69833C1F6FF734FF0680000FB01F14FF42C
:404880003C7000FB02F28A189B1803F15003D3E900231046194610F04FFE0346184610F035FB02460B4646F20420C0F2020011F0C7FB97F8EB2097F8131148F69833C1F690
:4048C000FF7301F101014FF0680000FB01F14FF43C7000FB02F28A189B185B68184610F015FB02460B4646F22C20C0F2020011F0A7FB97F8EB2097F8131148F69833C1F6D9
:40490000FF734FF0680000FB01F14FF43C7000FB02F28A189B1803F16003D3E900231046194610F009FE0346184610F0EFFA02460B4646F25420C0F2020011F081FB42F60E
:40494000FC20C0F2020011F0CFFB97F8133103F1010387F8133197F8EB2048F69833C1F6FF734FF43C7101FB02F29B181B7897F813219A42FFF474AD07E045F69870C0F28D
:40498000020011F05DFB03F075BD03F073BD984846F27C21C0F2020111F05CFC0346002B44D1944B1B78002B36D12FE040F60803C2F200035B681A4640F6A803C2F20003A2
:4049C0005B6846F28420C0F2020011461A4611F037FB40F60803C2F200031B781A4640F6A803C2F200031B7846F2A420C0F2020011461A4611F024FB42F6FC20C0F20200D5
:404A000011F072FB4FF032000DF066FE03F040FD0346002BCAD007E045F69870C0F2020011F00EFB03F026BD03F024BD704846F2B821C0F2020111F00DFC0346002B1ED17B
:404A40006C4811F03DF9034687F8EA30694811F037F9034687F8EA3097F8EA30312B06D897F8EA30184609F017FF03F003BD45F69870C0F2020011F0E3FA03F0FBBC5C48D6
:404A800046F2BC21C0F2020111F0E4FB0346002B28D0574846F2C821C0F2020111F0DAFB0346002B26D11DE04AF23403C1F6FF7393F8843046F2D020C0F20200194611F016
:404AC000BFFA4AF23400C1F6FF70FCF737F842F6FC20C0F2020011F007FB4FF032000DF0FBFD00E000BF03F0D3FC0346002BDBD003F0C0BC3E4846F2E021C0F2020111F070
:404B0000A9FB0346002B28D0394846F2EC21C0F2020111F09FFB0346002B26D11DE040F27473C2F2000393F8843046F2F420C0F20200194611F084FA40F27470C2F2000030
:404B4000FBF7FCFF42F6FC20C0F2020011F0CCFA4FF032000DF0C0FD00E000BF03F098FC0346002BDBD003F085BC214846F20431C0F2020111F06EFB0346002B0AD01C482E
:404B800046F21031C0F2020111F064FB0346002B40F0038145F61850C0F2020011F0A4FA46F21830C0F2020011F04AFA4FF0010003F07CFC0346012B40F0EB800CF0AEFE6D
:404BC0004AF23400C1F6FF7006F09CF940F27470C2F2000006F096F940F64C03C2F200034FF000029A624FF0000387F81231CBE09F100020AE10002041F27C03C2F2000307
:404C00009B891BB246F24C30C0F20200194611F017FA0DF0DBFF034646F26830C0F20200194611F00DFA40F64C03C2F200039B6A184610F06BF902460B4646F27830C0F271
:404C4000020011F0FDF942F6FC20C0F2020011F04BFA0CF057FD034687F8123197F81231722B03D097F81231522B1CD10DF0AEFF024640F64C03C2F200039A6141F27C0339
:404C8000C2F200039B891AB240F64C03C2F20003DA6146F29030C0F2020011F025FA4FF0000387F8123197F81231732B03D097F81231532B46D10DF089FF024640F64C030A
:404CC000C2F200039B69D31A184610F03FFD024640F64C03C2F200031A6241F27C03C2F200039B891AB240F64C03C2F20003DB69D31A184610F02AFD024640F64C03C2F2A6
:404D000000035A6240F64C03C2F200031A6A40F64C03C2F200035B6A1046194610F01EFE034623F0004240F64C03C2F200039A6246F2A830C0F2020011F0D6F94FF0000376
:404D400087F8123197F81231652B03D097F81231452B19D140F64C03C2F200039A6A40F64C03C2F200039A6300BF0CF0C5FD03F009FD034687F8D93046F2CC30C0F2020068
:404D800011F0B2F903F076BB97F81231002B3FF433AF0CF0B1FD03F06DBBBB4846F2FC31C0F2020111F056FA0346002B0AD0B64846F20841C0F2020111F04CFA0346002BA1
:404DC00040F0FF8045F61850C0F2020011F08CF946F21830C0F2020011F032F94FF0010003F064FB0346012B40F0E7800CF096FD4AF23400C1F6FF7006F084F840F274707C
:404E0000C2F2000006F07EF840F6C423C2F200034FF000029A624FF0000387F81231C7E041F27C03C2F20003DB891BB246F21040C0F20200194611F003F90EF0CBFF034653
:404E400046F26830C0F20200194611F0F9F840F6C423C2F200039B6A184610F057F802460B4646F27830C0F2020011F0E9F842F6FC20C0F2020011F037F90CF043FC03460B
:404E800087F8123197F81231722B03D097F81231522B1CD10EF09EFF024640F6C423C2F200039A6141F27C03C2F20003DB891AB240F6C423C2F20003DA6146F29030C0F2AE
:404EC000020011F011F94FF0000387F8123197F81231732B03D097F81231532B46D10EF079FF024640F6C423C2F200039B69D31A184610F02BFC024640F6C423C2F20003D3
:404F00001A6241F27C03C2F20003DB891AB240F6C423C2F20003DB69D31A184610F016FC024640F6C423C2F200035A6240F6C423C2F200031A6A40F6C423C2F200035B6A1E
:404F40001046194610F00AFD034623F0004240F6C423C2F200039A6246F2A830C0F2020011F0C2F84FF0000387F8123197F81231652B03D097F81231452B19D140F6C42306
:404F8000C2F200039A6A40F6C423C2F200039A6300BF0CF0B1FC03F0F5FB034687F8D93046F22C40C0F2020011F09EF803F062BA97F81231002B3FF433AF0CF09DFC03F0B1
:404FC00059BA314846F25C41C0F2020111F042F90346002B09D02C4846F26441C0F2020111F038F90346002B50D140F60033C2F200031B88002B07D146F26C40C0F20200E7
:4050000011F072F803F02DBA40F60033C2F200031B8803F00803002B14D046F27C40C0F2020011F061F840F60033C2F200031B8803F00203002B05D046F2A040C0F20200D2
:4050400011F052F840F60033C2F200031B8803F01003002B03F0058246F2D440C0F2020011F042F840F60033C2F200031B8803F00203002B03F0F58146F2A040C0F2020021
:4050800011F032F803F0EDB99F1000200A4846F2F841C0F2020111F0DDF80346002B0DD0054846F20051C0F2020111F0D3F80346002B43F0D88101E09F10002046F204502B
:4050C000C0F2020011F010F846F21450C0F2020011F00AF840F6AC23C2F200031B7846F22450C0F20200194610F0AAFFFBF750FB40F6AC23C2F200035B7846F24850C0F29B
:405100000200194610F09CFFFBF788FA42F6FC20C0F2020010F0E8FF42F6FC20C0F2020010F0E2FF46F26C50C0F2020010F0DCFF46F28450C0F2020010F0D6FF46F29C50EB
:40514000C0F2020010F07CFF4AF23403C1F6FF73DB6818460FF0DAFE02460B4646F2BC50C0F2020010F06CFF42F6FC20C0F2020010F0BAFF46F2D050C0F2020010F060FFC4
:4051800040F27473C2F20003DB6818460FF0BEFE02460B4646F2BC50C0F2020010F050FF42F6FC20C0F2020010F09EFF42F6FC20C0F2020010F098FF46F2F050C0F2020073
:4051C00010F092FF46F20060C0F2020010F08CFF46F21060C0F2020010F032FF4AF23403C1F6FF731B7C46F23060C0F20200194610F026FF42F6FC20C0F2020010F074FF0C
:4052000046F24860C0F2020010F01AFF4AF23403C1F6FF735B6918460FF078FE02460B4646F26860C0F2020010F00AFF42F6FC20C0F2020010F058FF46F26C60C0F2020021
:4052400010F0FEFE4AF23403C1F6FF739B6918460FF05CFE02460B4646F26860C0F2020010F0EEFE42F6FC20C0F2020010F03CFF46F28C60C0F2020010F0E2FEFBF766FB54
:4052800042F6FC20C0F2020010F02EFF46F2AC60C0F2020010F0D4FE4AF23403C1F6FF731B6A18460FF032FE04460D464AF23403C1F6FF731A6A4AF23403C1F6FF73DB69A4
:4052C0001046194610F096FA034618460FF01EFE02460B46CDE9002346F2CC60C0F2020022462B4610F0ACFE42F6FC20C0F2020010F0FAFE46F2E060C0F2020010F0A0FED0
:405300004AF23403C1F6FF7393F82D3046F20070C0F20200194610F093FE42F6FC20C0F2020010F0E1FE46F21C70C0F2020010F087FE40F27473C2F200031B7C46F230608A
:40534000C0F20200194610F07BFE42F6FC20C0F2020010F0C9FE46F23C70C0F2020010F06FFE40F27473C2F200035B6918460FF0CDFD02460B4646F26860C0F2020010F0C5
:405380005FFE42F6FC20C0F2020010F0ADFE46F25C70C0F2020010F053FE40F27473C2F200039B6918460FF0B1FD02460B4646F26860C0F2020010F043FE42F6FC20C0F261
:4053C000020010F091FE46F27C70C0F2020010F037FEFBF7EFFA42F6FC20C0F2020010F083FE46F29C70C0F2020010F029FE40F27473C2F200031B6A18460FF087FD04460C
:405400000D4640F27473C2F200031A6A40F27473C2F20003DB691046194610F0EBF9034618460FF073FD02460B46CDE9002346F2CC60C0F2020022462B4610F001FE42F668
:40544000FC20C0F2020010F04FFE46F2BC70C0F2020010F0F5FD40F27473C2F2000393F82D3046F20070C0F20200194610F0E8FD42F6FC20C0F2020010F036FE42F6FC201D
:40548000C0F2020010F030FE46F2DC70C0F2020010F02AFE46F2F070C0F2020010F024FE46F60400C0F2020010F0CAFD40F64C03C2F20003DB8D1AB240F64C03C2F20003D5
:4054C00093F82C3046F62400C0F2020011461A4610F0B6FD42F6FC20C0F2020010F004FE46F64800C0F2020010F0AAFD40F64C03C2F200031B8E1BB246F66800C0F2020054
:40550000194610F09DFD42F6FC20C0F2020010F0EBFD46F67800C0F2020010F091FD40F64C03C2F200035B8E1BB246F66800C0F20200194610F084FD42F6FC20C0F202005A
:4055400010F0D2FD46F69800C0F2020010F078FD40F64C03C2F200039B8E1BB246F66800C0F20200194610F06BFD42F6FC20C0F2020010F0B9FD46F6B800C0F2020010F0A8
:405580005FFD40F64C03C2F200039B6B18460FF0BDFC02460B4646F6D800C0F2020010F04FFD42F6FC20C0F2020010F09DFD46F6EC00C0F2020010F043FD40F6C423C2F2FB
:4055C0000003DB8D1AB240F6C423C2F2000393F82C3046F62400C0F2020011461A4610F02FFD42F6FC20C0F2020010F07DFD46F60C10C0F2020010F023FD40F6C423C2F243
:4056000000031B8E1BB246F66800C0F20200194610F016FD42F6FC20C0F2020010F064FD46F62C10C0F2020010F00AFD40F6C423C2F200035B8E1BB246F66800C0F20200A9
:40564000194610F0FDFC42F6FC20C0F2020010F04BFD46F64C10C0F2020010F0F1FC40F6C423C2F200039B8E1BB246F66800C0F20200194610F0E4FC42F6FC20C0F20200E0
:4056800010F032FD46F66C10C0F2020010F0D8FC40F6C423C2F200039B6B18460FF036FC02460B4646F6D800C0F2020010F0C8FC42F6FC20C0F2020010F016FD42F6FC207E
:4056C000C0F2020010F010FD46F68C10C0F2020010F00AFD46F69C10C0F2020010F004FD46F6AC10C0F2020010F0AAFC4AF23403C1F6FF735B6A18460FF008FC02460B460C
:4057000046F26860C0F2020010F09AFC4AF23403C1F6FF731B7846F6CC10C0F20200194610F08EFC4AF23400C1F6FF70FBF758F846F6DC10C0F2020010F082FC4AF2340099
:40574000C1F6FF70FBF78CF846F6FC10C0F2020010F076FC4AF23400C1F6FF70FBF75EF942F6FC20C0F2020010F0BEFC46F61C20C0F2020010F064FC40F27473C2F2000322
:405780005B6A18460FF0C2FB02460B4646F26860C0F2020010F054FC40F27473C2F200031B7846F6CC10C0F20200194610F048FC4AF23400C1F6FF70FBF712F846F63C2071
:4057C000C0F2020010F03CFC40F27470C2F20000FBF746F846F65C20C0F2020010F030FC40F27470C2F20000FBF718F942F6FC20C0F2020010F078FC46F67C20C0F2020056
:4058000010F01EFC48F21013C1F6FF731B681846FBF772F842F6FC20C0F2020010F064FC42F6FC20C0F2020010F05EFC46F69C20C0F2020010F058FC46F6B420C0F20200FD
:4058400010F052FC46F6CC20C0F2020010F0F8FB40F6AC23C2F200035B6818460FF056FB04460D4640F6AC23C2F200035B6818464DF20A71C3F6234102F01CFF03461846D9
:405880000FF044FB02460B46CDE9002346F6EC20C0F2020022462B4610F0D2FB40F6AC23C2F200035B6818464DF20A71C3F6234102F026FF034618460FF028FB02460B4669
:4058C00046F60430C0F2020010F0BAFB46F61830C0F2020010F0B4FB40F6AC23C2F200031B891BB246F63830C0F20200194610F0A7FB42F6FC20C0F2020010F0F5FB46F62E
:405900004430C0F2020010F09BFB40F6AC23C2F200035B891BB246F63830C0F20200194610F08EFB42F6FC20C0F2020010F0DCFB46F66430C0F2020010F082FB40F6AC2317
:40594000C2F200039B891BB246F63830C0F20200194610F075FB42F6FC20C0F2020010F0C3FB42F6FC20C0F2020010F0BDFB46F68430C0F2020010F0B7FB46F6A030C0F2BE
:40598000020010F0B1FB46F6BC30C0F2020010F057FB40F63C13C2F200039B6A18460FF0B5FA04460D4640F63C13C2F200039B6A18464CF24431C3F62E2102F07BFE034613
:4059C00018460FF0A3FA02460B46CDE9002346F6EC20C0F2020022462B4610F031FB40F63C13C2F200039B6A18464CF24431C3F62E2102F085FE034618460FF087FA0246FC
:405A00000B4646F60430C0F2020010F019FB46F6DC30C0F2020010F013FB40F63C13C2F2000393F8243046F23060C0F20200194610F006FB42F6FC20C0F2020010F054FB85
:405A400046F6FC30C0F2020010F0FAFA40F63C13C2F2000393F8253046F23060C0F20200194610F0EDFA42F6FC20C0F2020010F03BFB46F61C40C0F2020010F0E1FA40F69D
:405A80003C13C2F2000393F8263046F23060C0F20200194610F0D4FA42F6FC20C0F2020010F022FB46F63C40C0F2020010F0C8FA40F63C13C2F2000393F8273046F65C400D
:405AC000C0F20200194610F0BBFA42F6FC20C0F2020010F009FB42F6FC20C0F2020010F003FB46F67840C0F2020010F0FDFA46F68C40C0F2020010F0F7FA46F6A040C0F2B2
:405B0000020010F09DFA40F6AC23C2F200031B6918460FF0FBF902460B4646F6C040C0F2020010F08DFA46F6CC40C0F2020010F087FA40F6AC23C2F200035B6918460FF0D1
:405B4000E5F902460B4646F6C040C0F2020010F077FA42F6FC20C0F2020010F0C5FA02F089BC41F29000C2F2000046F6EC41C0F2020110F06FFB0346002B5ED1B14810F0B4
:405B80009FF8034687F8EA30AE4810F099F8034687F8EA3097F8EA30322B44D848F61C23C1F6FF731B78052B35D197F8EA30184608F0E4FE0346002B26D197F8EA3046F641
:405BC000F440C0F20200194610F03AFA97F8EA30184608F0BBFF11E04AF22803C1F6FF731B780C2B0AD197F8EA3046F60850C0F20200194610F024FA02F03CBC02F048FCBD
:405C00000346002BE8D00DE046F61C50C0F2020010F06AFA0FE046F64850C0F2020010F063FA08E007E045F69870C0F2020010F007FA02F01FBC02F01DBC41F29000C2F2E1
:405C4000000046F67851C0F2020110F003FB0346002B79D17B4810F033F8034687F8E930784810F02DF8034687F8E93048F61C23C1F6FF731B78052B5DD108F035FD4FF019
:405C8000000387F8FE3045E097F8FE2040F6D803C2F200039B5C46F6F440C0F20200194610F0CEF997F8FE2040F6D803C2F200039B5C184608F04AFF0CE002F0E9FB034643
:405CC000012B07D146F68050C0F2020010F00CFA02F0D0BB4AF22803C1F6FF731B780C2BEBD197F8FE2040F6D803C2F200039B5C46F60850C0F20200194610F0A1F997F80B
:405D0000E93018460CF0E8FC97F8FE3003F1010387F8FE3097F8FE2040F6D803C2F200039B5CFF2BB0D146F69050C0F2020010F0DBF902F09FBB46F6A850C0F2020010F0BB
:405D4000D3F900BF02F096BB41F29000C2F2000046F6D851C0F2020110F07CFA0346002B0CD041F29000C2F2000046F6E451C0F2020110F06FFA0346002B65D148F61C23D1
:405D8000C1F6FF731B78052B52D146F6EC50C0F2020010F0A9F906F09FFA06F0DDFA06F07BFA06F081FA40F60800C2F200004FF0020106F0C1F840F6A800C2F200004FF01A
:405DC000030106F0B9F82DE040F60803C2F200035A6841F6F113C0F27653A3FB02134FEA531340F2DC5101FB03F3D31A002B03D14FF02E0010F03AF940F60803C2F2000354
:405E00001B78022B0ED140F6A803C2F200031B78022B07D146F60460C0F2020010F064F902F028BB02F034FB0346002BCCD007E046F61C60C0F2020010F056F902F01ABB73
:405E400002F018BB9F10002041F29000C2F2000046F65861C0F2020110F0FCF90346002B0DD041F29000C2F2000046F66061C0F2020110F0EFF90346002B40F0DC80BA4814
:405E80000FF01EFF034687F8E53097F8E530002B00F0C780B4480FF013FF034687F8E53097F8E530632B00F2BC80B0480FF004FF02460B46104619460FF03EFB0346C7F811
:405EC0001431D7F814014FF000010FF045FE0346002B00F0AE80A5480FF0EEFE02460B46104619460FF028FB0346C7F81431D7F814014FF00001C4F2F0110FF023FE03468C
:405F0000002B00F08D8048F61C23C1F6FF731B78052B7ED197F8E52040F6CC13C2F200039B5CFF2B6BD0D7F814014FF000010FF0F5FD0346002B03D04FF08043C7F8143163
:405F400046F66460C0F2020010F0CEF897F8E5305BB21846D7F8141106F03EFA97F8E5305BB21846D7F8141106F0D6FA06F0A4F906F0AAF940F60800C2F200004FF004014B
:405F800005F0DAFF40F6A800C2F200004FF0050105F0D2FF2DE040F60803C2F200035A6841F6F113C0F27653A3FB02034FEA531340F2DC5101FB03F3D31A002B03D14FF03B
:405FC0002E0010F053F840F60803C2F200031B78022B0ED140F6A803C2F200031B78022B07D146F67C60C0F2020010F07DF802F041BA02F04DFA0346002BCCD010E097F86B
:40600000E53046F69460C0F20200194610F018F80FE046F6CC60C0F2020010F065F808E007E046F60470C0F2020010F05DF802F021BA02F01FBA41F29000C2F2000043F2C4
:40604000D871C0F2020110F005F90346002B42F0FD81454B1B78002B07D146F63070C0F202000FF0EDFF02F002BA3F4846F65471C0F2020110F0EEF80346002B09D03A48BF
:4060800046F66071C0F2020110F0E4F80346002B30D136480FF014FE034687F8B33033480FF00EFE034687F8B33097F8B330122B18D840F6AC23C2F2000397F8B3205A70DB
:4060C00002F060FB034687F8D93097F8B33046F66470C0F2020019460FF0B2FFFAF79EFA02F0C8B945F69870C0F202000FF0A8FF02F0C0B91C4846F68C71C0F2020110F0E7
:40610000A9F80346002B33D118480FF0D9FD034687F8DA3015480FF0D3FD034687F8DA3097F8DA30012B16D840F6AC23C2F2000397F8DA201A7002F025FB034687F8D930DC
:4061400097F8DA3046F69470C0F2020019460FF077FF02F08FB945F69870C0F202000FF06FFF02F087B900BF9F100020AE100020BD4846F6B871C0F2020110F06BF80346B7
:40618000002B09D0B84846F6C471C0F2020110F061F80346002B2ED1B4480FF091FD034687F8F330B1480FF08BFD034687F8F33097F8F330012B16D84AF23403C1F6FF73A2
:4061C00097F8F3201A7402F0DDFA034687F8D93097F8F33046F6CC70C0F2020019460FF02FFF02F047B945F69870C0F202000FF027FF02F03FB99C4846F6F071C0F202013D
:4062000010F028F80346002B09D0974846F6FC71C0F2020110F01EF80346002B2ED193480FF04EFD034687F8F33090480FF048FD034687F8F33097F8F330012B16D840F216
:406240007473C2F2000397F8F3201A7402F09AFA034687F8D93097F8F33047F20400C0F2020019460FF0ECFE02F004B945F69870C0F202000FF0E4FE02F0FCB87A4847F2E6
:406280002801C0F202010FF0E5FF0346002B09D0754847F23001C0F202010FF0DBFF0346002B2FD171480FF00BFD034687F8B4306E480FF005FD034687F8B43097F8B43065
:4062C000012B17D84AF23403C1F6FF7397F8B42083F82D2002F056FA034687F8D93097F8B43047F23400C0F2020019460FF0A8FE02F0C0B845F69870C0F202000FF0A0FE13
:4063000002F0B8B8584847F25C01C0F202010FF0A1FF0346002B09D0534847F26401C0F202010FF097FF0346002B2FD14F480FF0C7FC034687F8B5304C480FF0C1FC03468E
:4063400087F8B53097F8B530012B17D840F64C03C2F2000397F8B52083F82C2002F012FA034687F8D93097F8B53047F26C00C0F2020019460FF064FE02F07CB845F69870FE
:40638000C0F202000FF05CFE02F074B8364847F29C01C0F202010FF05DFF0346002B09D0314847F2A801C0F202010FF053FF0346002B5DD147F2AC00C0F202000FF040FE28
:4063C0004FF0010002F072F80346012B3FD140F64C03C2F200034FF00002DA8547F2EC00C0F202000FF080FE40F60830C2F2000009F04CFE4FF47A700CF06EF947F2041008
:40640000C0F202000FF070FE40F60830C2F2000009F04AFE40F60833C2F200035B6818460FF0AEFB03469AB240F64C03C2F20003DA8540F64C03C2F20003DB8D1BB247F20D
:406440001810C0F2020019460FF0FAFD05E047F26010C0F202000FF047FE02F093F9034687F8D93002F006B89F100020AE100020C14847F29011C0F202010FF0EBFE0346F0
:40648000002B09D0BC4847F29C11C0F202010FF0E1FE0346002B59D147F2A410C0F202000FF0CEFD4FF0010002F000F80346012B3FD140F64C03C2F200034FF000025A8646
:4064C00047F2EC00C0F202000FF00EFE40F60830C2F2000009F0DAFD4FF47A700CF0FCF840F60830C2F2000009F0DEFD47F20410C0F202000FF0F8FD40F60833C2F2000396
:406500005B6818460FF03CFB03469AB240F64C03C2F200035A8640F64C03C2F200035B8E1BB247F2E010C0F2020019460FF088FD05E047F26010C0F202000FF0D5FD02F09C
:4065400021F9034687F8D93001F094BF8A4847F21C21C0F202010FF07DFE0346002B09D0854847F22821C0F202010FF073FE0346002B59D147F23020C0F202000FF060FD7D
:406580004FF0010001F092FF0346012B3FD140F64C03C2F200034FF000021A8647F2EC00C0F202000FF0A0FD40F60830C2F2000009F06CFD4FF47A700CF08EF840F6083061
:4065C000C2F2000009F070FD47F20410C0F202000FF08AFD40F60833C2F200035B6818460FF0CEFA03469AB240F64C03C2F200031A8640F64C03C2F200031B8E1BB247F28E
:406600006C20C0F2020019460FF01AFD05E047F26010C0F202000FF067FD02F0B3F8034687F8D93001F026BF534847F2A821C0F202010FF00FFE0346002B09D04E4847F242
:40664000B421C0F202010FF005FE0346002B2ED14A480FF035FB0346A7F8B63047480FF02FFB0346A7F8B630B7F8B630642B16D8B7F8B62040F64C03C2F200039A8602F021
:4066800081F8034687F8D930B7F8B63047F2BC20C0F2020019460FF0D3FC01F0EBBE45F69870C0F202000FF0CBFC01F0E3BE324846F20431C0F202010FF0CCFD0346002B44
:4066C00009D02D4846F21031C0F202010FF0C2FD0346002B54D129480FF0EEFA02460B46104619460EF028FF0346C7F8B830D7F8B8004FF48041CCF21C610FF02DFA0346D7
:40670000002B30D01D480FF0D7FA02460B46104619460EF011FF0346C7F8B830D7F8B8004FF48041C4F21C610FF00CFA0346002B19D040F64C03C2F20003D7F8B8209A63AD
:4067400002F020F8034687F8D930D7F8B8000EF0DDFB02460B4647F20030C0F202000FF06FFC01F087BE45F69870C0F202000FF067FC01F07FBE00BF9F100020AE10002098
:40678000B14847F24C31C0F202010FF063FD0346002B09D0AC4847F25431C0F202010FF059FD0346002B2FD1A8480FF089FA034687F8B430A5480FF083FA034687F8B43066
:4067C00097F8B430012B17D840F27473C2F2000397F8B42083F82D2001F0D4FF034687F8D93097F8B43047F25830C0F2020019460FF026FC01F03EBE45F69870C0F202002F
:406800000FF01EFC01F036BE8F4847F28431C0F202010FF01FFD0346002B09D08A4847F28C31C0F202010FF015FD0346002B2FD186480FF045FA034687F8B53083480FF0F3
:406840003FFA034687F8B53097F8B530012B17D840F6C423C2F2000397F8B52083F82C2001F090FF034687F8D93097F8B53047F29430C0F2020019460FF0E2FB01F0FABD4B
:4068800045F69870C0F202000FF0DAFB01F0F2BD6D4847F2C831C0F202010FF0DBFC0346002B09D0684847F2D431C0F202010FF0D1FC0346002B59D147F2D830C0F20200AC
:4068C0000FF0BEFB4FF0010001F0F0FD0346012B3FD140F6C423C2F200034FF00002DA8547F2EC00C0F202000FF0FEFB48F66430C1F6FF7009F0CAFB4FF47A700BF0ECFE30
:4069000048F66430C1F6FF7009F0CEFB47F20410C0F202000FF0E8FB48F66433C1F6FF735B6818460FF02CF903469AB240F6C423C2F20003DA8540F6C423C2F20003DB8D73
:406940001BB247F21840C0F2020019460FF078FB05E047F26040C0F202000FF0C5FB01F011FF034687F8D93001F084BD364847F29041C0F202010FF06DFC0346002B09D00D
:40698000314847F29C41C0F202010FF063FC0346002B5DD147F2A440C0F202000FF050FB4FF0010001F082FD0346012B3FD140F6C423C2F200034FF000025A8647F2EC0029
:4069C000C0F202000FF090FB48F66430C1F6FF7009F05CFB4FF47A700BF07EFE48F66430C1F6FF7009F060FB47F20410C0F202000FF07AFB48F66433C1F6FF735B6818468D
:406A00000FF0BEF803469AB240F6C423C2F200035A8640F6C423C2F200035B8E1BB247F2E040C0F2020019460FF00AFB05E047F26040C0F202000FF057FB01F0A3FE0346C0
:406A400087F8D93001F016BD9F100020AE100020D24847F21C51C0F202010FF0FBFB0346002B09D0CD4847F22851C0F202010FF0F1FB0346002B59D147F23050C0F20200F4
:406A80000FF0DEFA4FF0010001F010FD0346012B3FD140F6C423C2F200034FF000021A8647F2EC00C0F202000FF01EFB48F66430C1F6FF7009F0EAFA4FF47A700BF00CFE8F
:406AC00048F66430C1F6FF7009F0EEFA47F20410C0F202000FF008FB48F66433C1F6FF735B6818460FF04CF803469AB240F6C423C2F200031A8640F6C423C2F200031B8ED2
:406B00001BB247F26C50C0F2020019460FF098FA05E047F26040C0F202000FF0E5FA01F031FE034687F8D93001F0A4BC9B4847F2A851C0F202010FF08DFB0346002B09D0BF
:406B4000964847F2B451C0F202010FF083FB0346002B2ED192480FF0B3F80346A7F8B6308F480FF0ADF80346A7F8B630B7F8B630642B16D8B7F8B62040F6C423C2F200034E
:406B80009A8601F0FFFD034687F8D930B7F8B63047F2BC50C0F2020019460FF051FA01F069BC45F69870C0F202000FF049FA01F061BC7A4846F2FC31C0F202010FF04AFB43
:406BC0000346002B09D0754846F20841C0F202010FF040FB0346002B4FD171480FF06CF802460B46104619460EF0A6FC0346C7F8B830D7F8B8004FF48041CCF21C610EF0C9
:406C0000ABFF0346002B30D065480FF055F802460B46104619460EF08FFC0346C7F8B830D7F8B8004FF48041C4F21C610EF08AFF0346002B19D040F6C423C2F20003D7F831
:406C4000B8209A6301F09EFD034687F8D930D7F8B8000EF05BF902460B4647F20060C0F202000FF0EDF901F005BC45F69870C0F202000FF0E5F901F0FDBB484847F24C6199
:406C8000C0F202010FF0E6FA0346002B09D0434847F25861C0F202010FF0DCFA0346002B33D13F480FF00CF8034687F8F2303C480FF006F8034687F8F23097F8F230012BB8
:406CC0001BD840F63C13C2F2000397F8F22083F8242001F057FD034687F8D93040F63C13C2F2000393F8243047F26060C0F2020019460FF0A5F901F0BDBB45F69870C0F2CD
:406D000002000FF09DF901F0B5BB244847F28061C0F202010FF09EFA0346002B09D01F4847F28C61C0F202010FF094FA0346002B38D11B480EF0C4FF034687F8F230184882
:406D40000EF0BEFF034687F8F23097F8F230012B1BD840F63C13C2F2000397F8F22083F8252001F00FFD034687F8D93040F63C13C2F2000393F8253047F29460C0F2020036
:406D800019460FF05DF901F075BB45F69870C0F202000FF055F901F06DBB00BF9F100020AE100020BB4847F2B861C0F202010FF051FA0346002B09D0B64847F2C461C0F286
:406DC00002010FF047FA0346002B33D1B2480EF077FF034687F8F230AF480EF071FF034687F8F23097F8F230012B1BD840F63C13C2F2000397F8F22083F8262001F0C2FC14
:406E0000034687F8D93040F63C13C2F2000393F8263047F2CC60C0F2020019460FF010F901F028BB45F69870C0F202000FF008F901F020BB974847F2F061C0F202010FF030
:406E400009FA0346002B09D0924847F2FC61C0F202010FF0FFF90346002B33D18E480EF02FFF034687F8F1308B480EF029FF034687F8F13097F8F130012B1BD840F63C130D
:406E8000C2F2000397F8F12083F8272001F07AFC034687F8D93040F63C13C2F2000393F8273047F20470C0F2020019460FF0C8F801F0E0BA45F69870C0F202000FF0C0F8AB
:406EC00001F0D8BA734845F29811C0F202010FF0C1F90346002B0AD06E4845F63861C0F202010FF0B7F90346002B40F0BE816B4847F22C71C0F202010FF0ACF90346002B91
:406F000009D0664847F23471C0F202010FF0A2F90346002B7AD160480EF0D2FE034687F8E53097F8E530002B00F09C815A480EF0C7FE034687F8E53097F8E530632B00F249
:406F4000918197F8E52040F6CC13C2F200039B5C194640F63832C2F200020B464FEAC3035B184FEA8303D3181B78002B47D097F8E52040F6CC13C2F200039B5C194640F6C5
:406F80003832C2F200020B464FEAC3035B184FEA8303D3181B7847F23870C0F2020019460FF04EF897F8E52040F6CC13C2F200039B5C194640F63832C2F200020B464FEAE2
:406FC000C3035B184FEA8303D3184FF000021A7097F8E52040F6CC13C2F200039B5CDBB25BB2184602F092F90346002B00F03A8147F25C70C0F202000FF022F832E147F2DA
:407000008070C0F202000FF06FF82BE123480EF057FE0346A7F8E63020480EF051FE0346A7F8E630B7F8E6301F2B00F213811A480EF046FE034687F8E53097F8E530002BE6
:4070400000F0008114480EF03BFE034687F8E53097F8E530632B00F2F58047F2B470C0F202000EF0EDFF4FF0010001F01FFA0346012B40F0CB80094B1B78002B10D097F8E0
:40708000E520B7F8E630D9B240F6CC13C2F20003995413E09F100020AE100020B810002097F8E52097F8E51041F21803C2F20003595C40F6CC13C2F20003995497F8E5201B
:4070C00040F6CC13C2F200039B5C194640F63832C2F200020B464FEAC3035B184FEA8303D31897F8E5201A7097F8E52040F6CC13C2F200039B5C194640F64C03C2F200039B
:40710000586840F63832C2F200020B464FEAC3035B184FEA8303D31803F11803186097F8E52040F6CC13C2F200039B5C194640F64C03C2F20003586840F63832C2F200023D
:407140000B464FEAC3035B184FEA8303D31803F10403186097F8E52040F6CC13C2F200039B5C194640F6C423C2F20003586840F63832C2F200020B464FEAC3035B184FEA93
:407180008303D31803F11C03186097F8E52040F6CC13C2F200039B5C194640F6C423C2F20003586840F63832C2F200020B464FEAC3035B184FEA8303D31803F1080318604F
:4071C00097F8E56040F64C03C2F200035B6818460EF0D6FC054640F6C423C2F200035B6818460EF0CDFC044697F8E52040F6CC13C2F200039B5C009347F2F070C0F2020006
:4072000031462A4623460EF01BFF05E047F66000C0F202000EF068FF97F8E52040F6CC13C2F200039B5CDBB25BB2184602F06EF80346002B0DD047F25C70C0F202000EF09C
