:400000000080002011000000B9FC0000B9FC000080B500AF47F2BC63C4F2000344F2FA62C4F2000212681A600FF04AFE10B5054C237833B9044810B10448AFF300800121F1
:40004000217010BD008AFF1F00000000C8F9010008B5064B1BB106480649AFF300800648016811B1054A02B1904708BD00000000C8F90100048AFF1F0881FF1F00000000F3
:4000800080B582B000AF48F26053C1F6FF731B689B6818464FF000014FF002024FF0000315F066FD4FF00003FB7111F0B9F808F0D7FF4AF23403C1F6FF734FF480525A6565
:4000C00040F27473C2F200034FF480525A654AF23403C1F6FF734FF00002C4F67802DA6040F27473C2F200034FF00002C4F62C12DA604AF23403C1F6FF73DB6818464FF052
:400100000001C4F2B43115F065F903461A464AF23403C1F6FF735A6040F27473C2F20003DB6818464FF00001C4F2B43115F052F903461A4640F27473C2F200035A604AF2B6
:400140003403C1F6FF73DB68184614F01BFC02460B46BFA1D1E9000114F092FD02460B461046194614F024FF02464AF23403C1F6FF739A6040F27473C2F20003DB68184658
:4001800014F000FC02460B46B1A1D1E9000114F077FD02460B461046194614F009FF024640F27473C2F200039A6011F029FA4FF0FF0011F025F811F0CFF810F0A5F810F0D0
:4001C00081FC10F09DFC12F0E9FB13F079F912F017FA13F019FB12F0EDFB13F0F1FB12F025FD40F60033C2F200034FF000021A8040F60033C2F200034FF000029A7040F6CB
:400200000033C2F200034FF00002DA7040F60033C2F200034FF000021A714AF23400C1F6FF700AF0ABFB40F27470C2F200000AF0A5FB09F0C5FF14F04BF840F60830C2F29D
:4002400000000FF051FC48F66430C1F6FF700FF04BFC40F66020C2F200000FF0FDF840F69810C2F200000FF0F7F809F0A5FB0BF02FFF0CF06FF80BF07FFF40F60800C2F286
:4002800000000BF079FB40F6A800C2F200000BF073FB0BF00DFA0CF0F1F80EF087F910F0F3FE4FF4FA7011F053FF42F2F000C0F2020015F055FC42F2F400C0F2020015F06F
:4002C0004FFC42F22010C0F2020015F049FC42F24810C0F2020015F043FC42F27410C0F2020015F03DFC42F2AC10C0F2020015F037FC42F2F010C0F2020015F031FC42F2F9
:40030000F000C0F2020015F02BFC11F031F813F077F913F0B5FE62B642F2F000C0F2020015F01EFC4FF0C80011F012FF42F24420C0F2020015F0C0FB4FF00103FB710BE0CC
:400340004FF47A7011F004FF4FF02E0015F0CAFBFB7903F1FF33FB71FB79002BF0D142F2F000C0F2020015F0FBFB40F6AC23C2F200031B78002B07D148F61C23C1F6FF73E4
:400380004FF006021A7014E048F61C23C1F6FF734FF005021A704AF23400C1F6FF700AF017FB40F27470C2F200000AF011FB0BF093F900F0F5FD0346BB7142F2F000C0F2DC
:4003C000020015F0CDFB42F26C20C0F2020015F073FB40F6AC23C2F200031B78012B06D142F27420C0F2020015F066FB05E042F28020C0F2020015F05FFB40F60033C2F22A
:4004000000031B88002B05D042F28420C0F2020015F052FB48F61C23C1F6FF731B78052B06D142F28820C0F2020015F045FB05E042F29020C0F2020015F03EFB4FF03E00EB
:4004400015F050FB4FF0C80011F082FEB1E700BF182D4454FB21194080B582B000AF0346FB71FB79042B32D0042B0BDC012B19D0012B02DC002B0ED04CE0022B19D0032BDD
:400480001ED047E0062B30D0062B27DB072B33D0632B38D03EE042F29820C0F2020015F00BFB3EE042F2A820C0F2020015F004FB37E042F2BC20C0F2020015F0FDFA30E076
:4004C00042F2CC20C0F2020015F0F6FA29E042F2E420C0F2020015F0EFFA22E042F2FC20C0F2020015F0E8FA1BE042F21030C0F2020015F0E1FA14E042F22830C0F202002C
:4005000015F0DAFA0DE042F23830C0F2020015F0D3FA06E042F24830C0F2020015F0CCFA00BF07F10807BD4680BD00BF80B582B000AF0346FB71FB790C2B63D801A252F85F
:4005400023F000BF790500008705000095050000A3050000B1050000BF050000CD050000050600000506000005060000DB050000E9050000F705000042F25030C0F20200BE
:4005800015F09AFA45E042F25C30C0F2020015F093FA3EE042F26C30C0F2020015F08CFA37E042F28430C0F2020015F085FA30E042F29C30C0F2020015F07EFA29E042F295
:4005C000B430C0F2020015F077FA22E042F2CC30C0F2020015F070FA1BE042F2E430C0F2020015F069FA14E042F2FC30C0F2020015F062FA0DE042F20C40C0F2020015F0AA
:400600005BFA06E042F24830C0F2020015F054FA00BF07F10807BD4680BD00BF80B500AF40F6AC23C2F200035B78122B00F2A88001A252F823F000BF85060000930600005A
:40064000A1060000AF060000BD060000CB060000D9060000E7060000F506000003070000110700001F0700002D0700003B0700008107000049070000570700006507000063
:400680007307000042F21840C0F2020015F014FA7DE042F22840C0F2020015F00DFA76E042F23C40C0F2020015F006FA6FE042F24C40C0F2020015F0FFF968E042F25C401D
:4006C000C0F2020015F0F8F961E042F26840C0F2020015F0F1F95AE042F28040C0F2020015F0EAF953E042F29040C0F2020015F0E3F94CE042F2A440C0F2020015F0DCF928
:4007000045E042F2B440C0F2020015F0D5F93EE042F2C440C0F2020015F0CEF937E042F2D840C0F2020015F0C7F930E042F2E440C0F2020015F0C0F929E042F2F040C0F23A
:40074000020015F0B9F922E042F20450C0F2020015F0B2F91BE042F21850C0F2020015F0ABF914E042F22C50C0F2020015F0A4F90DE042F23C50C0F2020015F09DF906E002
:4007800042F24850C0F2020015F096F900BF80BD80B500AF40F6AC23C2F200031B78002B02D0012B07D00DE042F24C50C0F2020015F082F90DE042F25C50C0F2020015F07F
:4007C0007BF906E042F26850C0F2020015F074F900BF42F27450C0F2020015F0C1F980BD80B582B000AF78607B685B78002B06D142F27850C0F2020015F05EF926E07B688B
:400800005B78012B06D142F28450C0F2020015F053F91BE07B685B78022B06D142F29050C0F2020015F048F910E07B685B78032B06D142F2A050C0F2020015F03DF905E06F
:4008400042F2AC50C0F2020015F036F942F27450C0F2020015F084F907F10807BD4680BD80B582B000AF78607B689B6A184614F089F802460B4642F2C050C0F2020015F09C
:400880001BF97B689B6A4FF00000C4F27F20194614F0A0FD0346184614F074F802460B4642F2C850C0F2020015F006F97B685B6A184614F067F802460B460DA1D1E9000189
:4008C00014F0DEF902460B461046194614F070FB0346184614F056F802460B4642F2DC50C0F2020015F0E8F807F10807BD4680BD597B0FFFFFEBB33F80B582B000AF7860E2
:400900007A684AF23403C1F6FF739A4206D142F2F850C0F2020015F0CFF813E07A6840F27473C2F200039A4206D142F20860C0F2020015F0C1F805E042F22460C0F20200D3
:4009400015F0BAF807F10807BD4680BDB0B582B002AF4AF23403C1F6FF73DB69184614F011F804460D464AF23403C1F6FF7359694AF23403C1F6FF73DA6948F20C13C1F6FC
:40098000FF731B68084611461A460AF08FFA0346184613F0F7FF02460B46CDE9002342F24060C0F2020022462B4615F085F8BD46B0BD00BFB0B582B002AF40F27473C2F281
:4009C0000003DB69184613F0DDFF04460D4640F27473C2F20003596940F27473C2F20003DA6948F20C13C1F6FF731B68084611461A460AF05BFA0346184613F0C3FF024624
:400A00000B46CDE9002342F24060C0F2020022462B4615F051F8BD46B0BD00BF80B582B000AF78607B6893F82C3042F25C60C0F20200194615F040F87B6893F82C30002BC1
:400A400006D142F26460C0F2020015F035F871E07B6893F82C30012B06D142F27060C0F2020015F029F865E07B6893F82C30022B06D142F28860C0F2020015F01DF859E08F
:400A80007B6893F82C30032B06D142F2A060C0F2020015F011F84DE07B6893F82C30042B06D142F2AC60C0F2020015F005F841E07B6893F82C30052B06D142F2B860C0F28E
:400AC000020014F0F9FF35E07B6893F82C30062B06D142F2C860C0F2020014F0EDFF29E07B6893F82C30072B06D142F2C860C0F2020014F0E1FF1DE07B6893F82C30072B48
:400B000006D142F2E060C0F2020014F0D5FF11E07B6893F82C30082B06D142F21470C0F2020014F0C9FF05E042F23C70C0F2020014F0C2FF07F10807BD4680BD80B582B0F5
:400B400000AF78607B6893F88430002B06D142F25470C0F2020014F0AFFF1DE07B6893F88430022B06D142F26070C0F2020014F0A3FF11E07B6893F88430012B06D142F2A1
:400B80006C70C0F2020014F097FF05E042F27870C0F2020014F090FF07F10807BD4680BD80B586B000AF02460B46FA71BB714FF00003FB754FF00003BB8248F62C20C1F6C0
:400BC000FF7007F0E3F937E0FB7C002B2DD0FB7C0A2B2AD0FA7DFB7CFB6048F23413C1F6FF731968FB6803F10103CB181B7803F00303012B03D1FB6803F1200300E0FB685C
:400C0000D9B248F62C23C1F6FF739954FB7D03F10103FB75FB79012B03D1FB7C184614F061FF4FF00003BB8206E0BB79012B03D1BB8A03F10103BB82FB7D262B10D810F035
:400C40009DFA0346FB74FB7C0D2B09D0BA8A4CF24F339A4204D807F0B7F90346012BB3D0FA7D48F62C23C1F6FF734FF000019954FB7D262B02D94FF0020309E0BA8A4CF295
:400C80004F339A4202D94FF0010301E04FF00003184607F11807BD4680BD00BF80B590B000AF0346FB714FF0000387F837304FF0000387F83F304FF0000387F83E3041F28E
:400CC0009000C2F2000007F061F9B24807F05EF9B14807F05BF9B14807F058F94FF001004FF00001FFF75CFF034687F8373097F83730002B40F0BB8007F10C03184607F0AA
:400D000045F94FF0000387F83F304FF0000387F83E3036E097F83F3003F1010387F83F3097F83E30002B05D097F83E3003F1FF3387F83E3097F83F30272B08D897F83F20F1
:400D400048F62C23C1F6FF739B5C082BE2D097F83E1097F83F2048F62C23C1F6FF739A5C07F14000431803F8342C97F83F3003F1010387F83F3097F83E3003F1010387F824
:400D80003E3097F83F30272B08D897F83F2048F62C23C1F6FF739B5C002BCBD197F83E3007F14002D3184FF0000203F8342C07F10C03184642F28471C0F2020116F068F8CC
:400DC000B863BB6B002B10D041F29000C2F20000B96B15F069F84FF0000042F28471C0F2020116F055F8B86305E041F29000C2F2000007F0CBF8BB6B002B0DD06548B96B06
:400E000015F052F84FF0000042F28471C0F2020116F03EF8B86302E05E4807F0B7F8BB6B002B0DD05C48B96B15F03EF84FF0000042F28471C0F2020116F02AF8B86302E04E
:400E4000554807F0A3F8BB6B002B0DD05348B96B15F02AF84FF0000042F28471C0F2020116F016F8B86302E04C4807F08FF8FB79012B7BD142F27450C0F2020014F070FEE5
:400E800042F28870C0F2020014F016FE4FF0000387F83F302FE097F83F2048F62C23C1F6FF739B5C082B06D142F29070C0F2020014F002FE19E097F83F2048F62C23C1F63F
:400EC000FF739B5C7F2B06D142F29470C0F2020014F0F2FD09E097F83F2048F62C23C1F6FF739B5C184614F0FDFD97F83F3003F1010387F83F3097F83F30272B08D897F8A6
:400F00003F2048F62C23C1F6FF739B5C002BC2D142F29870C0F2020014F0CEFD41F29000C2F2000014F0C8FD42F2A070C0F2020014F0C2FD174814F0BFFD42F2A870C0F210
:400F4000020014F0B9FD144814F0B6FD42F2B070C0F2020014F0B0FD104814F0ADFD42F27450C0F2020014F0FBFD0BE042F27450C0F2020014F0F4FD42F27450C0F2020003
:400F800014F0EEFD4FF00003184607F14007BD4680BD00BF9F100020AE100020B81000202DE9F04FD3B00CAF4FF00003C7F8F8304FF00003C7F8F4304FF0000387F8F3300A
:400FC0004FF0000387F8F2304FF0000387F8F1304FF00003A7F8EE304FF0000387F8ED304FF0000387F8EC304FF0000387F8EB304FF0000387F8EA304FF0000387F8E930E1
:401000004FF00003A7F8E6304FF0000387F8E5304FF00003C7F814314FF00003C7F8E0304FF00003C7F8DC304FF0000387F813314FF0000387F812314FF00000FFF72EFE15
:40104000034687F8DB3041F29000C2F2000042F2B871C0F2020114F039FE0346002B2CD1DC4B1B78002B20D142F2C070C0F2020014F022FD4FF0000006F054FF0346012B5A
:401080000BD142F2E870C0F2020014F069FD4FF0640011F05DF806F02BBF42F62C00C0F2020014F009FD06F023BF42F64400C0F2020014F001FD06F01BBF41F29000C2F25E
:4010C000000042F66401C0F2020114F0FFFD0346002B23D1BF4B1B78002B17D142F66800C0F2020014F03CFD48F62423C1F6FF731B6803F1140248F62423C1F6FF731A6092
:401100004FF0640011F024F806F0F2BE42F67C00C0F2020014F024FD06F0EABE41F29000C2F2000042F68401C0F2020114F0CEFD0346002B23D1A74B1B78002B17D142F62E
:401140008800C0F2020014F00BFD48F62423C1F6FF731B6803F1640248F62423C1F6FF731A604FF0640010F0F3FF06F0C1BE42F67C00C0F2020014F0F3FC06F0B9BE41F26F
:401180009000C2F2000042F69C01C0F2020114F09DFD0346002B23D18E4B1B78002B17D142F6A000C0F2020014F0DAFC48F62423C1F6FF731B68A3F1140248F62423C1F65F
:4011C000FF731A604FF0640010F0C2FF06F090BE42F67C00C0F2020014F0C2FC06F088BE41F29000C2F2000042F6B401C0F2020114F06CFD0346002B23D1764B1B78002B88
:4012000017D142F6B800C0F2020014F0A9FC48F62423C1F6FF731B68A3F1640248F62423C1F6FF731A604FF0640010F091FF06F05FBE42F67C00C0F2020014F091FC06F0F1
:4012400057BE41F29000C2F2000042F6CC01C0F2020114F03BFD0346002B26D142F6D400C0F2020014F07CFC4FF0000387F8133115E04FF0010011F061F94FF0FA0010F077
:4012800067FF4FF0000011F059F94FF07D0010F05FFF97F8133103F1010387F8133197F81331022BE5D906F023BE41F29000C2F2000042F6E801C0F2020114F007FD03465B
:4012C000002B1BD142F6F000C0F2020014F048FC48F23C20C0F202000EF0C2FC4FF4FA7010F036FF48F24420C0F202000EF0B8FC4FF4FA7010F02CFF06F0FABD41F290007F
:40130000C2F2000042F60411C0F2020114F0DEFC0346002B2DD142F60C10C0F2020014F01FFC1FE04FF001000FF06AFF4FF00B004CF6CD41C3F64C610AF08AFD4FF00B000E
:401340004CF6CD41C3F64C610AF022FE0AF0F0FC0AF0F6FC4FF000000FF052FF4FF4FA7010F01AFF06F0D0FD0346002BDAD006F0BFBD41F29000C2F2000042F61811C0F299
:40138000020114F0A3FC0346002B0CD041F29000C2F2000042F62411C0F2020114F096FC0346002B18D10B4B1B78002B09D142F62C10C0F2020014F0D3FB0AF079F906F061
:4013C00097BD42F67C00C0F2020014F0C9FB06F08FBD00BF9F10002041F29000C2F2000042F64C11C0F2020114F070FC0346002B0CD041F29000C2F2000042F65811C0F24E
:40140000020114F063FC0346002B4BD1CE4B1B78002B3FD142F66010C0F2020014F0A0FB48F61C23C1F6FF734FF006021A700AF03FF94AF22803C1F6FF734FF00C021A70C4
:4014400040F60803C2F200034FF002021A7040F60803C2F200034FF000021A6240F6A803C2F200034FF002021A7040F6A803C2F200034FF000021A624AF23400C1F6FF70A2
:4014800009F0C0FA40F27470C2F2000009F0BAFA06F02EBD42F67C00C0F2020014F060FB06F026BD41F29000C2F2000042F68811C0F2020114F00AFC0346002B0CD041F2F7
:4014C0009000C2F2000042F69411C0F2020114F0FDFB0346002B3AD19B4B1B78002B2ED142F69810C0F2020014F03AFB4AF23400C1F6FF7009F042FA40F27470C2F2000096
:4015000009F03CFA11F07CF812F07EF94FF0640010F01EFE48F61C23C1F6FF734FF005021A704AF23400C1F6FF7009F051FA40F27470C2F2000009F04BFA06F0D9BC42F6B4
:401540007C00C0F2020014F00BFB06F0D1BC41F29000C2F2000042F6AC11C0F2020114F0B5FB0346002B0DD041F29000C2F2000042F6B411C0F2020114F0A8FB0346002B44
:4015800040F0BD804FF00003C7F80C314FF0000387F81231A5E04AF23403C1F6FF735B6C42F6B810C0F20200194614F085FA40F64C03C2F200035B68184614F01DF803463F
:4015C00042F6D010C0F20200194614F075FA4AF23400C1F6FF70FFF7B1FAD7F80C014FF40041C4F2BB4113F041FE0346184613F0C9F902460B4642F6EC10C0F2020014F0D1
:401600005BFAD7F80C014FF40041C4F2BB4113F02DFE03461A464AF23403C1F6FF73DB681046194613F0D6FE0346184613F0AAF902460B4642F60820C0F2020014F03CFACD
:4016400042F27450C0F2020014F08AFA0FF096FD034687F8123197F81231612B03D097F81231412B0DD1D7F80C014FF07E5113F0F5FC0346C7F80C314FF0000387F8123125
:4016800025E097F81231642B03D097F81231442B0DD1D7F80C014FF07E5113F0DDFC0346C7F80C314FF0000387F812310FE097F81231732B03D097F81231532B07D14FF02A
:4016C0000003C7F80C314FF0000387F81231D7F80C0113F091FF02464AF23403C1F6FF731A6497F81231002B3FF455AF4AF23403C1F6FF734FF000021A6406F0F9BB41F2AA
:401700009000C2F2000042F61C21C0F2020114F0DDFA0346002B0DD041F29000C2F2000042F62421C0F2020114F0D0FA0346002B40F0C8804FF00003C7F808314FF0000330
:4017400087F81231B0E000BF9F10002040F27473C2F200035B6C42F62820C0F20200194614F0AAF940F6C423C2F200035B68184613F042FF034642F6D010C0F2020019460B
:4017800014F09AF940F27470C2F20000FFF7D6F9D7F808014FF40041C4F2BB4113F066FD0346184613F0EEF802460B4642F6EC10C0F2020014F080F9D7F808014FF40041A5
:4017C000C4F2BB4113F052FD034618464FF00001C4F2B43113F04AFD03461A4640F27473C2F20003DB681046194613F0F3FD0346184613F0C7F802460B4642F60820C0F2A1
:40180000020014F059F942F27450C0F2020014F0A7F90FF0B3FC034687F8123197F81231772B03D097F81231572B0DD1D7F808014FF07E5113F012FC0346C7F808314FF057
:40184000000387F8123125E097F812317A2B03D097F812315A2B0DD1D7F808014FF07E5113F0FAFB0346C7F808314FF0000387F812310FE097F81231732B03D097F81231F8
:40188000532B07D14FF00003C7F808314FF0000387F81231D7F8080113F0AEFE024640F27473C2F200031A6497F81231002B3FF44DAF40F27473C2F200034FF000021A64BC
:4018C00006F016BB41F29000C2F2000042F64421C0F2020114F0FAF90346002B0DD041F29000C2F2000042F64C21C0F2020114F0EDF90346002B40F039814FF00003C7F8F6
:4019000004314FF00003C7F800314FF0000387F8123116E142F65020C0F2020014F0CCF84AF23400C1F6FF70FFF708F9D7F804014FF40041C4F2BB4113F098FC034618464C
:4019400013F020F802460B4642F65820C0F2020014F0B2F84AF23403C1F6FF739B6F184613F010F802460B4642F67420C0F2020014F0A2F842F68420C0F2020014F09CF8B3
:4019800040F27470C2F20000FFF7D8F8D7F800014FF40041C4F2BB4113F068FC0346184612F0F0FF02460B4642F65820C0F2020014F082F840F27473C2F200039B6F1846DF
:4019C00012F0E0FF02460B4642F67420C0F2020014F072F842F27450C0F2020014F0C0F80FF0CCFB034687F8123197F81231612B03D097F81231412B18D1D7F804014FF0DB
:401A00000001C4F2C82113F0CFFD0346002B08D0D7F804014FF07E5113F020FB0346C7F804314FF0000387F8123176E097F81231642B03D097F81231442B18D1D7F8040122
:401A40004FF00001CCF2C82113F0CCFD0346002B08D0D7F804014FF07E5113F0FDFA0346C7F804314FF0000387F8123155E097F81231772B03D097F81231572B18D1D7F8C2
:401A800000014FF00001C4F2C82113F08DFD0346002B08D0D7F800014FF07E5113F0DEFA0346C7F800314FF0000387F8123134E097F812317A2B03D097F812315A2B18D1D9
:401AC000D7F800014FF00001CCF2C82113F08AFD0346002B08D0D7F800014FF07E5113F0BBFA0346C7F800314FF0000387F8123113E097F81231732B03D097F81231532B00
:401B00000BD14FF00003C7F804314FF00003C7F800314FF0000387F81231D7F8040113F06BFD02464AF23403C1F6FF731A64D7F8000113F061FD024640F27473C2F2000373
:401B40001A6497F81231002B3FF4E4AE4AF23403C1F6FF734FF000021A6440F27473C2F200034FF000021A6406F0C2B941F29003C2F200031B78002B06F0AD8141F29000A8
:401B8000C2F2000042F69021C0F2020114F09EF80346002B0CD041F29000C2F2000042F69421C0F2020114F091F80346002B31D1B84B1B78002B25D142F69C20C0F202006E
:401BC00013F0CEFF42F6C820C0F2020013F0C8FF42F6F020C0F2020013F0C2FF42F61C30C0F2020013F0BCFF42F65430C0F2020013F0B6FF42F69830C0F2020013F0B0FF33
:401C000006F076B942F64400C0F2020013F054FF06F06EB941F29000C2F2000042F6EC31C0F2020114F052F80346002B2BD1994B1B78002B1FD142F6F430C0F2020013F0F8
:401C40008FFF42F60440C0F2020013F089FF42F62C40C0F2020013F083FF42F67C40C0F2020013F07DFF42F6C840C0F2020013F077FF06F03DB942F64400C0F2020013F08B
:401C80001BFF06F035B941F29000C2F2000042F6FC41C0F2020114F019F80346002B1AD041F29000C2F2000042F60051C0F2020114F00CF80346002B0DD041F29000C2F28D
:401CC000000042F60451C0F2020113F0FFFF0346002B40F07F846F4B1B78002B40F0DC8042F60C50C0F2020013F03AFF42F63050C0F2020013F034FF42F66450C0F2020030
:401D000013F02EFF42F69450C0F2020013F028FF42F6B050C0F2020013F022FF42F6CC50C0F2020013F01CFF42F6EC50C0F2020013F016FF42F61460C0F2020013F010FF91
:401D400042F63460C0F2020013F00AFF42F64C60C0F2020013F004FF42F27450C0F2020013F0FEFE42F68060C0F2020013F0F8FE42F6A860C0F2020013F0F2FE42F6D0607A
:401D8000C0F2020013F0ECFE42F6FC60C0F2020013F0E6FE42F27450C0F2020013F0E0FE42F62C70C0F2020013F0DAFE42F6A860C0F2020013F0D4FE42F65470C0F20200EA
:401DC00013F0CEFE42F68C70C0F2020013F0C8FE42F6C470C0F2020013F0C2FE42F27450C0F2020013F0BCFE43F21400C0F2020013F0B6FE42F6A860C0F2020013F0B0FEBE
:401E000043F23C00C0F2020013F0AAFE43F26800C0F2020013F0A4FE43F29400C0F2020013F09EFE43F2E800C0F2020013F098FE43F22C10C0F2020013F092FE43F27010E9
:401E4000C0F2020013F08CFE42F27450C0F2020013F086FE43F2A810C0F2020013F080FE42F6A860C0F2020013F07AFE43F2D010C0F2020013F074FE43F20C20C0F202000A
:401E800013F06EFE42F27450C0F2020013F068FE06F02EB89F100020DB4843F25021C0F2020113F013FF0346002B40F0AF8142F69450C0F2020013F053FE43F25420C0F20D
:401EC000020013F04DFE43F26020C0F2020013F047FE43F29C20C0F2020013F041FE43F2D820C0F2020013F03BFE43F21430C0F2020013F035FE43F25030C0F2020013F00E
:401F00002FFE43F28C30C0F2020013F029FE43F2C830C0F2020013F023FE43F20440C0F2020013F01DFE43F24040C0F2020013F017FE43F27C40C0F2020013F011FE43F2E8
:401F4000B840C0F2020013F00BFE43F2F840C0F2020013F005FE43F23850C0F2020013F0FFFD43F27C50C0F2020013F0F9FD43F2C850C0F2020013F0F3FD43F21460C0F215
:401F8000020013F0EDFD43F26460C0F2020013F0E7FD43F2B460C0F2020013F0E1FD43F2FC60C0F2020013F0DBFD43F24070C0F2020013F0D5FD43F28C70C0F2020013F04A
:401FC000CFFD43F2D870C0F2020013F0C9FD43F62800C0F2020013F0C3FD43F67800C0F2020013F0BDFD43F6C000C0F2020013F0B7FD43F61810C0F2020013F0B1FD43F6BE
:402000005410C0F2020013F0ABFD43F69C10C0F2020013F0A5FD43F6EC10C0F2020013F09FFD43F63420C0F2020013F099FD43F67420C0F2020013F093FD43F6B420C0F26A
:40204000020013F08DFD43F60430C0F2020013F087FD43F64C30C0F2020013F081FD43F68C30C0F2020013F07BFD43F6CC30C0F2020013F075FD43F61040C0F2020013F07D
:402080006FFD43F65440C0F2020013F069FD43F69840C0F2020013F063FD43F6DC40C0F2020013F05DFD43F62450C0F2020013F057FD43F66C50C0F2020013F051FD43F651
:4020C000B850C0F2020013F04BFD43F60460C0F2020013F045FD43F65060C0F2020013F03FFD43F69460C0F2020013F039FD43F6E060C0F2020013F033FD43F61470C0F27E
:40210000020013F02DFD42F27450C0F2020013F027FD43F64470C0F2020013F021FD43F66C70C0F2020013F01BFD43F69870C0F2020013F015FD43F6C470C0F2020013F0C9
:402140000FFD43F6F070C0F2020013F009FD44F21C00C0F2020013F003FD44F24800C0F2020013F0FDFC44F27400C0F2020013F0F7FC44F2A000C0F2020013F0F1FC44F2C2
:40218000E000C0F2020013F0EBFC44F23C10C0F2020013F0E5FC44F27410C0F2020013F0DFFC44F29410C0F2020013F0D9FC44F2BC10C0F2020013F0D3FC44F2E010C0F275
:4021C000020013F0CDFC44F21420C0F2020013F0C7FC44F22C20C0F2020013F0C1FC44F26820C0F2020013F0BBFC44F2C420C0F2020013F0B5FC44F22030C0F2020013F04C
:40220000AFFC05F075BE00BF9F100020F04844F28431C0F2020113F059FD0346002B40F0DA8042F66450C0F2020013F099FC43F25420C0F2020013F093FC44F28C30C0F243
:40224000020013F08DFC44F2C030C0F2020013F087FC44F2F830C0F2020013F081FC44F22C40C0F2020013F07BFC44F26840C0F2020013F075FC44F2AC40C0F2020013F02F
:402280006FFC44F2E040C0F2020013F069FC44F22450C0F2020013F063FC44F27050C0F2020013F05DFC44F2A850C0F2020013F057FC44F2E850C0F2020013F051FC44F29B
:4022C0002860C0F2020013F04BFC44F28060C0F2020013F045FC44F2D860C0F2020013F03FFC44F21C70C0F2020013F039FC44F26070C0F2020013F033FC44F2A070C0F258
:40230000020013F02DFC44F2D070C0F2020013F027FC44F61400C0F2020013F021FC44F65800C0F2020013F01BFC44F6A400C0F2020013F015FC44F6E800C0F2020013F01E
:402340000FFC44F62C10C0F2020013F009FC44F67810C0F2020013F003FC44F6A810C0F2020013F0FDFB44F6E410C0F2020013F0F7FB44F62020C0F2020013F0F1FB44F6D9
:402380005C20C0F2020013F0EBFB44F6A020C0F2020013F0E5FB44F6E420C0F2020013F0DFFB44F62430C0F2020013F0D9FB44F66C30C0F2020013F0D3FB44F6A430C0F270
:4023C000020013F0CDFB44F6EC30C0F2020013F0C7FB05F08DBD7E4844F61041C0F2020113F074FC0346002B7FD144F61440C0F2020013F0B5FB44F62440C0F2020013F07B
:40240000AFFB44F63440C0F2020013F0A9FB44F64440C0F2020013F0A3FB44F65040C0F2020013F09DFB44F65C40C0F2020013F097FB44F66C40C0F2020013F091FB44F63B
:402440007C40C0F2020013F08BFB44F68C40C0F2020013F085FB44F69C40C0F2020013F07FFB44F6A840C0F2020013F079FB44F6B440C0F2020013F073FB44F6C840C0F24B
:40248000020013F06DFB44F6DC40C0F2020013F067FB44F6F440C0F2020013F061FB44F60850C0F2020013F05BFB44F61C50C0F2020013F055FB44F63450C0F2020013F0FE
:4024C0004FFB44F64C50C0F2020013F049FB44F65850C0F2020013F043FB44F66850C0F2020013F03DFB05F003BD394844F67851C0F2020113F0EAFB0346002B13D144F6A1
:402500008050C0F2020013F02BFB43F25420C0F2020013F025FB44F6A450C0F2020013F01FFB05F0E5BC2A4842F6EC31C0F2020113F0CCFB0346002B13D142F6B050C0F251
:40254000020013F00DFB43F25420C0F2020013F007FB44F6B050C0F2020013F001FB05F0C7BC1B4842F69421C0F2020113F0AEFB0346002B09D0164842F69021C0F202018D
:4025800013F0A4FB0346002B19D142F6EC50C0F2020013F0E5FA43F25420C0F2020013F0DFFA44F6BC50C0F2020013F0D9FA44F6C850C0F2020013F0D3FA05F099BC44F6AE
:4025C000D050C0F2020013F077FA05F091BC00BF9F10002041F29000C2F2000044F28431C0F2020113F072FB0346002B0DD041F29000C2F2000044F6EC51C0F2020113F045
:4026000065FB0346002B42F0EA87104844F6F051C0F2020113F05AFB0346002B0ED00B4844F6F851C0F2020113F050FB0346002B04D0064B1B78002B40F0D38244F60060A2
:40264000C0F2020013F038FABDE200BF9F10002044F60860C0F2020013F02EFA44F60C60C0F2020013F07CFA44F63060C0F2020013F076FA44F60C60C0F2020013F070FA38
:4026800042F27450C0F2020013F06AFA4AF23403C1F6FF73DB68184612F074F902460B4644F65460C0F2020013F006FA4FF0010007F040FB40F27473C2F20003DB6818463A
:4026C00012F060F902460B4644F67460C0F2020013F0F2F942F27450C0F2020013F040FA4AF23403C1F6FF735B6C184612F06AFD034618464FF00001C4F2B43112F0B6FDEC
:4027000003461A464AF23403C1F6FF73DB681046194612F05FFE0346184612F033F902460B4644F69460C0F2020013F0C5F94FF00D0007F0FFFA40F27473C2F200035B6C19
:40274000184612F03FFD034618464FF00001C4F2B43112F08BFD03461A4640F27473C2F20003DB681046194612F034FE0346184612F008F902460B4644F6AC60C0F20200CF
:4027800013F09AF942F27450C0F2020013F0E8F942F27450C0F2020013F0E2F94AF23403C1F6FF735B6C184612F00CFD0346184612F0E8F802460B4644F6C460C0F2020069
:4027C00013F07AF94FF00E0007F0B4FA40F27473C2F200035B6C184612F0F4FC0346184612F0D0F802460B4644F6DC60C0F2020013F062F942F27450C0F2020013F0B0F9A0
:402800004AF23403C1F6FF735B6B184612F0DAFC0346184612F0B6F802460B4644F6F460C0F2020013F048F94FF0090007F082FA40F27473C2F200035B6B184612F0C2FC1B
:402840000346184612F09EF802460B4644F61070C0F2020013F030F942F27450C0F2020013F07EF94AF23403C1F6FF73DB6B184612F0A8FC0346184612F084F802460B461C
:4028800044F62C70C0F2020013F016F94FF0090007F050FA40F27473C2F20003DB6B184612F090FC0346184612F06CF802460B4644F64870C0F2020013F0FEF842F27450B4
:4028C000C0F2020013F04CF942F27450C0F2020013F046F94AF23403C1F6FF739B6D184612F050F802460B4644F66470C0F2020013F0E2F84FF0150007F01CFA40F27473F0
:40290000C2F200039B6D184612F03CF802460B4644F67470C0F2020013F0CEF842F27450C0F2020013F01CF94AF23403C1F6FF735B6E184612F026F802460B4644F68470A2
:40294000C0F2020013F0B8F84FF0140007F0F2F940F27473C2F200035B6E184612F012F802460B4644F69470C0F2020013F0A4F842F27450C0F2020013F0F2F84AF2340382
:40298000C1F6FF731B6E184611F0FCFF02460B4644F6A470C0F2020013F08EF84FF0140007F0C8F940F27473C2F200031B6E184611F0E8FF02460B4644F6B470C0F2020092
:4029C00013F07AF842F27450C0F2020013F0C8F84AF23403C1F6FF731B6F184611F0D2FF02460B4644F6C470C0F2020013F064F84FF0160007F09EF940F27473C2F20003D0
:402A00001B6F184611F0BEFF02460B4644F6D470C0F2020013F050F842F27450C0F2020013F09EF84AF23403C1F6FF73B3F874309BB244F6E470C0F20200194613F03CF885
:402A40004FF0130007F076F940F27473C2F20003B3F874309BB244F6F470C0F20200194613F02AF842F27450C0F2020013F078F848F65422C1F6FF7245F20403C0F202036C
:402A800014460FCB07C423704FF0320048F65421C1F6FF7107F0B4F94AF23403C1F6FF731B6F184612F0A8FD03469BB21BB218464FF400714FF0320248F65423C1F6FF73A4
:402AC00007F050F948F65422C1F6FF7245F21403C0F2020314460FCB07C4237040F27473C2F200031B6F184612F086FD03469BB21BB218464FF400714FF0320248F6542349
:402B0000C1F6FF7307F02EF94FF0320048F65421C1F6FF7107F074F942F27450C0F2020013F01EF845F22400C0F2020013F018F845F23000C0F2020013F012F845F23C001D
:402B4000C0F2020012F0B8FF48F61C23C1F6FF731B78062B06D145F24C00C0F2020012F0FFFF13E048F61C23C1F6FF731B78052B06D145F26400C0F2020012F0F1FF05E017
:402B800045F27800C0F2020012F0EAFF48F62823C1F6FF731B881A4648F62A23C1F6FF731B8845F29C00C0F2020011461A4612F083FF42F27450C0F2020012F0D1FF4FF03C
:402BC00032000FF0C5FA05F09FF90346002B3FF43FAD42F27450C0F2020012F0C1FF05F087B9C54845F2C801C0F2020113F06EF80346002B00F08C80BF4845F2D001C0F2C6
:402C0000020113F063F80346002B40F08A807FE041F27C03C2F200031B881BB245F2D400C0F20200194612F047FF41F27C03C2F200035B881BB245F2DC00C0F202001946A8
:402C400012F03AFF41F27C03C2F200039B881BB245F2E800C0F20200194612F02DFF41F27C03C2F20003DB881BB245F2F400C0F20200194612F020FF41F27C03C2F20003FF
:402C80001B891BB245F2FC00C0F20200194612F013FF41F27C03C2F200035B891BB245F20410C0F20200194612F006FF41F27C03C2F200039B891BB245F20C10C0F2020069
:402CC000194612F0F9FE41F27C03C2F20003DB891BB245F21810C0F20200194612F0ECFE41F27C03C2F200031B8A1BB245F22410C0F20200194612F0DFFE42F27450C0F2A2
:402D0000020012F02DFF4FF032000FF021FA00E000BF05F0F9F80346002B3FF479AF05F0E7B8754845F23011C0F2020112F0CEFF0346002B35D12DE041F27C03C2F2000347
:402D40009B881BB2184612F03DFA0346184611F019FE02460B46104619464FF000024FF00003C4F2140311F061FE02460B46104619465FA3D3E9002311F082FF02460B46C5
:402D800045F23410C0F2020012F096FE4FF064000FF0DEF905F0B8F80346002BCCD005F0A7B8554845F24811C0F2020112F08EFF0346002B65D0504845F25011C0F20201CD
:402DC00012F084FF0346002B63D15AE04AF23403C1F6FF739B6F184611F0D4FD04460D4640F27473C2F200039B6F184611F0CAFD02460B46CDE9002345F25410C0F2020038
:402E000022462B4612F058FE11F02EF9034645F28010C0F20200194612F04EFE11F024F9034603F00103002B06D145F29810C0F2020012F041FE05E045F2AC10C0F2020008
:402E400012F03AFE11F010F9034603F00203002B06D145F2C010C0F2020012F02DFE05E045F2D410C0F2020012F026FE4FF064000FF06EF942F27450C0F2020012F070FEE4
:402E800000E000BF05F040F80346002B9ED005F02FB8194845F2E411C0F2020112F016FF0346002B0AD0144845F2F011C0F2020112F00CFF0346002B40F0CB8011F03AF968
:402EC00040F66020C2F200000CF0D2FA4AF2C800C1F6FF700CF0A6FD45F2F410C0F2020012F03EFE4FF4FA700FF032F974E000BF0000000000FEAF409F1000204AF2C80000
:402F0000C1F6FF700CF0BEFC0346184611F03AFD04460D460CF06EFB0346184611F032FDC7E904014AF2C800C1F6FF700CF0E8FC0346184611F026FDC7E9020140F660200A
:402F4000C2F200000CF060FB0346184611F01AFDC7E9000140F66020C2F200000CF060FB0346184611F00EFD82468B4640F66020C2F200000CF0E6FB0346184611F002FDDB
:402F80008046894640F66020C2F200000CF0E8FB0346184611F0F6FC02460B46D7E90401CDE90001D7E90201CDE90201D7E90001CDE90401CDE906ABCDE90889CDE90A23FB
:402FC00045F20420C0F2020022462B4612F074FD4FF01E000FF0BCF804F096FF0346002B8CD040F66020C2F200000CF04DFA11F0B3F84AF2C800C1F6FF7040F66021C2F21F
:4030000000010CF01FFD0346184611F0BBFC04460D464AF2C800C1F6FF7040F66021C2F200014FF00002C4F27A420CF03FFD0346184611F0A7FC02460B46CDE9002345F206
:403040008020C0F2020022462B4612F035FD04F04FBF834845F2C821C0F2020112F036FE0346002B0AD07E4845F2D421C0F2020112F02CFE0346002B40F0C48011F05AF8BB
:4030800040F69810C2F200000CF0F2F940F68800C2F200000CF0C6FC45F2D820C0F2020012F05EFD4FF4FA700FF052F86DE040F68800C2F200000CF0E5FB0346184611F0EE
:4030C00061FC04460D460CF095FA0346184611F059FCC7E90A0140F68800C2F200000CF00FFC0346184611F04DFCC7E9080140F69810C2F200000CF087FA0346184611F0B9
:4031000041FCC7E9060140F69810C2F200000CF087FA0346184611F035FC82468B4640F69810C2F200000CF00DFB0346184611F029FC8046894640F69810C2F200000CF094
:403140000FFB0346184611F01DFC02460B46D7E90A01CDE90001D7E90801CDE90201D7E90601CDE90401CDE906ABCDE90889CDE90A2345F20420C0F2020022462B4612F0EA
:403180009BFC4FF01E000EF0E3FF04F0BDFE0346002B8CD040F69810C2F200000CF074F910F0DAFF40F68800C2F2000040F69811C2F200010CF046FC0346184611F0E2FB1F
:4031C00004460D4640F68800C2F2000040F69811C2F200014FF00002C4F27A420CF066FC0346184611F0CEFB02460B46CDE9002345F28020C0F2020022462B4612F05CFC7A
:4032000004F076BE164845F2E821C0F2020112F05DFD0346002B0AD0114845F2F421C0F2020112F053FD0346002B40F0D28010F081FF40F66020C2F200000CF019F94AF293
:40324000C800C1F6FF700CF0EDFB45F2F410C0F2020012F085FC4FF4FA700EF079FF7BE09F1000204AF2C800C1F6FF700CF00AFB0346184611F086FB04460D460CF0BAF91D
:403280000346184611F07EFBC7E910014AF2C800C1F6FF704FF00001C4F278210CF0A8FB0346184611F06EFBC7E90E0140F66020C2F200000CF0A8F90346184611F062FBF8
:4032C000C7E90C0140F66020C2F200004FF00001C4F278210CF01CFA0346184611F052FB82468B4640F66020C2F200000CF02AFA0346184611F046FB8046894640F66020BA
:40330000C2F200004FF00001C4F278210CF0A0FA0346184611F036FB02460B46D7E91001CDE90001D7E90E01CDE90201D7E90C01CDE90401CDE906ABCDE90889CDE90A2319
:4033400045F2F820C0F2020022462B4612F0B4FB4FF01E000EF0FCFE04F0D6FD0346002B80D040F66020C2F200000CF08DF810F0F3FE4AF2C800C1F6FF7040F66021C2F26F
:4033800000010CF05FFB0346184611F0FBFA04460D464AF2C800C1F6FF7040F66021C2F200014FF00002C4F27A420CF07FFB0346184611F0E7FA02460B46CDE9002345F28B
:4033C0008020C0F2020022462B4612F075FB04F08FBDC84845F27431C0F2020112F076FC0346002B0AD0C34845F28031C0F2020112F06CFC0346002B40F0D08010F09AFEED
:4034000040F69810C2F200000CF032F840F68800C2F200000CF006FB45F2D820C0F2020012F09EFB4FF4FA700EF092FE79E040F68800C2F200000CF025FA0346184611F01E
:40344000A1FA04460D460CF0D5F80346184611F099FAC7E9160140F68800C2F200004FF00001C4F22C310CF0C3FA0346184611F089FAC7E9140140F69810C2F200000CF04D
:40348000C3F80346184611F07DFAC7E9120140F69810C2F200004FF00001C4F22C310CF037F90346184611F06DFA82468B4640F69810C2F200000CF045F90346184611F042
:4034C00061FA8046894640F69810C2F200004FF00001C4F22C310CF0BBF90346184611F051FA02460B46D7E91601CDE90001D7E91401CDE90201D7E91201CDE90401CDE95B
:4035000006ABCDE90889CDE90A2345F2F820C0F2020022462B4612F0CFFA4FF01E000EF017FE04F0F1FC0346002B80D040F69810C2F200000BF0A8FF10F00EFE40F68800F6
:40354000C2F2000040F69811C2F200010CF07AFA0346184611F016FA04460D4640F68800C2F2000040F69811C2F200014FF00002C4F27A420CF09AFA0346184611F002FA51
:4035800002460B46CDE9002345F28020C0F2020022462B4612F090FA04F0AABC554845F28431C0F2020112F091FB0346002B0AD0504845F28C31C0F2020112F087FB034627
:4035C000002B40F0998010F0B5FD4AF2C800C1F6FF700CF001F840F63020C2F200000BF07FFF45F2F410C0F2020012F0B9FA4FF4FA700EF0ADFD6DE04AF2C800C1F6FF7063
:403600000CF07EF9C7F894004AF2C800C1F6FF700CF044F9C7F890004AF2C800C1F6FF700CF04AF9C7F88C004AF2C800C1F6FF700CF0AEF9C7F8880040F63020C2F2000010
:403640000CF036F8C7F8840040F63020C2F200000CF0CEF8C7F88000D7F8940011F092F904460D46D7F8900011F08CF9C7E91A01D7F88C0011F086F9C7E91801D7F888006B
:4036800011F080F982468B46D7F8840011F07AF980468946D7F8800011F074F902460B46D7E91A01CDE90001D7E91801CDE90201CDE904ABCDE90689CDE9082345F290309F
:4036C000C0F2020022462B4612F0F6F94FF01E000EF03EFD04F018FC0346002B8CD040F63020C2F200000BF007FF10F035FD04F0FFBB00BF9F100020BC4845F2F431C0F223
:40370000020112F0E3FA0346002B0AD0B74845F2FC31C0F2020112F0D9FA0346002B40F0968010F007FD40F68800C2F200000BF053FF40F66810C2F200000BF0D1FE45F28C
:40374000D820C0F2020012F00BFA4FF4FA700EF0FFFC6DE040F68800C2F200000CF0D0F8C7F8AC0040F68800C2F200000CF096F8C7F8A80040F68800C2F200000CF09CF89D
:40378000C7F8A40040F68800C2F200000CF000F9C7F8A00040F66810C2F200000BF088FFC7F89C0040F66810C2F200000CF020F8C7F89800D7F8AC0011F0E4F804460D46DF
:4037C000D7F8A80011F0DEF8C7E91E01D7F8A40011F0D8F8C7E91C01D7F8A00011F0D2F882468B46D7F89C0011F0CCF880468946D7F8980011F0C6F802460B46D7E91E0165
:40380000CDE90001D7E91C01CDE90201CDE904ABCDE90689CDE9082345F29030C0F2020022462B4612F048F94FF01E000EF090FC04F06AFB0346002B8CD040F66810C2F277
:4038400000000BF059FE10F087FC04F051BB674845F20041C0F2020112F038FA0346002B09D0624845F20C41C0F2020112F02EFA0346002B4DD145F21440C0F2020012F036
:403880001BF940F60833C2F200035B68184611F079F802460B4645F22C40C0F2020012F00BF940F60833C2F200031B69184611F069F802460B4645F24040C0F2020012F0D1
:4038C000FBF840F60833C2F20003DB68184611F059F802460B4645F25440C0F2020012F0EBF840F60833C2F200035B69184611F049F802460B4645F26840C0F2020012F003
:40390000DBF842F27450C0F2020012F029F904F0EFBA364845F27C41C0F2020112F0D6F90346002B09D0314845F28841C0F2020112F0CCF90346002B4DD145F29040C0F2C2
:40394000020012F0B9F848F66433C1F6FF735B68184611F017F802460B4645F22C40C0F2020012F0A9F848F66433C1F6FF731B69184611F007F802460B4645F24040C0F2EE
:40398000020012F099F848F66433C1F6FF73DB68184610F0F7FF02460B4645F25440C0F2020012F089F848F66433C1F6FF735B69184610F0E7FF02460B4645F26840C0F212
:4039C000020012F079F842F27450C0F2020012F0C7F804F08DBA054845F2A841C0F2020112F074F90346002B3AD132E09F10002041F27C03C2F200031B8A1BB245F2B040B7
:403A0000C0F20200194612F057F84AF23403C1F6FF73DB6F184610F0B5FF02460B4645F2D040C0F2020012F047F840F27473C2F20003DB6F184610F0A5FF02460B4645F269
:403A4000EC40C0F2020012F037F84FF00A000EF07FFB04F059FA0346002BC9D004F048BAB34845F20851C0F2020112F02FF90346002B39D0AE4845F21451C0F2020112F0FA
:403A800025F90346002B37D12EE040F63C13C2F20003DB68184610F075FF04460D4640F63C13C2F200031B69184610F06BFF8046894640F63C13C2F200035B69184610F0F5
:403AC00061FF02460B46CDE90089CDE9022345F21C50C0F2020022462B4611F0EDFF4FF032000EF035FB00E000BF04F00DFA0346002BCAD004F0FCB98D4845F27051C0F227
:403B0000020112F0E3F80346002B00F08180884845F27C51C0F2020112F0D8F80346002B7ED175E040F6DC73C2F20003DB68184610F028FF04460D4640F6DC73C2F20003F0
:403B40001B881BB2009345F28450C0F2020022462B4611F0B1FF40F6DC73C2F20003DB69184610F00FFF04460D4640F6DC73C2F200031B8A1BB2009345F29850C0F202005C
:403B800022462B4611F098FF40F6DC73C2F20003DB6A184610F0F6FE04460D4640F6DC73C2F200031B8C1BB2009345F2AC50C0F2020022462B4611F07FFF40F6DC73C2F269
:403BC00000035B6B184610F0DDFE02460B4645F2C050C0F2020011F06FFF40F6DC73C2F200039B6B184610F0CDFE02460B4645F2D450C0F2020011F05FFF42F27450C0F2A4
:403C0000020011F0ADFF4FF032000EF0A1FA00E000BF04F079F90346002B83D004F068B9434845F2E851C0F2020112F04FF80346002B69D03E4845F2F051C0F2020112F08F
:403C400045F80346002B5FD0394845F2F851C0F2020112F03BF80346002B5DD154E045F20060C0F2020011F027FF40F69423C2F20003DB6845F20860C0F20200194611F097
:403C80001BFF40F69423C2F200031B7C45F22060C0F20200194611F00FFF40F69423C2F200031B7D45F23060C0F20200194611F003FF40F69423C2F200039B7C45F240602B
:403CC000C0F20200194611F0F7FE40F69423C2F200031B7845F24C60C0F20200194611F0EBFE40F69423C2F200031B781846FCF7B3FB42F27450C0F2020011F031FF4FF052
:403D000032000EF025FA00E000BF04F0FDF80346002BA4D004F0ECB8054845F25861C0F2020111F0D3FF0346002B52D14AE000BF9F10002045F26060C0F2020011F0BCFEB2
:403D40004AF22803C1F6FF735B7845F26C60C0F20200194611F0B0FE4AF22803C1F6FF739B7845F27860C0F20200194611F0A4FE4AF22803C1F6FF739B8845F28460C0F233
:403D80000200194611F098FE4AF22803C1F6FF731B7845F29460C0F20200194611F08CFE4AF22803C1F6FF731B781846FCF7BEFB42F27450C0F2020011F0D2FE4FF0320004
:403DC0000EF0C6F904F0A0F80346002BB2D004F08FB8C84845F2A461C0F2020111F076FF0346002B42D0C34845F2AC61C0F2020111F06CFF0346002B40D137E00DF052FBF6
:403E0000034645F2B060C0F20200194611F054FE0DF048FB0346012B06D145F2C060C0F2020011F049FE16E00DF03CFB0346022B06D145F2C860C0F2020011F03DFE0AE0FD
:403E40000DF030FB0346042B05D145F2D060C0F2020011F031FE42F27450C0F2020011F07FFE4FF032000EF073F900E000BF04F04BF80346002BC1D004F03AB89D4845F29F
:403E8000D861C0F2020111F021FF0346002B25D0984845F2E061C0F2020111F017FF0346002B23D11AE040F6DC73C2F200039B6B184610F067FD02460B4645F2E860C0F236
:403EC000020011F0F9FD42F27450C0F2020011F047FE4FF032000EF03BF900E000BF04F013F80346002BDED004F002B8814845F22871C0F2020111F0E9FE0346002B6DD0DF
:403F00007C4845F23471C0F2020111F0DFFE0346002B6BD162E04AF23403C1F6FF735B6C42F6B810C0F20200194611F0C5FD40F64C03C2F200035B68184611F05DFB034624
:403F400045F23870C0F20200194611F0B5FD40F64C03C2F200031B69184610F013FD02460B4645F25070C0F2020011F0A5FD40F27473C2F200035B6C45F26070C0F2020035
:403F8000194611F099FD40F6C423C2F200035B68184611F031FB034645F23870C0F20200194611F089FD40F6C423C2F200031B69184610F0E7FC02460B4645F25070C0F24C
:403FC000020011F079FD42F27450C0F2020011F0C7FD4FF032000EF0BBF800E000BF03F093FF0346002B96D003F082BF414845F28071C0F2020111F069FE0346002B09D068
:404000003C4845F28871C0F2020111F05FFE0346002B42D145F29070C0F2020011F0A0FD45F2E470C0F2020011F046FD4FF0010003F078FF0346012B43F04F870DF0AAF95E
:404040004FF400700EF0A6FD4FF400700FF0A8FD18E00EF0F7FA034645F61400C0F20200194611F029FD0FF0F1FB034645F62400C0F20200194611F01FFD03F045FF034699
:40408000012B05D003F040FF0346002BE1D000E000BF0DF06DF903F020BF164845F63801C0F2020111F012FE0346002B49D0114845F64401C0F2020111F008FE0346002BA6
:4040C00047D13EE00FF0D0FF034645F64800C0F20200194611F0F0FC0FF0C6FF034603F00103002B08D145F65C00C0F2020011F0E3FC07E09F10002045F67000C0F20200A8
:4041000011F0DAFC0FF0B0FF034603F00203002B06D145F68400C0F2020011F0CDFC05E045F69C00C0F2020011F0C6FC42F27450C0F2020011F014FD4FF032000EF008F81A
:4041400000E000BF03F0E0FE0346002BBAD003F0CFBEB34844F61041C0F2020111F0B6FD0346002B0AD0AE4845F6B001C0F2020111F0ACFD0346002B40F04381A94845F63F
:40418000B801C0F2020111F0A1FD0346002B44D14FF0000387F8FF303AE097F9FF1040F63832C2F200020B464FEAC3035B184FEA8303D3181B78002B0AD197F9FF309BB258
:4041C00045F6BC00C0F20200194611F075FC19E097F9FF309BB21C4697F9FF1040F63832C2F200020B464FEAC3035B184FEA8303D3181B7845F6DC00C0F2020021461A4655
:4042000011F05AFC97F8FF3003F1010387F8FF3097F9FF30202BC0DDF1E0824811F08CFA034687F8E53097F8E530002B00F0DF807C4811F081FA034687F8E53097F8E5303E
:40424000632B00F2D48097F8E52040F6CC13C2F200039B5CFF2B00F0C08097F8E56097F8E52040F6CC13C2F200039B5C194640F63832C2F200020B464FEAC3035B184FEADD
:404280008303D31803F118031B68184611F0B4F9054697F8E52040F6CC13C2F200039B5C194640F63832C2F200020B464FEAC3035B184FEA8303D31803F104031B6818464F
:4042C00011F09AF9044697F8E52040F6CC13C2F200039B5C194640F63832C2F200020B464FEAC3035B184FEA8303D31803F108031B891BB2009345F60010C0F202003146EE
:404300002A46234611F0D8FB97F8E56097F8E52040F6CC13C2F200039B5C194640F63832C2F200020B464FEAC3035B184FEA8303D31803F11C031B68184611F05DF90546ED
:4043400097F8E52040F6CC13C2F200039B5C194640F63832C2F200020B464FEAC3035B184FEA8303D31803F108031B68184611F043F9044697F8E52040F6CC13C2F20003FD
:404380009B5C194640F63832C2F200020B464FEAC3035B184FEA8303D31803F10A031B891BB2009345F66010C0F2020031462A46234611F081FB97F8E52097F8E51040F665
:4043C000CC13C2F200035B5C45F6C010C0F2020011461A4611F070FB11E097F8E53045F6F410C0F20200194611F066FB07E045F61020C0F2020011F05FFB03F079BD03F0C8
:4044000077BD074845F63021C0F2020111F05EFC0346002B48D1034B1B78002B3AD133E09F100020AE10002040F60803C2F200035B681A4640F6A803C2F200035B6845F648
:404440003820C0F2020011461A4611F035FB40F60803C2F200031B781A4640F6A803C2F200031B7845F65820C0F2020011461A4611F022FB42F27450C0F2020011F070FBDE
:404480004FF032000DF064FE03F03EFD0346002BCAD007E045F61020C0F2020011F00CFB03F026BD03F024BDD44845F66C21C0F2020111F00BFC0346002B1ED1D04811F01B
:4044C0003BF9034687F8EA30CD4811F035F9034687F8EA3097F8EA30312B06D897F8EA30184609F015FF03F003BD45F61020C0F2020011F0E1FA03F0FBBCC04845F670215D
:40450000C0F2020111F0E2FB0346002B28D0BB4845F67C21C0F2020111F0D8FB0346002B26D11DE04AF23403C1F6FF7393F8843045F68420C0F20200194611F0BDFA4AF2EF
:404540003400C1F6FF70FCF7F9FA42F27450C0F2020011F005FB4FF032000DF0F9FD00E000BF03F0D1FC0346002BDBD003F0C0BCA24845F69421C0F2020111F0A7FB034682
:40458000002B28D09D4845F6A021C0F2020111F09DFB0346002B26D11DE040F27473C2F2000393F8843045F6A820C0F20200194611F082FA40F27470C2F20000FCF7BEFA2A
:4045C00042F27450C0F2020011F0CAFA4FF032000DF0BEFD00E000BF03F096FC0346002BDBD003F085BC854845F6B821C0F2020111F06CFB0346002B0AD0804845F6C42176
:40460000C0F2020111F062FB0346002B40F0038145F29070C0F2020011F0A2FA45F6CC20C0F2020011F048FA4FF0010003F07AFC0346012B40F0EB800CF0ACFE4AF23400CA
:40464000C1F6FF7006F09AF940F27470C2F2000006F094F940F64C03C2F200034FF000029A624FF0000387F81231CBE041F27C03C2F200039B891BB245F60030C0F202009D
:40468000194611F019FA0DF0DDFF034645F61C30C0F20200194611F00FFA40F64C03C2F200039B6A184610F06DF902460B4645F62C30C0F2020011F0FFF942F27450C0F235
:4046C000020011F04DFA0CF059FD034687F8123197F81231722B03D097F81231522B1CD10DF0B0FF024640F64C03C2F200039A6141F27C03C2F200039B891AB240F64C038C
:40470000C2F20003DA6145F64430C0F2020011F027FA4FF0000387F8123197F81231732B03D097F81231532B46D10DF08BFF024640F64C03C2F200039B69D31A184610F0FA
:4047400041FD024640F64C03C2F200031A6241F27C03C2F200039B891AB240F64C03C2F20003DB69D31A184610F02CFD024640F64C03C2F200035A6240F64C03C2F2000332
:404780001A6A40F64C03C2F200035B6A1046194610F020FE034623F0004240F64C03C2F200039A6245F65C30C0F2020011F0D8F94FF0000387F8123197F81231652B03D045
:4047C00097F81231452B1DD140F64C03C2F200039A6A40F64C03C2F200039A6300BF0CF0C7FD03F00BFD034687F8D93045F68030C0F2020011F0B4F903F07ABB9F10002081
:40480000AE10002097F81231002B3FF42FAF0CF0AFFD03F06DBBBB4845F6B031C0F2020111F054FA0346002B0AD0B64845F6BC31C0F2020111F04AFA0346002B40F0FF8015
:4048400045F29070C0F2020011F08AF945F6CC20C0F2020011F030F94FF0010003F062FB0346012B40F0E7800CF094FD4AF23400C1F6FF7006F082F840F27470C2F20000CB
:4048800006F07CF840F6C423C2F200034FF000029A624FF0000387F81231C7E041F27C03C2F20003DB891BB245F6C430C0F20200194611F001F90EF0C9FF034645F61C3065
:4048C000C0F20200194611F0F7F840F6C423C2F200039B6A184610F055F802460B4645F62C30C0F2020011F0E7F842F27450C0F2020011F035F90CF041FC034687F812314E
:4049000097F81231722B03D097F81231522B1CD10EF09CFF024640F6C423C2F200039A6141F27C03C2F20003DB891AB240F6C423C2F20003DA6145F64430C0F2020011F03D
:404940000FF94FF0000387F8123197F81231732B03D097F81231532B46D10EF077FF024640F6C423C2F200039B69D31A184610F029FC024640F6C423C2F200031A6241F2B2
:404980007C03C2F20003DB891AB240F6C423C2F20003DB69D31A184610F014FC024640F6C423C2F200035A6240F6C423C2F200031A6A40F6C423C2F200035B6A10461946A0
:4049C00010F008FD034623F0004240F6C423C2F200039A6245F65C30C0F2020011F0C0F84FF0000387F8123197F81231652B03D097F81231452B19D140F6C423C2F20003D7
:404A00009A6A40F6C423C2F200039A6300BF0CF0AFFC03F0F3FB034687F8D93045F6E030C0F2020011F09CF803F062BA97F81231002B3FF433AF0CF09BFC03F059BA3148C2
:404A400045F61041C0F2020111F040F90346002B09D02C4845F61841C0F2020111F036F90346002B50D140F60033C2F200031B88002B07D145F62040C0F2020011F070F86E
:404A800003F02DBA40F60033C2F200031B8803F00803002B14D045F63040C0F2020011F05FF840F60033C2F200031B8803F00203002B05D045F65440C0F2020011F050F80E
:404AC00040F60033C2F200031B8803F01003002B03F0058245F68840C0F2020011F040F840F60033C2F200031B8803F00203002B03F0F58145F65440C0F2020011F030F85D
:404B000003F0EDB99F1000200A4845F6AC41C0F2020111F0DBF80346002B0DD0054845F6B441C0F2020111F0D1F80346002B43F0D88101E09F10002045F6B840C0F2020026
:404B400011F00EF845F6C840C0F2020011F008F840F6AC23C2F200031B7845F6D840C0F20200194610F0A8FFFBF712FE40F6AC23C2F200035B7845F6FC40C0F202001946BF
:404B800010F09AFFFBF74AFD42F27450C0F2020010F0E6FF42F27450C0F2020010F0E0FF45F62050C0F2020010F0DAFF45F63850C0F2020010F0D4FF45F65050C0F20200F6
:404BC00010F07AFF4AF23403C1F6FF73DB6818460FF0D8FE02460B4645F67050C0F2020010F06AFF42F27450C0F2020010F0B8FF45F68450C0F2020010F05EFF40F27473DD
:404C0000C2F20003DB6818460FF0BCFE02460B4645F67050C0F2020010F04EFF42F27450C0F2020010F09CFF42F27450C0F2020010F096FF45F6A450C0F2020010F090FFD4
:404C400045F6B450C0F2020010F08AFF45F6C450C0F2020010F030FF4AF23403C1F6FF731B7C45F6E450C0F20200194610F024FF42F27450C0F2020010F072FF45F6FC500A
:404C8000C0F2020010F018FF4AF23403C1F6FF735B6918460FF076FE02460B4645F61C60C0F2020010F008FF42F27450C0F2020010F056FF45F62060C0F2020010F0FCFE83
:404CC0004AF23403C1F6FF739B6918460FF05AFE02460B4645F61C60C0F2020010F0ECFE42F27450C0F2020010F03AFF45F64060C0F2020010F0E0FEFBF728FE42F274500F
:404D0000C0F2020010F02CFF45F66060C0F2020010F0D2FE4AF23403C1F6FF731B6A18460FF030FE04460D464AF23403C1F6FF731A6A4AF23403C1F6FF73DB691046194617
:404D400010F094FA034618460FF01CFE02460B46CDE9002345F68060C0F2020022462B4610F0AAFE42F27450C0F2020010F0F8FE45F69460C0F2020010F09EFE4AF234038F
:404D8000C1F6FF7393F82D3045F6B460C0F20200194610F091FE42F27450C0F2020010F0DFFE45F6D060C0F2020010F085FE40F27473C2F200031B7C45F6E450C0F202003C
:404DC000194610F079FE42F27450C0F2020010F0C7FE45F6F060C0F2020010F06DFE40F27473C2F200035B6918460FF0CBFD02460B4645F61C60C0F2020010F05DFE42F276
:404E00007450C0F2020010F0ABFE45F61070C0F2020010F051FE40F27473C2F200039B6918460FF0AFFD02460B4645F61C60C0F2020010F041FE42F27450C0F2020010F0C7
:404E40008FFE45F63070C0F2020010F035FEFBF7B1FD42F27450C0F2020010F081FE45F65070C0F2020010F027FE40F27473C2F200031B6A18460FF085FD04460D4640F241
:404E80007473C2F200031A6A40F27473C2F20003DB691046194610F0E9F9034618460FF071FD02460B46CDE9002345F68060C0F2020022462B4610F0FFFD42F27450C0F251
:404EC000020010F04DFE45F67070C0F2020010F0F3FD40F27473C2F2000393F82D3045F6B460C0F20200194610F0E6FD42F27450C0F2020010F034FE42F27450C0F202001F
:404F000010F02EFE45F69070C0F2020010F028FE45F6A470C0F2020010F022FE45F6B870C0F2020010F0C8FD40F64C03C2F20003DB8D1AB240F64C03C2F2000393F82C309E
:404F400045F6D870C0F2020011461A4610F0B4FD42F27450C0F2020010F002FE45F6FC70C0F2020010F0A8FD40F64C03C2F200031B8E1BB246F21C00C0F20200194610F0CD
:404F80009BFD42F27450C0F2020010F0E9FD46F22C00C0F2020010F08FFD40F64C03C2F200035B8E1BB246F21C00C0F20200194610F082FD42F27450C0F2020010F0D0FDD2
:404FC00046F24C00C0F2020010F076FD40F64C03C2F200039B8E1BB246F21C00C0F20200194610F069FD42F27450C0F2020010F0B7FD46F26C00C0F2020010F05DFD40F6BF
:405000004C03C2F200039B6B18460FF0BBFC02460B4646F28C00C0F2020010F04DFD42F27450C0F2020010F09BFD46F2A000C0F2020010F041FD40F6C423C2F20003DB8DAB
:405040001AB240F6C423C2F2000393F82C3045F6D870C0F2020011461A4610F02DFD42F27450C0F2020010F07BFD46F2C000C0F2020010F021FD40F6C423C2F200031B8E26
:405080001BB246F21C00C0F20200194610F014FD42F27450C0F2020010F062FD46F2E000C0F2020010F008FD40F6C423C2F200035B8E1BB246F21C00C0F20200194610F0DE
:4050C000FBFC42F27450C0F2020010F049FD46F20010C0F2020010F0EFFC40F6C423C2F200039B8E1BB246F21C00C0F20200194610F0E2FC42F27450C0F2020010F030FDF8
:4051000046F22010C0F2020010F0D6FC40F6C423C2F200039B6B18460FF034FC02460B4646F28C00C0F2020010F0C6FC42F27450C0F2020010F014FD42F27450C0F20200DE
:4051400010F00EFD46F24010C0F2020010F008FD46F25010C0F2020010F002FD46F26010C0F2020010F0A8FC4AF23403C1F6FF735B6A18460FF006FC02460B4645F61C6088
:40518000C0F2020010F098FC4AF23403C1F6FF731B7846F28010C0F20200194610F08CFC4AF23400C1F6FF70FBF71AFB46F29010C0F2020010F080FC4AF23400C1F6FF70DA
:4051C000FBF74EFB46F2B010C0F2020010F074FC4AF23400C1F6FF70FBF720FC42F27450C0F2020010F0BCFC46F2D010C0F2020010F062FC40F27473C2F200035B6A184633
:405200000FF0C0FB02460B4645F61C60C0F2020010F052FC40F27473C2F200031B7846F28010C0F20200194610F046FC4AF23400C1F6FF70FBF7D4FA46F2F010C0F20200A0
:4052400010F03AFC40F27470C2F20000FBF708FB46F21020C0F2020010F02EFC40F27470C2F20000FBF7DAFB42F27450C0F2020010F076FC46F23020C0F2020010F01CFCF0
:4052800048F21013C1F6FF731B681846FBF734FB42F27450C0F2020010F062FC42F27450C0F2020010F05CFC46F25020C0F2020010F056FC46F26820C0F2020010F050FCEA
:4052C00046F28020C0F2020010F0F6FB40F6AC23C2F200035B6818460FF054FB04460D4640F6AC23C2F200035B6818464DF20A71C3F6234102F01AFF034618460FF042FBC7
:4053000002460B46CDE9002346F2A020C0F2020022462B4610F0D0FB40F6AC23C2F200035B6818464DF20A71C3F6234102F024FF034618460FF026FB02460B4646F2B82072
:40534000C0F2020010F0B8FB46F2CC20C0F2020010F0B2FB40F6AC23C2F200031B891BB246F2EC20C0F20200194610F0A5FB42F27450C0F2020010F0F3FB46F2F820C0F281
:40538000020010F099FB40F6AC23C2F200035B891BB246F2EC20C0F20200194610F08CFB42F27450C0F2020010F0DAFB46F21830C0F2020010F080FB40F6AC23C2F2000320
:4053C0009B891BB246F2EC20C0F20200194610F073FB42F27450C0F2020010F0C1FB42F27450C0F2020010F0BBFB46F23830C0F2020010F0B5FB46F25430C0F2020010F0B9
:40540000AFFB46F27030C0F2020010F055FB40F63C13C2F200039B6A18460FF0B3FA04460D4640F63C13C2F200039B6A18464CF24431C3F62E2102F079FE034618460FF095
:40544000A1FA02460B46CDE9002346F2A020C0F2020022462B4610F02FFB40F63C13C2F200039B6A18464CF24431C3F62E2102F083FE034618460FF085FA02460B4646F2AD
:40548000B820C0F2020010F017FB46F29030C0F2020010F011FB40F63C13C2F2000393F8243045F6E450C0F20200194610F004FB42F27450C0F2020010F052FB46F2B030E9
:4054C000C0F2020010F0F8FA40F63C13C2F2000393F8253045F6E450C0F20200194610F0EBFA42F27450C0F2020010F039FB46F2D030C0F2020010F0DFFA40F63C13C2F2A5
:40550000000393F8263045F6E450C0F20200194610F0D2FA42F27450C0F2020010F020FB46F2F030C0F2020010F0C6FA40F63C13C2F2000393F8273046F21040C0F202004C
:40554000194610F0B9FA42F27450C0F2020010F007FB42F27450C0F2020010F001FB46F22C40C0F2020010F0FBFA46F24040C0F2020010F0F5FA46F25440C0F2020010F09B
:405580009BFA40F6AC23C2F200031B6918460FF0F9F902460B4646F27440C0F2020010F08BFA46F28040C0F2020010F085FA40F6AC23C2F200035B6918460FF0E3F90246DD
:4055C0000B4646F27440C0F2020010F075FA42F27450C0F2020010F0C3FA02F089BC41F29000C2F2000046F2A041C0F2020110F06DFB0346002B5ED1B14810F09DF8034684
:4056000087F8EA30AE4810F097F8034687F8EA3097F8EA30322B44D848F61C23C1F6FF731B78052B35D197F8EA30184608F0E2FE0346002B26D197F8EA3046F2A840C0F214
:405640000200194610F038FA97F8EA30184608F0B9FF11E04AF22803C1F6FF731B780C2B0AD197F8EA3046F2BC40C0F20200194610F022FA02F03CBC02F046FC0346002B1C
:40568000E8D00DE046F2D040C0F2020010F068FA0FE046F2FC40C0F2020010F061FA08E007E045F61020C0F2020010F005FA02F01FBC02F01DBC41F29000C2F2000046F241
:4056C0002C51C0F2020110F001FB0346002B79D17B4810F031F8034687F8E930784810F02BF8034687F8E93048F61C23C1F6FF731B78052B5DD108F033FD4FF0000387F8AD
:40570000FE3045E097F8FE2040F6D803C2F200039B5C46F2A840C0F20200194610F0CCF997F8FE2040F6D803C2F200039B5C184608F048FF0CE002F0E7FB0346012B07D19C
:4057400046F23450C0F2020010F00AFA02F0D0BB4AF22803C1F6FF731B780C2BEBD197F8FE2040F6D803C2F200039B5C46F2BC40C0F20200194610F09FF997F8E9301846D1
:405780000CF0E6FC97F8FE3003F1010387F8FE3097F8FE2040F6D803C2F200039B5CFF2BB0D146F24450C0F2020010F0D9F902F09FBB46F25C50C0F2020010F0D1F900BFD3
:4057C00002F096BB41F29000C2F2000046F28C51C0F2020110F07AFA0346002B0CD041F29000C2F2000046F29851C0F2020110F06DFA0346002B65D148F61C23C1F6FF735D
:405800001B78052B52D146F2A050C0F2020010F0A7F906F09DFA06F0DBFA06F079FA06F07FFA40F60800C2F200004FF0020106F0BFF840F6A800C2F200004FF0030106F02A
:40584000B7F82DE040F60803C2F200035A6841F6F113C0F27653A3FB02134FEA531340F2DC5101FB03F3D31A002B03D14FF02E0010F038F940F60803C2F200031B78022B17
:405880000ED140F6A803C2F200031B78022B07D146F2B850C0F2020010F062F902F028BB02F032FB0346002BCCD007E046F2D050C0F2020010F054F902F01ABB02F018BBBA
:4058C0009F10002041F29000C2F2000046F20C61C0F2020110F0FAF90346002B0DD041F29000C2F2000046F21461C0F2020110F0EDF90346002B40F0DC80BA480FF01CFFE9
:40590000034687F8E53097F8E530002B00F0C780B4480FF011FF034687F8E53097F8E530632B00F2BC80B0480FF002FF02460B46104619460FF03CFB0346C7F81431D7F8A4
:4059400014014FF000010FF043FE0346002B00F0AE80A5480FF0ECFE02460B46104619460FF026FB0346C7F81431D7F814014FF00001C4F2F0110FF021FE0346002B00F012
:405980008D8048F61C23C1F6FF731B78052B7ED197F8E52040F6CC13C2F200039B5CFF2B6BD0D7F814014FF000010FF0F3FD0346002B03D04FF08043C7F8143146F2186056
:4059C000C0F2020010F0CCF897F8E5305BB21846D7F8141106F03CFA97F8E5305BB21846D7F8141106F0D4FA06F0A2F906F0A8F940F60800C2F200004FF0040105F0D8FF0F
:405A000040F6A800C2F200004FF0050105F0D0FF2DE040F60803C2F200035A6841F6F113C0F27653A3FB02034FEA531340F2DC5101FB03F3D31A002B03D14FF02E0010F062
:405A400051F840F60803C2F200031B78022B0ED140F6A803C2F200031B78022B07D146F23060C0F2020010F07BF802F041BA02F04BFA0346002BCCD010E097F8E53046F227
:405A80004860C0F20200194610F016F80FE046F28060C0F2020010F063F808E007E046F2B860C0F2020010F05BF802F021BA02F01FBA41F29000C2F2000043F25021C0F27A
:405AC000020110F003F90346002B42F0FD81454B1B78002B07D146F2E460C0F202000FF0EBFF02F002BA3F4846F20871C0F2020110F0ECF80346002B09D03A4846F2147139
:405B0000C0F2020110F0E2F80346002B30D136480FF012FE034687F8B33033480FF00CFE034687F8B33097F8B330122B18D840F6AC23C2F2000397F8B3205A7002F05EFB28
:405B4000034687F8D93097F8B33046F21870C0F2020019460FF0B0FFFAF760FD02F0C8B945F61020C0F202000FF0A6FF02F0C0B91C4846F24071C0F2020110F0A7F8034688
:405B8000002B33D118480FF0D7FD034687F8DA3015480FF0D1FD034687F8DA3097F8DA30012B16D840F6AC23C2F2000397F8DA201A7002F023FB034687F8D93097F8DA30B9
:405BC00046F24870C0F2020019460FF075FF02F08FB945F61020C0F202000FF06DFF02F087B900BF9F100020AE100020BD4846F26C71C0F2020110F069F80346002B09D050
:405C0000B84846F27871C0F2020110F05FF80346002B2ED1B4480FF08FFD034687F8F330B1480FF089FD034687F8F33097F8F330012B16D84AF23403C1F6FF7397F8F320DF
:405C40001A7402F0DBFA034687F8D93097F8F33046F28070C0F2020019460FF02DFF02F047B945F61020C0F202000FF025FF02F03FB99C4846F2A471C0F2020110F026F8C4
:405C80000346002B09D0974846F2B071C0F2020110F01CF80346002B2ED193480FF04CFD034687F8F33090480FF046FD034687F8F33097F8F330012B16D840F27473C2F277
:405CC000000397F8F3201A7402F098FA034687F8D93097F8F33046F2B870C0F2020019460FF0EAFE02F004B945F61020C0F202000FF0E2FE02F0FCB87A4846F2DC71C0F2C4
:405D000002010FF0E3FF0346002B09D0754846F2E471C0F202010FF0D9FF0346002B2FD171480FF009FD034687F8B4306E480FF003FD034687F8B43097F8B430012B17D88F
:405D40004AF23403C1F6FF7397F8B42083F82D2002F054FA034687F8D93097F8B43046F2E870C0F2020019460FF0A6FE02F0C0B845F61020C0F202000FF09EFE02F0B8B80C
:405D8000584846F61001C0F202010FF09FFF0346002B09D0534846F61801C0F202010FF095FF0346002B2FD14F480FF0C5FC034687F8B5304C480FF0BFFC034687F8B530AC
:405DC00097F8B530012B17D840F64C03C2F2000397F8B52083F82C2002F010FA034687F8D93097F8B53046F62000C0F2020019460FF062FE02F07CB845F61020C0F2020059
:405E00000FF05AFE02F074B8364846F65001C0F202010FF05BFF0346002B09D0314846F65C01C0F202010FF051FF0346002B5DD146F66000C0F202000FF03EFE4FF0010004
:405E400002F070F80346012B3FD140F64C03C2F200034FF00002DA8546F6A000C0F202000FF07EFE40F60830C2F2000009F04AFE4FF47A700CF06CF946F6B800C0F20200C3
:405E80000FF06EFE40F60830C2F2000009F048FE40F60833C2F200035B6818460FF0ACFB03469AB240F64C03C2F20003DA8540F64C03C2F20003DB8D1BB246F6CC00C0F2CC
:405EC000020019460FF0F8FD05E046F61410C0F202000FF045FE02F091F9034687F8D93002F006B89F100020AE100020C14846F64411C0F202010FF0E9FE0346002B09D0E6
:405F0000BC4846F65011C0F202010FF0DFFE0346002B59D146F65810C0F202000FF0CCFD4FF0010001F0FEFF0346012B3FD140F64C03C2F200034FF000025A8646F6A00085
:405F4000C0F202000FF00CFE40F60830C2F2000009F0D8FD4FF47A700CF0FAF840F60830C2F2000009F0DCFD46F6B800C0F202000FF0F6FD40F60833C2F200035B68184682
:405F80000FF03AFB03469AB240F64C03C2F200035A8640F64C03C2F200035B8E1BB246F69410C0F2020019460FF086FD05E046F61410C0F202000FF0D3FD02F01FF903467A
:405FC00087F8D93001F094BF8A4846F6D011C0F202010FF07BFE0346002B09D0854846F6DC11C0F202010FF071FE0346002B59D146F6E410C0F202000FF05EFD4FF0010037
:4060000001F090FF0346012B3FD140F64C03C2F200034FF000021A8646F6A000C0F202000FF09EFD40F60830C2F2000009F06AFD4FF47A700CF08CF840F60830C2F20000C3
:4060400009F06EFD46F6B800C0F202000FF088FD40F60833C2F200035B6818460FF0CCFA03469AB240F64C03C2F200031A8640F64C03C2F200031B8E1BB246F62020C0F231
:40608000020019460FF018FD05E046F61410C0F202000FF065FD02F0B1F8034687F8D93001F026BF534846F65C21C0F202010FF00DFE0346002B09D04E4846F66821C0F262
:4060C00002010FF003FE0346002B2ED14A480FF033FB0346A7F8B63047480FF02DFB0346A7F8B630B7F8B630642B16D8B7F8B62040F64C03C2F200039A8602F07FF8034674
:4061000087F8D930B7F8B63046F67020C0F2020019460FF0D1FC01F0EBBE45F61020C0F202000FF0C9FC01F0E3BE324845F6B821C0F202010FF0CAFD0346002B09D02D48BD
:4061400045F6C421C0F202010FF0C0FD0346002B54D129480FF0ECFA02460B46104619460EF026FF0346C7F8B830D7F8B8004FF48041CCF21C610FF02BFA0346002B30D0E0
:406180001D480FF0D5FA02460B46104619460EF00FFF0346C7F8B830D7F8B8004FF48041C4F21C610FF00AFA0346002B19D040F64C03C2F20003D7F8B8209A6302F01EF85C
:4061C000034687F8D930D7F8B8000EF0DBFB02460B4646F6B420C0F202000FF06DFC01F087BE45F61020C0F202000FF065FC01F07FBE00BF9F100020AE100020B14846F62A
:406200000031C0F202010FF061FD0346002B09D0AC4846F60831C0F202010FF057FD0346002B2FD1A8480FF087FA034687F8B430A5480FF081FA034687F8B43097F8B43047
:40624000012B17D840F27473C2F2000397F8B42083F82D2001F0D2FF034687F8D93097F8B43046F60C30C0F2020019460FF024FC01F03EBE45F61020C0F202000FF01CFC35
:4062800001F036BE8F4846F63831C0F202010FF01DFD0346002B09D08A4846F64031C0F202010FF013FD0346002B2FD186480FF043FA034687F8B53083480FF03DFA0346AA
:4062C00087F8B53097F8B530012B17D840F6C423C2F2000397F8B52083F82C2001F08EFF034687F8D93097F8B53046F64830C0F2020019460FF0E0FB01F0FABD45F6102035
:40630000C0F202000FF0D8FB01F0F2BD6D4846F67C31C0F202010FF0D9FC0346002B09D0684846F68831C0F202010FF0CFFC0346002B59D146F68C30C0F202000FF0BCFB9F
:406340004FF0010001F0EEFD0346012B3FD140F6C423C2F200034FF00002DA8546F6A000C0F202000FF0FCFB48F66430C1F6FF7009F0C8FB4FF47A700BF0EAFE48F66430EC
:40638000C1F6FF7009F0CCFB46F6B800C0F202000FF0E6FB48F66433C1F6FF735B6818460FF02AF903469AB240F6C423C2F20003DA8540F6C423C2F20003DB8D1BB246F621
:4063C000CC30C0F2020019460FF076FB05E046F61440C0F202000FF0C3FB01F00FFF034687F8D93001F084BD364846F64441C0F202010FF06BFC0346002B09D0314846F6DA
:406400005041C0F202010FF061FC0346002B5DD146F65840C0F202000FF04EFB4FF0010001F080FD0346012B3FD140F6C423C2F200034FF000025A8646F6A000C0F2020090
:406440000FF08EFB48F66430C1F6FF7009F05AFB4FF47A700BF07CFE48F66430C1F6FF7009F05EFB46F6B800C0F202000FF078FB48F66433C1F6FF735B6818460FF0BCF876
:4064800003469AB240F6C423C2F200035A8640F6C423C2F200035B8E1BB246F69440C0F2020019460FF008FB05E046F61440C0F202000FF055FB01F0A1FE034687F8D9300B
:4064C00001F016BD9F100020AE100020D24846F6D041C0F202010FF0F9FB0346002B09D0CD4846F6DC41C0F202010FF0EFFB0346002B59D146F6E440C0F202000FF0DCFA3C
:406500004FF0010001F00EFD0346012B3FD140F6C423C2F200034FF000021A8646F6A000C0F202000FF01CFB48F66430C1F6FF7009F0E8FA4FF47A700BF00AFE48F664306A
:40654000C1F6FF7009F0ECFA46F6B800C0F202000FF006FB48F66433C1F6FF735B6818460FF04AF803469AB240F6C423C2F200031A8640F6C423C2F200031B8E1BB246F67F
:406580002050C0F2020019460FF096FA05E046F61440C0F202000FF0E3FA01F02FFE034687F8D93001F0A4BC9B4846F65C51C0F202010FF08BFB0346002B09D0964846F617
:4065C0006851C0F202010FF081FB0346002B2ED192480FF0B1F80346A7F8B6308F480FF0ABF80346A7F8B630B7F8B630642B16D8B7F8B62040F6C423C2F200039A8601F02C
:40660000FDFD034687F8D930B7F8B63046F67050C0F2020019460FF04FFA01F069BC45F61020C0F202000FF047FA01F061BC7A4845F6B031C0F202010FF048FB0346002BD7
:4066400009D0754845F6BC31C0F202010FF03EFB0346002B4FD171480FF06AF802460B46104619460EF0A4FC0346C7F8B830D7F8B8004FF48041CCF21C610EF0A9FF034630
:40668000002B30D065480FF053F802460B46104619460EF08DFC0346C7F8B830D7F8B8004FF48041C4F21C610EF088FF0346002B19D040F6C423C2F20003D7F8B8209A63DB
:4066C00001F09CFD034687F8D930D7F8B8000EF059F902460B4646F6B450C0F202000FF0EBF901F005BC45F61020C0F202000FF0E3F901F0FDBB484846F60061C0F20201C1
:406700000FF0E4FA0346002B09D0434846F60C61C0F202010FF0DAFA0346002B33D13F480FF00AF8034687F8F2303C480FF004F8034687F8F23097F8F230012B1BD840F61A
:406740003C13C2F2000397F8F22083F8242001F055FD034687F8D93040F63C13C2F2000393F8243046F61460C0F2020019460FF0A3F901F0BDBB45F61020C0F202000FF09F
:406780009BF901F0B5BB244846F63461C0F202010FF09CFA0346002B09D01F4846F64061C0F202010FF092FA0346002B38D11B480EF0C2FF034687F8F23018480EF0BCFFEA
:4067C000034687F8F23097F8F230012B1BD840F63C13C2F2000397F8F22083F8252001F00DFD034687F8D93040F63C13C2F2000393F8253046F64860C0F2020019460FF064
:406800005BF901F075BB45F61020C0F202000FF053F901F06DBB00BF9F100020AE100020BB4846F66C61C0F202010FF04FFA0346002B09D0B64846F67861C0F202010FF0D7
:4068400045FA0346002B33D1B2480EF075FF034687F8F230AF480EF06FFF034687F8F23097F8F230012B1BD840F63C13C2F2000397F8F22083F8262001F0C0FC034687F8DB
:40688000D93040F63C13C2F2000393F8263046F68060C0F2020019460FF00EF901F028BB45F61020C0F202000FF006F901F020BB974846F6A461C0F202010FF007FA0346A2
:4068C000002B09D0924846F6B061C0F202010FF0FDF90346002B33D18E480EF02DFF034687F8F1308B480EF027FF034687F8F13097F8F130012B1BD840F63C13C2F2000377
:4069000097F8F12083F8272001F078FC034687F8D93040F63C13C2F2000393F8273046F6B860C0F2020019460FF0C6F801F0E0BA45F61020C0F202000FF0BEF801F0D8BA9B
:40694000734844F61041C0F202010FF0BFF90346002B0AD06E4845F6B001C0F202010FF0B5F90346002B40F0BE816B4846F6E061C0F202010FF0AAF90346002B09D06648AE
:4069800046F6E861C0F202010FF0A0F90346002B7AD160480EF0D0FE034687F8E53097F8E530002B00F09C815A480EF0C5FE034687F8E53097F8E530632B00F2918197F814
:4069C000E52040F6CC13C2F200039B5C194640F63832C2F200020B464FEAC3035B184FEA8303D3181B78002B47D097F8E52040F6CC13C2F200039B5C194640F63832C2F2CE
:406A000000020B464FEAC3035B184FEA8303D3181B7846F6EC60C0F2020019460FF04CF897F8E52040F6CC13C2F200039B5C194640F63832C2F200020B464FEAC3035B18A7
:406A40004FEA8303D3184FF000021A7097F8E52040F6CC13C2F200039B5CDBB25BB2184602F090F90346002B00F03A8146F61070C0F202000FF020F832E146F63470C0F28C
:406A800002000FF06DF82BE123480EF055FE0346A7F8E63020480EF04FFE0346A7F8E630B7F8E6301F2B00F213811A480EF044FE034687F8E53097F8E530002B00F00081A5
:406AC00014480EF039FE034687F8E53097F8E530632B00F2F58046F66870C0F202000EF0EBFF4FF0010001F01DFA0346012B40F0CB80094B1B78002B10D097F8E520B7F872
:406B0000E630D9B240F6CC13C2F20003995413E09F100020AE100020B810002097F8E52097F8E51041F21803C2F20003595C40F6CC13C2F20003995497F8E52040F6CC133F
:406B4000C2F200039B5C194640F63832C2F200020B464FEAC3035B184FEA8303D31897F8E5201A7097F8E52040F6CC13C2F200039B5C194640F64C03C2F20003586840F63F
:406B80003832C2F200020B464FEAC3035B184FEA8303D31803F11803186097F8E52040F6CC13C2F200039B5C194640F64C03C2F20003586840F63832C2F200020B464FEA2F
:406BC000C3035B184FEA8303D31803F10403186097F8E52040F6CC13C2F200039B5C194640F6C423C2F20003586840F63832C2F200020B464FEAC3035B184FEA8303D31832
:406C000003F11C03186097F8E52040F6CC13C2F200039B5C194640F6C423C2F20003586840F63832C2F200020B464FEAC3035B184FEA8303D31803F10803186097F8E56071
:406C400040F64C03C2F200035B6818460EF0D4FC054640F6C423C2F200035B6818460EF0CBFC044697F8E52040F6CC13C2F200039B5C009346F6A470C0F2020031462A46C5
:406C800023460EF019FF05E047F21400C0F202000EF066FF97F8E52040F6CC13C2F200039B5CDBB25BB2184602F06CF80346002B0DD046F61070C0F202000EF0FDFE06E0C7
:406CC00045F61020C0F202000EF0F6FE09E008E045F61020C0F202000EF0EEFE01F008B900BF01F005B9B84847F24001C0F202010EF0ECFF0346002B51D1B4480EF018FDCC
:406D000002460B46104619460EF052F90346C7F8D430D7F8D4004FF000010EF059FC0346002B34D0A9480EF003FD02460B46104619460EF03DF90346C7F8D430D7F8D400E2
:406D40004FF00001C4F2C8210EF038FC0346002B1DD04AF23403C1F6FF73D7F8D4205A6101F04CFA034687F8D9304AF23403C1F6FF735B6918460DF005FE02460B4647F2EF
:406D80004400C0F202000EF097FE01F0B1B845F61020C0F202000EF08FFE01F0A9B88A4847F26401C0F202010EF090FF0346002B51D186480EF0BCFC02460B4610461946D8
:406DC0000EF0F6F80346C7F8D430D7F8D4004FF000010EF0FDFB0346002B34D07B480EF0A7FC02460B46104619460EF0E1F80346C7F8D430D7F8D4004FF00001C4F2C82133
:406E00000EF0DCFB0346002B1DD040F27473C2F20003D7F8D4205A6101F0F0F9034687F8D93040F27473C2F200035B6918460DF0A9FD02460B4647F26800C0F202000EF0A2
:406E40003BFE01F055B845F61020C0F202000EF033FE01F04DB85C4847F28801C0F202010EF034FF0346002B51D158480EF060FC02460B46104619460EF09AF80346C7F8D5
:406E8000D030D7F8D0004FF000010EF0A1FB0346002B34D04D480EF04BFC02460B46104619460EF085F80346C7F8D030D7F8D0004FF00001C4F27A410EF080FB0346002BF9
:406EC0001DD04AF23403C1F6FF73D7F8D0209A6101F094F9034687F8D9304AF23403C1F6FF739B6918460DF04DFD02460B4647F28C00C0F202000EF0DFFD00F0F9BF45F6EC
:406F00001020C0F202000EF0D7FD00F0F1BF2E4847F2AC01C0F202010EF0D8FE0346002B56D12A480EF004FC02460B46104619460EF03EF80346C7F8D030D7F8D0004FF0A3
:406F400000010EF045FB0346002B34D01F480EF0EFFB02460B46104619460EF029F80346C7F8D030D7F8D0004FF00001C4F27A410EF024FB0346002B1DD040F27473C2F2FB
:406F80000003D7F8D0209A6101F038F9034687F8D93040F27473C2F200039B6918460DF0F1FC02460B4647F2B000C0F202000EF083FD00F09DBF45F61020C0F202000EF0E8
:406FC0007BFD00F095BF00BF9F100020AE100020B74847F2D001C0F202010EF077FE0346002B51D1B3480EF0A3FB02460B46104619460DF0DDFF0346C7F8CC30D7F8CC0045
:407000004FF000010EF0E4FA0346002B34D0A9480EF08EFB02460B46104619460DF0C8FF0346C7F8CC30D7F8CC004FF00001C4F2C8210EF0C3FA0346002B1DD04AF2340325
:40704000C1F6FF73D7F8CC20DA6101F0D7F8034687F8D9304AF23403C1F6FF73DB6918460DF090FC02460B4647F2D400C0F202000EF022FD00F03CBF45F61020C0F2020018
:407080000EF01AFD00F034BF894847F2F401C0F202010EF01BFE0346002B51D185480EF047FB02460B46104619460DF081FF0346C7F8CC30D7F8CC004FF000010EF088FA40
:4070C0000346002B34D07B480EF032FB02460B46104619460DF06CFF0346C7F8CC30D7F8CC004FF00001C4F2C8210EF067FA0346002B1DD040F27473C2F20003D7F8CC20AB
:40710000DA6101F07BF8034687F8D93040F27473C2F20003DB6918460DF034FC02460B4647F2F800C0F202000EF0C6FC00F0E0BE45F61020C0F202000EF0BEFC00F0D8BE17
:407140005B4847F21811C0F202010EF0BFFD0346002B51D157480EF0EBFA02460B46104619460DF025FF0346C7F8C830D7F8C8004FF000010EF02CFA0346002B34D04D480C
:407180000EF0D6FA02460B46104619460DF010FF0346C7F8C830D7F8C8004FF41051C4F674110EF00BFA0346002B1DD04AF23403C1F6FF73D7F8C8201A6201F01FF80346A9
:4071C00087F8D9304AF23403C1F6FF731B6A18460DF0D8FB02460B4647F22010C0F202000EF06AFC00F084BE45F61020C0F202000EF062FC00F07CBE2D4847F24011C0F216
:4072000002010EF063FD0346002B55D129480EF08FFA02460B46104619460DF0C9FE0346C7F8C830D7F8C8004FF000010EF0D0F90346002B34D01F480EF07AFA02460B46C1
